{
	"verifier.sol": {
		"Verifier": {
			"abi": [
				{
					"inputs": [
						{
							"components": [
								{
									"components": [
										{
											"internalType": "uint256",
											"name": "X",
											"type": "uint256"
										},
										{
											"internalType": "uint256",
											"name": "Y",
											"type": "uint256"
										}
									],
									"internalType": "struct Pairing.G1Point",
									"name": "a",
									"type": "tuple"
								},
								{
									"components": [
										{
											"internalType": "uint256[2]",
											"name": "X",
											"type": "uint256[2]"
										},
										{
											"internalType": "uint256[2]",
											"name": "Y",
											"type": "uint256[2]"
										}
									],
									"internalType": "struct Pairing.G2Point",
									"name": "b",
									"type": "tuple"
								},
								{
									"components": [
										{
											"internalType": "uint256",
											"name": "X",
											"type": "uint256"
										},
										{
											"internalType": "uint256",
											"name": "Y",
											"type": "uint256"
										}
									],
									"internalType": "struct Pairing.G1Point",
									"name": "c",
									"type": "tuple"
								}
							],
							"internalType": "struct Verifier.Proof",
							"name": "proof",
							"type": "tuple"
						}
					],
					"name": "verifyTx",
					"outputs": [
						{
							"internalType": "bool",
							"name": "r",
							"type": "bool"
						}
					],
					"stateMutability": "view",
					"type": "function"
				}
			],
			"devdoc": {
				"kind": "dev",
				"methods": {},
				"version": 1
			},
			"evm": {
				"assembly": "    /* \"verifier.sol\":6234:9352  contract Verifier {... */\n  mstore(0x40, 0x80)\n  callvalue\n  dup1\n  iszero\n  tag_1\n  jumpi\n  0x00\n  dup1\n  revert\ntag_1:\n  pop\n  dataSize(sub_0)\n  dup1\n  dataOffset(sub_0)\n  0x00\n  codecopy\n  0x00\n  return\nstop\n\nsub_0: assembly {\n        /* \"verifier.sol\":6234:9352  contract Verifier {... */\n      mstore(0x40, 0x80)\n      callvalue\n      dup1\n      iszero\n      tag_1\n      jumpi\n      0x00\n      dup1\n      revert\n    tag_1:\n      pop\n      jumpi(tag_2, lt(calldatasize, 0x04))\n      shr(0xe0, calldataload(0x00))\n      dup1\n      0xf6af0311\n      eq\n      tag_3\n      jumpi\n    tag_2:\n      0x00\n      dup1\n      revert\n        /* \"verifier.sol\":9069:9350  function verifyTx(... */\n    tag_3:\n      tag_4\n      0x04\n      dup1\n      calldatasize\n      sub\n      dup2\n      add\n      swap1\n      tag_5\n      swap2\n      swap1\n      tag_6\n      jump\t// in\n    tag_5:\n      tag_7\n      jump\t// in\n    tag_4:\n      mload(0x40)\n      tag_8\n      swap2\n      swap1\n      tag_9\n      jump\t// in\n    tag_8:\n      mload(0x40)\n      dup1\n      swap2\n      sub\n      swap1\n      return\n    tag_7:\n        /* \"verifier.sol\":9150:9156  bool r */\n      0x00\n        /* \"verifier.sol\":9168:9193  uint[] memory inputValues */\n      dup1\n        /* \"verifier.sol\":9207:9208  0 */\n      0x00\n        /* \"verifier.sol\":9196:9209  new uint[](0) */\n      0xffffffffffffffff\n      dup2\n      gt\n      iszero\n      tag_11\n      jumpi\n      tag_12\n      tag_13\n      jump\t// in\n    tag_12:\n    tag_11:\n      mload(0x40)\n      swap1\n      dup1\n      dup3\n      mstore\n      dup1\n      0x20\n      mul\n      0x20\n      add\n      dup3\n      add\n      0x40\n      mstore\n      dup1\n      iszero\n      tag_14\n      jumpi\n      dup2\n      0x20\n      add\n      0x20\n      dup3\n      mul\n      dup1\n      calldatasize\n      dup4\n      calldatacopy\n      dup1\n      dup3\n      add\n      swap2\n      pop\n      pop\n      swap1\n      pop\n    tag_14:\n      pop\n        /* \"verifier.sol\":9168:9209  uint[] memory inputValues = new uint[](0) */\n      swap1\n      pop\n        /* \"verifier.sol\":9262:9263  0 */\n      0x00\n        /* \"verifier.sol\":9232:9258  verify(inputValues, proof) */\n      tag_15\n        /* \"verifier.sol\":9239:9250  inputValues */\n      dup3\n        /* \"verifier.sol\":9252:9257  proof */\n      dup6\n        /* \"verifier.sol\":9232:9238  verify */\n      tag_16\n        /* \"verifier.sol\":9232:9258  verify(inputValues, proof) */\n      jump\t// in\n    tag_15:\n        /* \"verifier.sol\":9232:9263  verify(inputValues, proof) == 0 */\n      sub\n        /* \"verifier.sol\":9228:9344  if (verify(inputValues, proof) == 0) {... */\n      tag_17\n      jumpi\n        /* \"verifier.sol\":9286:9290  true */\n      0x01\n        /* \"verifier.sol\":9279:9290  return true */\n      swap2\n      pop\n      pop\n      jump(tag_10)\n        /* \"verifier.sol\":9228:9344  if (verify(inputValues, proof) == 0) {... */\n    tag_17:\n        /* \"verifier.sol\":9328:9333  false */\n      0x00\n        /* \"verifier.sol\":9321:9333  return false */\n      swap2\n      pop\n      pop\n        /* \"verifier.sol\":9069:9350  function verifyTx(... */\n    tag_10:\n      swap2\n      swap1\n      pop\n      jump\t// out\n        /* \"verifier.sol\":8143:9064  function verify(uint[] memory input, Proof memory proof) internal view returns (uint) {... */\n    tag_16:\n        /* \"verifier.sol\":8223:8227  uint */\n      0x00\n        /* \"verifier.sol\":8239:8265  uint256 snark_scalar_field */\n      dup1\n        /* \"verifier.sol\":8268:8345  21888242871839275222246405745257275088548364400416034343698204186575808495617 */\n      0x30644e72e131a029b85045b68181585d2833e84879b9709143e1f593f0000001\n        /* \"verifier.sol\":8239:8345  uint256 snark_scalar_field = 21888242871839275222246405745257275088548364400416034343698204186575808495617 */\n      swap1\n      pop\n        /* \"verifier.sol\":8355:8377  VerifyingKey memory vk */\n      0x00\n        /* \"verifier.sol\":8380:8394  verifyingKey() */\n      tag_20\n        /* \"verifier.sol\":8380:8392  verifyingKey */\n      tag_21\n        /* \"verifier.sol\":8380:8394  verifyingKey() */\n      jump\t// in\n    tag_20:\n        /* \"verifier.sol\":8355:8394  VerifyingKey memory vk = verifyingKey() */\n      swap1\n      pop\n        /* \"verifier.sol\":8432:8434  vk */\n      dup1\n        /* \"verifier.sol\":8432:8444  vk.gamma_abc */\n      0x80\n      add\n      mload\n        /* \"verifier.sol\":8432:8451  vk.gamma_abc.length */\n      mload\n        /* \"verifier.sol\":8427:8428  1 */\n      0x01\n        /* \"verifier.sol\":8412:8417  input */\n      dup7\n        /* \"verifier.sol\":8412:8424  input.length */\n      mload\n        /* \"verifier.sol\":8412:8428  input.length + 1 */\n      tag_22\n      swap2\n      swap1\n      tag_23\n      jump\t// in\n    tag_22:\n        /* \"verifier.sol\":8412:8451  input.length + 1 == vk.gamma_abc.length */\n      eq\n        /* \"verifier.sol\":8404:8452  require(input.length + 1 == vk.gamma_abc.length) */\n      tag_24\n      jumpi\n      0x00\n      dup1\n      revert\n    tag_24:\n        /* \"verifier.sol\":8509:8536  Pairing.G1Point memory vk_x */\n      0x00\n        /* \"verifier.sol\":8539:8560  Pairing.G1Point(0, 0) */\n      mload(0x40)\n      dup1\n      0x40\n      add\n      0x40\n      mstore\n      dup1\n        /* \"verifier.sol\":8555:8556  0 */\n      0x00\n        /* \"verifier.sol\":8539:8560  Pairing.G1Point(0, 0) */\n      dup2\n      mstore\n      0x20\n      add\n        /* \"verifier.sol\":8558:8559  0 */\n      0x00\n        /* \"verifier.sol\":8539:8560  Pairing.G1Point(0, 0) */\n      dup2\n      mstore\n      pop\n        /* \"verifier.sol\":8509:8560  Pairing.G1Point memory vk_x = Pairing.G1Point(0, 0) */\n      swap1\n      pop\n        /* \"verifier.sol\":8575:8581  uint i */\n      0x00\n        /* \"verifier.sol\":8570:8767  for (uint i = 0; i < input.length; i++) {... */\n    tag_25:\n        /* \"verifier.sol\":8591:8596  input */\n      dup7\n        /* \"verifier.sol\":8591:8603  input.length */\n      mload\n        /* \"verifier.sol\":8587:8588  i */\n      dup2\n        /* \"verifier.sol\":8587:8603  i < input.length */\n      lt\n        /* \"verifier.sol\":8570:8767  for (uint i = 0; i < input.length; i++) {... */\n      iszero\n      tag_26\n      jumpi\n        /* \"verifier.sol\":8643:8661  snark_scalar_field */\n      dup4\n        /* \"verifier.sol\":8632:8637  input */\n      dup8\n        /* \"verifier.sol\":8638:8639  i */\n      dup3\n        /* \"verifier.sol\":8632:8640  input[i] */\n      dup2\n      mload\n      dup2\n      lt\n      tag_28\n      jumpi\n      tag_29\n      tag_30\n      jump\t// in\n    tag_29:\n    tag_28:\n      0x20\n      mul\n      0x20\n      add\n      add\n      mload\n        /* \"verifier.sol\":8632:8661  input[i] < snark_scalar_field */\n      lt\n        /* \"verifier.sol\":8624:8662  require(input[i] < snark_scalar_field) */\n      tag_31\n      jumpi\n      0x00\n      dup1\n      revert\n    tag_31:\n        /* \"verifier.sol\":8683:8756  Pairing.addition(vk_x, Pairing.scalar_mul(vk.gamma_abc[i + 1], input[i])) */\n      tag_32\n        /* \"verifier.sol\":8700:8704  vk_x */\n      dup3\n        /* \"verifier.sol\":8706:8755  Pairing.scalar_mul(vk.gamma_abc[i + 1], input[i]) */\n      tag_33\n        /* \"verifier.sol\":8725:8727  vk */\n      dup6\n        /* \"verifier.sol\":8725:8737  vk.gamma_abc */\n      0x80\n      add\n      mload\n        /* \"verifier.sol\":8742:8743  1 */\n      0x01\n        /* \"verifier.sol\":8738:8739  i */\n      dup6\n        /* \"verifier.sol\":8738:8743  i + 1 */\n      tag_34\n      swap2\n      swap1\n      tag_23\n      jump\t// in\n    tag_34:\n        /* \"verifier.sol\":8725:8744  vk.gamma_abc[i + 1] */\n      dup2\n      mload\n      dup2\n      lt\n      tag_35\n      jumpi\n      tag_36\n      tag_30\n      jump\t// in\n    tag_36:\n    tag_35:\n      0x20\n      mul\n      0x20\n      add\n      add\n      mload\n        /* \"verifier.sol\":8746:8751  input */\n      dup11\n        /* \"verifier.sol\":8752:8753  i */\n      dup6\n        /* \"verifier.sol\":8746:8754  input[i] */\n      dup2\n      mload\n      dup2\n      lt\n      tag_37\n      jumpi\n      tag_38\n      tag_30\n      jump\t// in\n    tag_38:\n    tag_37:\n      0x20\n      mul\n      0x20\n      add\n      add\n      mload\n        /* \"verifier.sol\":8706:8724  Pairing.scalar_mul */\n      tag_39\n        /* \"verifier.sol\":8706:8755  Pairing.scalar_mul(vk.gamma_abc[i + 1], input[i]) */\n      jump\t// in\n    tag_33:\n        /* \"verifier.sol\":8683:8699  Pairing.addition */\n      tag_40\n        /* \"verifier.sol\":8683:8756  Pairing.addition(vk_x, Pairing.scalar_mul(vk.gamma_abc[i + 1], input[i])) */\n      jump\t// in\n    tag_32:\n        /* \"verifier.sol\":8676:8756  vk_x = Pairing.addition(vk_x, Pairing.scalar_mul(vk.gamma_abc[i + 1], input[i])) */\n      swap2\n      pop\n        /* \"verifier.sol\":8605:8608  i++ */\n      dup1\n      dup1\n      tag_41\n      swap1\n      tag_42\n      jump\t// in\n    tag_41:\n      swap2\n      pop\n      pop\n        /* \"verifier.sol\":8570:8767  for (uint i = 0; i < input.length; i++) {... */\n      jump(tag_25)\n    tag_26:\n      pop\n        /* \"verifier.sol\":8783:8822  Pairing.addition(vk_x, vk.gamma_abc[0]) */\n      tag_43\n        /* \"verifier.sol\":8800:8804  vk_x */\n      dup2\n        /* \"verifier.sol\":8806:8808  vk */\n      dup4\n        /* \"verifier.sol\":8806:8818  vk.gamma_abc */\n      0x80\n      add\n      mload\n        /* \"verifier.sol\":8819:8820  0 */\n      0x00\n        /* \"verifier.sol\":8806:8821  vk.gamma_abc[0] */\n      dup2\n      mload\n      dup2\n      lt\n      tag_44\n      jumpi\n      tag_45\n      tag_30\n      jump\t// in\n    tag_45:\n    tag_44:\n      0x20\n      mul\n      0x20\n      add\n      add\n      mload\n        /* \"verifier.sol\":8783:8799  Pairing.addition */\n      tag_40\n        /* \"verifier.sol\":8783:8822  Pairing.addition(vk_x, vk.gamma_abc[0]) */\n      jump\t// in\n    tag_43:\n        /* \"verifier.sol\":8776:8822  vk_x = Pairing.addition(vk_x, vk.gamma_abc[0]) */\n      swap1\n      pop\n        /* \"verifier.sol\":8836:9029  Pairing.pairingProd4(... */\n      tag_46\n        /* \"verifier.sol\":8871:8876  proof */\n      dup6\n        /* \"verifier.sol\":8871:8878  proof.a */\n      0x00\n      add\n      mload\n        /* \"verifier.sol\":8880:8885  proof */\n      dup7\n        /* \"verifier.sol\":8880:8887  proof.b */\n      0x20\n      add\n      mload\n        /* \"verifier.sol\":8902:8922  Pairing.negate(vk_x) */\n      tag_47\n        /* \"verifier.sol\":8917:8921  vk_x */\n      dup5\n        /* \"verifier.sol\":8902:8916  Pairing.negate */\n      tag_48\n        /* \"verifier.sol\":8902:8922  Pairing.negate(vk_x) */\n      jump\t// in\n    tag_47:\n        /* \"verifier.sol\":8924:8926  vk */\n      dup6\n        /* \"verifier.sol\":8924:8932  vk.gamma */\n      0x40\n      add\n      mload\n        /* \"verifier.sol\":8947:8970  Pairing.negate(proof.c) */\n      tag_49\n        /* \"verifier.sol\":8962:8967  proof */\n      dup11\n        /* \"verifier.sol\":8962:8969  proof.c */\n      0x40\n      add\n      mload\n        /* \"verifier.sol\":8947:8961  Pairing.negate */\n      tag_48\n        /* \"verifier.sol\":8947:8970  Pairing.negate(proof.c) */\n      jump\t// in\n    tag_49:\n        /* \"verifier.sol\":8972:8974  vk */\n      dup8\n        /* \"verifier.sol\":8972:8980  vk.delta */\n      0x60\n      add\n      mload\n        /* \"verifier.sol\":8995:9019  Pairing.negate(vk.alpha) */\n      tag_50\n        /* \"verifier.sol\":9010:9012  vk */\n      dup10\n        /* \"verifier.sol\":9010:9018  vk.alpha */\n      0x00\n      add\n      mload\n        /* \"verifier.sol\":8995:9009  Pairing.negate */\n      tag_48\n        /* \"verifier.sol\":8995:9019  Pairing.negate(vk.alpha) */\n      jump\t// in\n    tag_50:\n        /* \"verifier.sol\":9021:9023  vk */\n      dup10\n        /* \"verifier.sol\":9021:9028  vk.beta */\n      0x20\n      add\n      mload\n        /* \"verifier.sol\":8836:8856  Pairing.pairingProd4 */\n      tag_51\n        /* \"verifier.sol\":8836:9029  Pairing.pairingProd4(... */\n      jump\t// in\n    tag_46:\n        /* \"verifier.sol\":8832:9039  if(!Pairing.pairingProd4(... */\n      tag_52\n      jumpi\n        /* \"verifier.sol\":9038:9039  1 */\n      0x01\n        /* \"verifier.sol\":9031:9039  return 1 */\n      swap4\n      pop\n      pop\n      pop\n      pop\n      jump(tag_19)\n        /* \"verifier.sol\":8832:9039  if(!Pairing.pairingProd4(... */\n    tag_52:\n        /* \"verifier.sol\":9056:9057  0 */\n      0x00\n        /* \"verifier.sol\":9049:9057  return 0 */\n      swap4\n      pop\n      pop\n      pop\n      pop\n        /* \"verifier.sol\":8143:9064  function verify(uint[] memory input, Proof memory proof) internal view returns (uint) {... */\n    tag_19:\n      swap3\n      swap2\n      pop\n      pop\n      jump\t// out\n        /* \"verifier.sol\":6581:8138  function verifyingKey() pure internal returns (VerifyingKey memory vk) {... */\n    tag_21:\n        /* \"verifier.sol\":6628:6650  VerifyingKey memory vk */\n      tag_53\n      tag_54\n      jump\t// in\n    tag_53:\n        /* \"verifier.sol\":6673:6842  Pairing.G1Point(uint256(0x2a1b7fc1a1853a09c4d787cdab398b83c5d05ce684305bb8fe7a449b9a349e3b), uint256(0x00b7839eb6e6d2f862f417b06562735ea557f2c25f531e4e4c4cdda6aa5f79eb)) */\n      mload(0x40)\n      dup1\n      0x40\n      add\n      0x40\n      mstore\n      dup1\n        /* \"verifier.sol\":6697:6763  0x2a1b7fc1a1853a09c4d787cdab398b83c5d05ce684305bb8fe7a449b9a349e3b */\n      0x2a1b7fc1a1853a09c4d787cdab398b83c5d05ce684305bb8fe7a449b9a349e3b\n        /* \"verifier.sol\":6673:6842  Pairing.G1Point(uint256(0x2a1b7fc1a1853a09c4d787cdab398b83c5d05ce684305bb8fe7a449b9a349e3b), uint256(0x00b7839eb6e6d2f862f417b06562735ea557f2c25f531e4e4c4cdda6aa5f79eb)) */\n      dup2\n      mstore\n      0x20\n      add\n        /* \"verifier.sol\":6774:6840  0x00b7839eb6e6d2f862f417b06562735ea557f2c25f531e4e4c4cdda6aa5f79eb */\n      0xb7839eb6e6d2f862f417b06562735ea557f2c25f531e4e4c4cdda6aa5f79eb\n        /* \"verifier.sol\":6673:6842  Pairing.G1Point(uint256(0x2a1b7fc1a1853a09c4d787cdab398b83c5d05ce684305bb8fe7a449b9a349e3b), uint256(0x00b7839eb6e6d2f862f417b06562735ea557f2c25f531e4e4c4cdda6aa5f79eb)) */\n      dup2\n      mstore\n      pop\n        /* \"verifier.sol\":6662:6664  vk */\n      dup2\n        /* \"verifier.sol\":6662:6670  vk.alpha */\n      0x00\n      add\n        /* \"verifier.sol\":6662:6842  vk.alpha = Pairing.G1Point(uint256(0x2a1b7fc1a1853a09c4d787cdab398b83c5d05ce684305bb8fe7a449b9a349e3b), uint256(0x00b7839eb6e6d2f862f417b06562735ea557f2c25f531e4e4c4cdda6aa5f79eb)) */\n      dup2\n      swap1\n      mstore\n      pop\n        /* \"verifier.sol\":6862:7189  Pairing.G2Point([uint256(0x256cfa2e3464812aaf94ed074f9414de028aa09bc0a0492402582a8c096dbf4d), uint256(0x2c1efedc443a9a7318f4487418087b976e94d614773e33cc0195b37634d69260)], [uint256(0x2460bdd95774ef75a5c29dc2aa597e07eeb6b05d380890e8f6323352068878da), uint256(0x25db415ec06b79726e82026e47e5e69d5cc25e35962c26df921d61198b8548ca)]) */\n      mload(0x40)\n      dup1\n      0x40\n      add\n      0x40\n      mstore\n      dup1\n      mload(0x40)\n      dup1\n      0x40\n      add\n      0x40\n      mstore\n      dup1\n        /* \"verifier.sol\":6887:6953  0x256cfa2e3464812aaf94ed074f9414de028aa09bc0a0492402582a8c096dbf4d */\n      0x256cfa2e3464812aaf94ed074f9414de028aa09bc0a0492402582a8c096dbf4d\n        /* \"verifier.sol\":6862:7189  Pairing.G2Point([uint256(0x256cfa2e3464812aaf94ed074f9414de028aa09bc0a0492402582a8c096dbf4d), uint256(0x2c1efedc443a9a7318f4487418087b976e94d614773e33cc0195b37634d69260)], [uint256(0x2460bdd95774ef75a5c29dc2aa597e07eeb6b05d380890e8f6323352068878da), uint256(0x25db415ec06b79726e82026e47e5e69d5cc25e35962c26df921d61198b8548ca)]) */\n      dup2\n      mstore\n      0x20\n      add\n        /* \"verifier.sol\":6964:7030  0x2c1efedc443a9a7318f4487418087b976e94d614773e33cc0195b37634d69260 */\n      0x2c1efedc443a9a7318f4487418087b976e94d614773e33cc0195b37634d69260\n        /* \"verifier.sol\":6862:7189  Pairing.G2Point([uint256(0x256cfa2e3464812aaf94ed074f9414de028aa09bc0a0492402582a8c096dbf4d), uint256(0x2c1efedc443a9a7318f4487418087b976e94d614773e33cc0195b37634d69260)], [uint256(0x2460bdd95774ef75a5c29dc2aa597e07eeb6b05d380890e8f6323352068878da), uint256(0x25db415ec06b79726e82026e47e5e69d5cc25e35962c26df921d61198b8548ca)]) */\n      dup2\n      mstore\n      pop\n      dup2\n      mstore\n      0x20\n      add\n      mload(0x40)\n      dup1\n      0x40\n      add\n      0x40\n      mstore\n      dup1\n        /* \"verifier.sol\":7043:7109  0x2460bdd95774ef75a5c29dc2aa597e07eeb6b05d380890e8f6323352068878da */\n      0x2460bdd95774ef75a5c29dc2aa597e07eeb6b05d380890e8f6323352068878da\n        /* \"verifier.sol\":6862:7189  Pairing.G2Point([uint256(0x256cfa2e3464812aaf94ed074f9414de028aa09bc0a0492402582a8c096dbf4d), uint256(0x2c1efedc443a9a7318f4487418087b976e94d614773e33cc0195b37634d69260)], [uint256(0x2460bdd95774ef75a5c29dc2aa597e07eeb6b05d380890e8f6323352068878da), uint256(0x25db415ec06b79726e82026e47e5e69d5cc25e35962c26df921d61198b8548ca)]) */\n      dup2\n      mstore\n      0x20\n      add\n        /* \"verifier.sol\":7120:7186  0x25db415ec06b79726e82026e47e5e69d5cc25e35962c26df921d61198b8548ca */\n      0x25db415ec06b79726e82026e47e5e69d5cc25e35962c26df921d61198b8548ca\n        /* \"verifier.sol\":6862:7189  Pairing.G2Point([uint256(0x256cfa2e3464812aaf94ed074f9414de028aa09bc0a0492402582a8c096dbf4d), uint256(0x2c1efedc443a9a7318f4487418087b976e94d614773e33cc0195b37634d69260)], [uint256(0x2460bdd95774ef75a5c29dc2aa597e07eeb6b05d380890e8f6323352068878da), uint256(0x25db415ec06b79726e82026e47e5e69d5cc25e35962c26df921d61198b8548ca)]) */\n      dup2\n      mstore\n      pop\n      dup2\n      mstore\n      pop\n        /* \"verifier.sol\":6852:6854  vk */\n      dup2\n        /* \"verifier.sol\":6852:6859  vk.beta */\n      0x20\n      add\n        /* \"verifier.sol\":6852:7189  vk.beta = Pairing.G2Point([uint256(0x256cfa2e3464812aaf94ed074f9414de028aa09bc0a0492402582a8c096dbf4d), uint256(0x2c1efedc443a9a7318f4487418087b976e94d614773e33cc0195b37634d69260)], [uint256(0x2460bdd95774ef75a5c29dc2aa597e07eeb6b05d380890e8f6323352068878da), uint256(0x25db415ec06b79726e82026e47e5e69d5cc25e35962c26df921d61198b8548ca)]) */\n      dup2\n      swap1\n      mstore\n      pop\n        /* \"verifier.sol\":7210:7537  Pairing.G2Point([uint256(0x1bd51ac0caa201944b4a2504a2f1a59bd5ff6d77374000dcd04e4b030b25966f), uint256(0x11da977d0a94867660f065d944799f75a3f432e7d367947a037cb60d45d3c7de)], [uint256(0x269263673ac057c13cf752ff1cb289f695967bda851ebfa3eb591316019b1b44), uint256(0x2045babdc5cf7a57c90c756e7657485fd95d7477f2db8c0fcf22bbd737cd997c)]) */\n      mload(0x40)\n      dup1\n      0x40\n      add\n      0x40\n      mstore\n      dup1\n      mload(0x40)\n      dup1\n      0x40\n      add\n      0x40\n      mstore\n      dup1\n        /* \"verifier.sol\":7235:7301  0x1bd51ac0caa201944b4a2504a2f1a59bd5ff6d77374000dcd04e4b030b25966f */\n      0x1bd51ac0caa201944b4a2504a2f1a59bd5ff6d77374000dcd04e4b030b25966f\n        /* \"verifier.sol\":7210:7537  Pairing.G2Point([uint256(0x1bd51ac0caa201944b4a2504a2f1a59bd5ff6d77374000dcd04e4b030b25966f), uint256(0x11da977d0a94867660f065d944799f75a3f432e7d367947a037cb60d45d3c7de)], [uint256(0x269263673ac057c13cf752ff1cb289f695967bda851ebfa3eb591316019b1b44), uint256(0x2045babdc5cf7a57c90c756e7657485fd95d7477f2db8c0fcf22bbd737cd997c)]) */\n      dup2\n      mstore\n      0x20\n      add\n        /* \"verifier.sol\":7312:7378  0x11da977d0a94867660f065d944799f75a3f432e7d367947a037cb60d45d3c7de */\n      0x11da977d0a94867660f065d944799f75a3f432e7d367947a037cb60d45d3c7de\n        /* \"verifier.sol\":7210:7537  Pairing.G2Point([uint256(0x1bd51ac0caa201944b4a2504a2f1a59bd5ff6d77374000dcd04e4b030b25966f), uint256(0x11da977d0a94867660f065d944799f75a3f432e7d367947a037cb60d45d3c7de)], [uint256(0x269263673ac057c13cf752ff1cb289f695967bda851ebfa3eb591316019b1b44), uint256(0x2045babdc5cf7a57c90c756e7657485fd95d7477f2db8c0fcf22bbd737cd997c)]) */\n      dup2\n      mstore\n      pop\n      dup2\n      mstore\n      0x20\n      add\n      mload(0x40)\n      dup1\n      0x40\n      add\n      0x40\n      mstore\n      dup1\n        /* \"verifier.sol\":7391:7457  0x269263673ac057c13cf752ff1cb289f695967bda851ebfa3eb591316019b1b44 */\n      0x269263673ac057c13cf752ff1cb289f695967bda851ebfa3eb591316019b1b44\n        /* \"verifier.sol\":7210:7537  Pairing.G2Point([uint256(0x1bd51ac0caa201944b4a2504a2f1a59bd5ff6d77374000dcd04e4b030b25966f), uint256(0x11da977d0a94867660f065d944799f75a3f432e7d367947a037cb60d45d3c7de)], [uint256(0x269263673ac057c13cf752ff1cb289f695967bda851ebfa3eb591316019b1b44), uint256(0x2045babdc5cf7a57c90c756e7657485fd95d7477f2db8c0fcf22bbd737cd997c)]) */\n      dup2\n      mstore\n      0x20\n      add\n        /* \"verifier.sol\":7468:7534  0x2045babdc5cf7a57c90c756e7657485fd95d7477f2db8c0fcf22bbd737cd997c */\n      0x2045babdc5cf7a57c90c756e7657485fd95d7477f2db8c0fcf22bbd737cd997c\n        /* \"verifier.sol\":7210:7537  Pairing.G2Point([uint256(0x1bd51ac0caa201944b4a2504a2f1a59bd5ff6d77374000dcd04e4b030b25966f), uint256(0x11da977d0a94867660f065d944799f75a3f432e7d367947a037cb60d45d3c7de)], [uint256(0x269263673ac057c13cf752ff1cb289f695967bda851ebfa3eb591316019b1b44), uint256(0x2045babdc5cf7a57c90c756e7657485fd95d7477f2db8c0fcf22bbd737cd997c)]) */\n      dup2\n      mstore\n      pop\n      dup2\n      mstore\n      pop\n        /* \"verifier.sol\":7199:7201  vk */\n      dup2\n        /* \"verifier.sol\":7199:7207  vk.gamma */\n      0x40\n      add\n        /* \"verifier.sol\":7199:7537  vk.gamma = Pairing.G2Point([uint256(0x1bd51ac0caa201944b4a2504a2f1a59bd5ff6d77374000dcd04e4b030b25966f), uint256(0x11da977d0a94867660f065d944799f75a3f432e7d367947a037cb60d45d3c7de)], [uint256(0x269263673ac057c13cf752ff1cb289f695967bda851ebfa3eb591316019b1b44), uint256(0x2045babdc5cf7a57c90c756e7657485fd95d7477f2db8c0fcf22bbd737cd997c)]) */\n      dup2\n      swap1\n      mstore\n      pop\n        /* \"verifier.sol\":7558:7885  Pairing.G2Point([uint256(0x05c90c309a9962edab9463449d572bd8e5460c80791dc268e6c99ca9c3f73362), uint256(0x1c95180b012d9cdae4ca4f9c16a8db3573be0c704e792035029a055c3f269f13)], [uint256(0x10b288fa7b684c514fea06b17c09c8373767371e029aa51e8fbf3850f3729710), uint256(0x0bcf0edc70a839a26f0d734c7f26372b322a04035f5a7f8d8126d55fd2cd9977)]) */\n      mload(0x40)\n      dup1\n      0x40\n      add\n      0x40\n      mstore\n      dup1\n      mload(0x40)\n      dup1\n      0x40\n      add\n      0x40\n      mstore\n      dup1\n        /* \"verifier.sol\":7583:7649  0x05c90c309a9962edab9463449d572bd8e5460c80791dc268e6c99ca9c3f73362 */\n      0x05c90c309a9962edab9463449d572bd8e5460c80791dc268e6c99ca9c3f73362\n        /* \"verifier.sol\":7558:7885  Pairing.G2Point([uint256(0x05c90c309a9962edab9463449d572bd8e5460c80791dc268e6c99ca9c3f73362), uint256(0x1c95180b012d9cdae4ca4f9c16a8db3573be0c704e792035029a055c3f269f13)], [uint256(0x10b288fa7b684c514fea06b17c09c8373767371e029aa51e8fbf3850f3729710), uint256(0x0bcf0edc70a839a26f0d734c7f26372b322a04035f5a7f8d8126d55fd2cd9977)]) */\n      dup2\n      mstore\n      0x20\n      add\n        /* \"verifier.sol\":7660:7726  0x1c95180b012d9cdae4ca4f9c16a8db3573be0c704e792035029a055c3f269f13 */\n      0x1c95180b012d9cdae4ca4f9c16a8db3573be0c704e792035029a055c3f269f13\n        /* \"verifier.sol\":7558:7885  Pairing.G2Point([uint256(0x05c90c309a9962edab9463449d572bd8e5460c80791dc268e6c99ca9c3f73362), uint256(0x1c95180b012d9cdae4ca4f9c16a8db3573be0c704e792035029a055c3f269f13)], [uint256(0x10b288fa7b684c514fea06b17c09c8373767371e029aa51e8fbf3850f3729710), uint256(0x0bcf0edc70a839a26f0d734c7f26372b322a04035f5a7f8d8126d55fd2cd9977)]) */\n      dup2\n      mstore\n      pop\n      dup2\n      mstore\n      0x20\n      add\n      mload(0x40)\n      dup1\n      0x40\n      add\n      0x40\n      mstore\n      dup1\n        /* \"verifier.sol\":7739:7805  0x10b288fa7b684c514fea06b17c09c8373767371e029aa51e8fbf3850f3729710 */\n      0x10b288fa7b684c514fea06b17c09c8373767371e029aa51e8fbf3850f3729710\n        /* \"verifier.sol\":7558:7885  Pairing.G2Point([uint256(0x05c90c309a9962edab9463449d572bd8e5460c80791dc268e6c99ca9c3f73362), uint256(0x1c95180b012d9cdae4ca4f9c16a8db3573be0c704e792035029a055c3f269f13)], [uint256(0x10b288fa7b684c514fea06b17c09c8373767371e029aa51e8fbf3850f3729710), uint256(0x0bcf0edc70a839a26f0d734c7f26372b322a04035f5a7f8d8126d55fd2cd9977)]) */\n      dup2\n      mstore\n      0x20\n      add\n        /* \"verifier.sol\":7816:7882  0x0bcf0edc70a839a26f0d734c7f26372b322a04035f5a7f8d8126d55fd2cd9977 */\n      0x0bcf0edc70a839a26f0d734c7f26372b322a04035f5a7f8d8126d55fd2cd9977\n        /* \"verifier.sol\":7558:7885  Pairing.G2Point([uint256(0x05c90c309a9962edab9463449d572bd8e5460c80791dc268e6c99ca9c3f73362), uint256(0x1c95180b012d9cdae4ca4f9c16a8db3573be0c704e792035029a055c3f269f13)], [uint256(0x10b288fa7b684c514fea06b17c09c8373767371e029aa51e8fbf3850f3729710), uint256(0x0bcf0edc70a839a26f0d734c7f26372b322a04035f5a7f8d8126d55fd2cd9977)]) */\n      dup2\n      mstore\n      pop\n      dup2\n      mstore\n      pop\n        /* \"verifier.sol\":7547:7549  vk */\n      dup2\n        /* \"verifier.sol\":7547:7555  vk.delta */\n      0x60\n      add\n        /* \"verifier.sol\":7547:7885  vk.delta = Pairing.G2Point([uint256(0x05c90c309a9962edab9463449d572bd8e5460c80791dc268e6c99ca9c3f73362), uint256(0x1c95180b012d9cdae4ca4f9c16a8db3573be0c704e792035029a055c3f269f13)], [uint256(0x10b288fa7b684c514fea06b17c09c8373767371e029aa51e8fbf3850f3729710), uint256(0x0bcf0edc70a839a26f0d734c7f26372b322a04035f5a7f8d8126d55fd2cd9977)]) */\n      dup2\n      swap1\n      mstore\n      pop\n        /* \"verifier.sol\":7932:7933  1 */\n      0x01\n        /* \"verifier.sol\":7910:7934  new Pairing.G1Point[](1) */\n      0xffffffffffffffff\n      dup2\n      gt\n      iszero\n      tag_56\n      jumpi\n      tag_57\n      tag_13\n      jump\t// in\n    tag_57:\n    tag_56:\n      mload(0x40)\n      swap1\n      dup1\n      dup3\n      mstore\n      dup1\n      0x20\n      mul\n      0x20\n      add\n      dup3\n      add\n      0x40\n      mstore\n      dup1\n      iszero\n      tag_58\n      jumpi\n      dup2\n      0x20\n      add\n    tag_59:\n      tag_60\n      tag_61\n      jump\t// in\n    tag_60:\n      dup2\n      mstore\n      0x20\n      add\n      swap1\n      0x01\n      swap1\n      sub\n      swap1\n      dup2\n      tag_59\n      jumpi\n      swap1\n      pop\n    tag_58:\n      pop\n        /* \"verifier.sol\":7895:7897  vk */\n      dup2\n        /* \"verifier.sol\":7895:7907  vk.gamma_abc */\n      0x80\n      add\n        /* \"verifier.sol\":7895:7934  vk.gamma_abc = new Pairing.G1Point[](1) */\n      dup2\n      swap1\n      mstore\n      pop\n        /* \"verifier.sol\":7962:8131  Pairing.G1Point(uint256(0x2f4bcc16be3bc449ffcff599b330b9366b3e2cfbccfa4ed6d00a89f518448c58), uint256(0x0bc3d67b338309fdc3194dc07015a5772a77cd6393a36ba849d3ebf186a0d442)) */\n      mload(0x40)\n      dup1\n      0x40\n      add\n      0x40\n      mstore\n      dup1\n        /* \"verifier.sol\":7986:8052  0x2f4bcc16be3bc449ffcff599b330b9366b3e2cfbccfa4ed6d00a89f518448c58 */\n      0x2f4bcc16be3bc449ffcff599b330b9366b3e2cfbccfa4ed6d00a89f518448c58\n        /* \"verifier.sol\":7962:8131  Pairing.G1Point(uint256(0x2f4bcc16be3bc449ffcff599b330b9366b3e2cfbccfa4ed6d00a89f518448c58), uint256(0x0bc3d67b338309fdc3194dc07015a5772a77cd6393a36ba849d3ebf186a0d442)) */\n      dup2\n      mstore\n      0x20\n      add\n        /* \"verifier.sol\":8063:8129  0x0bc3d67b338309fdc3194dc07015a5772a77cd6393a36ba849d3ebf186a0d442 */\n      0x0bc3d67b338309fdc3194dc07015a5772a77cd6393a36ba849d3ebf186a0d442\n        /* \"verifier.sol\":7962:8131  Pairing.G1Point(uint256(0x2f4bcc16be3bc449ffcff599b330b9366b3e2cfbccfa4ed6d00a89f518448c58), uint256(0x0bc3d67b338309fdc3194dc07015a5772a77cd6393a36ba849d3ebf186a0d442)) */\n      dup2\n      mstore\n      pop\n        /* \"verifier.sol\":7944:7946  vk */\n      dup2\n        /* \"verifier.sol\":7944:7956  vk.gamma_abc */\n      0x80\n      add\n      mload\n        /* \"verifier.sol\":7957:7958  0 */\n      0x00\n        /* \"verifier.sol\":7944:7959  vk.gamma_abc[0] */\n      dup2\n      mload\n      dup2\n      lt\n      tag_62\n      jumpi\n      tag_63\n      tag_30\n      jump\t// in\n    tag_63:\n    tag_62:\n      0x20\n      mul\n      0x20\n      add\n      add\n        /* \"verifier.sol\":7944:8131  vk.gamma_abc[0] = Pairing.G1Point(uint256(0x2f4bcc16be3bc449ffcff599b330b9366b3e2cfbccfa4ed6d00a89f518448c58), uint256(0x0bc3d67b338309fdc3194dc07015a5772a77cd6393a36ba849d3ebf186a0d442)) */\n      dup2\n      swap1\n      mstore\n      pop\n        /* \"verifier.sol\":6581:8138  function verifyingKey() pure internal returns (VerifyingKey memory vk) {... */\n      swap1\n      jump\t// out\n        /* \"verifier.sol\":3082:3536  function scalar_mul(G1Point memory p, uint s) internal view returns (G1Point memory r) {... */\n    tag_39:\n        /* \"verifier.sol\":3151:3167  G1Point memory r */\n      tag_64\n      tag_61\n      jump\t// in\n    tag_64:\n        /* \"verifier.sol\":3179:3199  uint[3] memory input */\n      tag_66\n      tag_67\n      jump\t// in\n    tag_66:\n        /* \"verifier.sol\":3220:3221  p */\n      dup4\n        /* \"verifier.sol\":3220:3223  p.X */\n      0x00\n      add\n      mload\n        /* \"verifier.sol\":3209:3214  input */\n      dup2\n        /* \"verifier.sol\":3215:3216  0 */\n      0x00\n        /* \"verifier.sol\":3209:3217  input[0] */\n      0x03\n      dup2\n      lt\n      tag_68\n      jumpi\n      tag_69\n      tag_30\n      jump\t// in\n    tag_69:\n    tag_68:\n      0x20\n      mul\n      add\n        /* \"verifier.sol\":3209:3223  input[0] = p.X */\n      dup2\n      dup2\n      mstore\n      pop\n      pop\n        /* \"verifier.sol\":3244:3245  p */\n      dup4\n        /* \"verifier.sol\":3244:3247  p.Y */\n      0x20\n      add\n      mload\n        /* \"verifier.sol\":3233:3238  input */\n      dup2\n        /* \"verifier.sol\":3239:3240  1 */\n      0x01\n        /* \"verifier.sol\":3233:3241  input[1] */\n      0x03\n      dup2\n      lt\n      tag_70\n      jumpi\n      tag_71\n      tag_30\n      jump\t// in\n    tag_71:\n    tag_70:\n      0x20\n      mul\n      add\n        /* \"verifier.sol\":3233:3247  input[1] = p.Y */\n      dup2\n      dup2\n      mstore\n      pop\n      pop\n        /* \"verifier.sol\":3268:3269  s */\n      dup3\n        /* \"verifier.sol\":3257:3262  input */\n      dup2\n        /* \"verifier.sol\":3263:3264  2 */\n      0x02\n        /* \"verifier.sol\":3257:3265  input[2] */\n      0x03\n      dup2\n      lt\n      tag_72\n      jumpi\n      tag_73\n      tag_30\n      jump\t// in\n    tag_73:\n    tag_72:\n      0x20\n      mul\n      add\n        /* \"verifier.sol\":3257:3269  input[2] = s */\n      dup2\n      dup2\n      mstore\n      pop\n      pop\n        /* \"verifier.sol\":3279:3291  bool success */\n      0x00\n        /* \"verifier.sol\":3383:3387  0x60 */\n      0x60\n        /* \"verifier.sol\":3380:3381  r */\n      dup4\n        /* \"verifier.sol\":3374:3378  0x80 */\n      0x80\n        /* \"verifier.sol\":3367:3372  input */\n      dup5\n        /* \"verifier.sol\":3364:3365  7 */\n      0x07\n        /* \"verifier.sol\":3357:3361  2000 */\n      0x07d0\n        /* \"verifier.sol\":3350:3355  gas() */\n      gas\n        /* \"verifier.sol\":3346:3362  sub(gas(), 2000) */\n      sub\n        /* \"verifier.sol\":3335:3388  staticcall(sub(gas(), 2000), 7, input, 0x80, r, 0x60) */\n      staticcall\n        /* \"verifier.sol\":3324:3388  success := staticcall(sub(gas(), 2000), 7, input, 0x80, r, 0x60) */\n      swap1\n      pop\n        /* \"verifier.sol\":3465:3472  success */\n      dup1\n        /* \"verifier.sol\":3478:3479  0 */\n      0x00\n        /* \"verifier.sol\":3473:3493  case 0 { invalid() } */\n      dup2\n      sub\n        /* \"verifier.sol\":3458:3493  switch success case 0 { invalid() } */\n      tag_74\n        /* \"verifier.sol\":3473:3493  case 0 { invalid() } */\n      jumpi\n        /* \"verifier.sol\":3482:3491  invalid() */\n      invalid\n        /* \"verifier.sol\":3458:3493  switch success case 0 { invalid() } */\n    tag_74:\n      pop\n        /* \"verifier.sol\":3521:3528  success */\n      dup1\n        /* \"verifier.sol\":3512:3529  require (success) */\n      tag_76\n      jumpi\n      0x00\n      dup1\n      revert\n    tag_76:\n        /* \"verifier.sol\":3169:3536  {... */\n      pop\n      pop\n        /* \"verifier.sol\":3082:3536  function scalar_mul(G1Point memory p, uint s) internal view returns (G1Point memory r) {... */\n      swap3\n      swap2\n      pop\n      pop\n      jump\t// out\n        /* \"verifier.sol\":2432:2925  function addition(G1Point memory p1, G1Point memory p2) internal view returns (G1Point memory r) {... */\n    tag_40:\n        /* \"verifier.sol\":2511:2527  G1Point memory r */\n      tag_77\n      tag_61\n      jump\t// in\n    tag_77:\n        /* \"verifier.sol\":2539:2559  uint[4] memory input */\n      tag_79\n      tag_80\n      jump\t// in\n    tag_79:\n        /* \"verifier.sol\":2580:2582  p1 */\n      dup4\n        /* \"verifier.sol\":2580:2584  p1.X */\n      0x00\n      add\n      mload\n        /* \"verifier.sol\":2569:2574  input */\n      dup2\n        /* \"verifier.sol\":2575:2576  0 */\n      0x00\n        /* \"verifier.sol\":2569:2577  input[0] */\n      0x04\n      dup2\n      lt\n      tag_81\n      jumpi\n      tag_82\n      tag_30\n      jump\t// in\n    tag_82:\n    tag_81:\n      0x20\n      mul\n      add\n        /* \"verifier.sol\":2569:2584  input[0] = p1.X */\n      dup2\n      dup2\n      mstore\n      pop\n      pop\n        /* \"verifier.sol\":2605:2607  p1 */\n      dup4\n        /* \"verifier.sol\":2605:2609  p1.Y */\n      0x20\n      add\n      mload\n        /* \"verifier.sol\":2594:2599  input */\n      dup2\n        /* \"verifier.sol\":2600:2601  1 */\n      0x01\n        /* \"verifier.sol\":2594:2602  input[1] */\n      0x04\n      dup2\n      lt\n      tag_83\n      jumpi\n      tag_84\n      tag_30\n      jump\t// in\n    tag_84:\n    tag_83:\n      0x20\n      mul\n      add\n        /* \"verifier.sol\":2594:2609  input[1] = p1.Y */\n      dup2\n      dup2\n      mstore\n      pop\n      pop\n        /* \"verifier.sol\":2630:2632  p2 */\n      dup3\n        /* \"verifier.sol\":2630:2634  p2.X */\n      0x00\n      add\n      mload\n        /* \"verifier.sol\":2619:2624  input */\n      dup2\n        /* \"verifier.sol\":2625:2626  2 */\n      0x02\n        /* \"verifier.sol\":2619:2627  input[2] */\n      0x04\n      dup2\n      lt\n      tag_85\n      jumpi\n      tag_86\n      tag_30\n      jump\t// in\n    tag_86:\n    tag_85:\n      0x20\n      mul\n      add\n        /* \"verifier.sol\":2619:2634  input[2] = p2.X */\n      dup2\n      dup2\n      mstore\n      pop\n      pop\n        /* \"verifier.sol\":2655:2657  p2 */\n      dup3\n        /* \"verifier.sol\":2655:2659  p2.Y */\n      0x20\n      add\n      mload\n        /* \"verifier.sol\":2644:2649  input */\n      dup2\n        /* \"verifier.sol\":2650:2651  3 */\n      0x03\n        /* \"verifier.sol\":2644:2652  input[3] */\n      0x04\n      dup2\n      lt\n      tag_87\n      jumpi\n      tag_88\n      tag_30\n      jump\t// in\n    tag_88:\n    tag_87:\n      0x20\n      mul\n      add\n        /* \"verifier.sol\":2644:2659  input[3] = p2.Y */\n      dup2\n      dup2\n      mstore\n      pop\n      pop\n        /* \"verifier.sol\":2669:2681  bool success */\n      0x00\n        /* \"verifier.sol\":2773:2777  0x60 */\n      0x60\n        /* \"verifier.sol\":2770:2771  r */\n      dup4\n        /* \"verifier.sol\":2764:2768  0xc0 */\n      0xc0\n        /* \"verifier.sol\":2757:2762  input */\n      dup5\n        /* \"verifier.sol\":2754:2755  6 */\n      0x06\n        /* \"verifier.sol\":2747:2751  2000 */\n      0x07d0\n        /* \"verifier.sol\":2740:2745  gas() */\n      gas\n        /* \"verifier.sol\":2736:2752  sub(gas(), 2000) */\n      sub\n        /* \"verifier.sol\":2725:2778  staticcall(sub(gas(), 2000), 6, input, 0xc0, r, 0x60) */\n      staticcall\n        /* \"verifier.sol\":2714:2778  success := staticcall(sub(gas(), 2000), 6, input, 0xc0, r, 0x60) */\n      swap1\n      pop\n        /* \"verifier.sol\":2855:2862  success */\n      dup1\n        /* \"verifier.sol\":2868:2869  0 */\n      0x00\n        /* \"verifier.sol\":2863:2883  case 0 { invalid() } */\n      dup2\n      sub\n        /* \"verifier.sol\":2848:2883  switch success case 0 { invalid() } */\n      tag_89\n        /* \"verifier.sol\":2863:2883  case 0 { invalid() } */\n      jumpi\n        /* \"verifier.sol\":2872:2881  invalid() */\n      invalid\n        /* \"verifier.sol\":2848:2883  switch success case 0 { invalid() } */\n    tag_89:\n      pop\n        /* \"verifier.sol\":2910:2917  success */\n      dup1\n        /* \"verifier.sol\":2902:2918  require(success) */\n      tag_91\n      jumpi\n      0x00\n      dup1\n      revert\n    tag_91:\n        /* \"verifier.sol\":2529:2925  {... */\n      pop\n      pop\n        /* \"verifier.sol\":2432:2925  function addition(G1Point memory p1, G1Point memory p2) internal view returns (G1Point memory r) {... */\n      swap3\n      swap2\n      pop\n      pop\n      jump\t// out\n        /* \"verifier.sol\":2041:2381  function negate(G1Point memory p) pure internal returns (G1Point memory) {... */\n    tag_48:\n        /* \"verifier.sol\":2098:2112  G1Point memory */\n      tag_92\n      tag_61\n      jump\t// in\n    tag_92:\n        /* \"verifier.sol\":2176:2182  uint q */\n      0x00\n        /* \"verifier.sol\":2185:2262  21888242871839275222246405745257275088696311157297823662689037894645226208583 */\n      0x30644e72e131a029b85045b68181585d97816a916871ca8d3c208c16d87cfd47\n        /* \"verifier.sol\":2176:2262  uint q = 21888242871839275222246405745257275088696311157297823662689037894645226208583 */\n      swap1\n      pop\n        /* \"verifier.sol\":2283:2284  0 */\n      0x00\n        /* \"verifier.sol\":2276:2277  p */\n      dup4\n        /* \"verifier.sol\":2276:2279  p.X */\n      0x00\n      add\n      mload\n        /* \"verifier.sol\":2276:2284  p.X == 0 */\n      eq\n        /* \"verifier.sol\":2276:2296  p.X == 0 && p.Y == 0 */\n      dup1\n      iszero\n      tag_94\n      jumpi\n      pop\n        /* \"verifier.sol\":2295:2296  0 */\n      0x00\n        /* \"verifier.sol\":2288:2289  p */\n      dup4\n        /* \"verifier.sol\":2288:2291  p.Y */\n      0x20\n      add\n      mload\n        /* \"verifier.sol\":2288:2296  p.Y == 0 */\n      eq\n        /* \"verifier.sol\":2276:2296  p.X == 0 && p.Y == 0 */\n    tag_94:\n        /* \"verifier.sol\":2272:2330  if (p.X == 0 && p.Y == 0)... */\n      iszero\n      tag_95\n      jumpi\n        /* \"verifier.sol\":2317:2330  G1Point(0, 0) */\n      mload(0x40)\n      dup1\n      0x40\n      add\n      0x40\n      mstore\n      dup1\n        /* \"verifier.sol\":2325:2326  0 */\n      0x00\n        /* \"verifier.sol\":2317:2330  G1Point(0, 0) */\n      dup2\n      mstore\n      0x20\n      add\n        /* \"verifier.sol\":2328:2329  0 */\n      0x00\n        /* \"verifier.sol\":2317:2330  G1Point(0, 0) */\n      dup2\n      mstore\n      pop\n        /* \"verifier.sol\":2310:2330  return G1Point(0, 0) */\n      swap2\n      pop\n      pop\n      jump(tag_93)\n        /* \"verifier.sol\":2272:2330  if (p.X == 0 && p.Y == 0)... */\n    tag_95:\n        /* \"verifier.sol\":2347:2374  G1Point(p.X, q - (p.Y % q)) */\n      mload(0x40)\n      dup1\n      0x40\n      add\n      0x40\n      mstore\n      dup1\n        /* \"verifier.sol\":2355:2356  p */\n      dup5\n        /* \"verifier.sol\":2355:2358  p.X */\n      0x00\n      add\n      mload\n        /* \"verifier.sol\":2347:2374  G1Point(p.X, q - (p.Y % q)) */\n      dup2\n      mstore\n      0x20\n      add\n        /* \"verifier.sol\":2371:2372  q */\n      dup3\n        /* \"verifier.sol\":2365:2366  p */\n      dup6\n        /* \"verifier.sol\":2365:2368  p.Y */\n      0x20\n      add\n      mload\n        /* \"verifier.sol\":2365:2372  p.Y % q */\n      tag_96\n      swap2\n      swap1\n      tag_97\n      jump\t// in\n    tag_96:\n        /* \"verifier.sol\":2360:2361  q */\n      dup4\n        /* \"verifier.sol\":2360:2373  q - (p.Y % q) */\n      tag_98\n      swap2\n      swap1\n      tag_99\n      jump\t// in\n    tag_98:\n        /* \"verifier.sol\":2347:2374  G1Point(p.X, q - (p.Y % q)) */\n      dup2\n      mstore\n      pop\n        /* \"verifier.sol\":2340:2374  return G1Point(p.X, q - (p.Y % q)) */\n      swap2\n      pop\n      pop\n        /* \"verifier.sol\":2041:2381  function negate(G1Point memory p) pure internal returns (G1Point memory) {... */\n    tag_93:\n      swap2\n      swap1\n      pop\n      jump\t// out\n        /* \"verifier.sol\":5678:6230  function pairingProd4(... */\n    tag_51:\n        /* \"verifier.sol\":5929:5933  bool */\n      0x00\n        /* \"verifier.sol\":5945:5964  G1Point[] memory p1 */\n      dup1\n        /* \"verifier.sol\":5981:5982  4 */\n      0x04\n        /* \"verifier.sol\":5967:5983  new G1Point[](4) */\n      0xffffffffffffffff\n      dup2\n      gt\n      iszero\n      tag_101\n      jumpi\n      tag_102\n      tag_13\n      jump\t// in\n    tag_102:\n    tag_101:\n      mload(0x40)\n      swap1\n      dup1\n      dup3\n      mstore\n      dup1\n      0x20\n      mul\n      0x20\n      add\n      dup3\n      add\n      0x40\n      mstore\n      dup1\n      iszero\n      tag_103\n      jumpi\n      dup2\n      0x20\n      add\n    tag_104:\n      tag_105\n      tag_61\n      jump\t// in\n    tag_105:\n      dup2\n      mstore\n      0x20\n      add\n      swap1\n      0x01\n      swap1\n      sub\n      swap1\n      dup2\n      tag_104\n      jumpi\n      swap1\n      pop\n    tag_103:\n      pop\n        /* \"verifier.sol\":5945:5983  G1Point[] memory p1 = new G1Point[](4) */\n      swap1\n      pop\n        /* \"verifier.sol\":5993:6012  G2Point[] memory p2 */\n      0x00\n        /* \"verifier.sol\":6029:6030  4 */\n      0x04\n        /* \"verifier.sol\":6015:6031  new G2Point[](4) */\n      0xffffffffffffffff\n      dup2\n      gt\n      iszero\n      tag_106\n      jumpi\n      tag_107\n      tag_13\n      jump\t// in\n    tag_107:\n    tag_106:\n      mload(0x40)\n      swap1\n      dup1\n      dup3\n      mstore\n      dup1\n      0x20\n      mul\n      0x20\n      add\n      dup3\n      add\n      0x40\n      mstore\n      dup1\n      iszero\n      tag_108\n      jumpi\n      dup2\n      0x20\n      add\n    tag_109:\n      tag_110\n      tag_111\n      jump\t// in\n    tag_110:\n      dup2\n      mstore\n      0x20\n      add\n      swap1\n      0x01\n      swap1\n      sub\n      swap1\n      dup2\n      tag_109\n      jumpi\n      swap1\n      pop\n    tag_108:\n      pop\n        /* \"verifier.sol\":5993:6031  G2Point[] memory p2 = new G2Point[](4) */\n      swap1\n      pop\n        /* \"verifier.sol\":6049:6051  a1 */\n      dup11\n        /* \"verifier.sol\":6041:6043  p1 */\n      dup3\n        /* \"verifier.sol\":6044:6045  0 */\n      0x00\n        /* \"verifier.sol\":6041:6046  p1[0] */\n      dup2\n      mload\n      dup2\n      lt\n      tag_112\n      jumpi\n      tag_113\n      tag_30\n      jump\t// in\n    tag_113:\n    tag_112:\n      0x20\n      mul\n      0x20\n      add\n      add\n        /* \"verifier.sol\":6041:6051  p1[0] = a1 */\n      dup2\n      swap1\n      mstore\n      pop\n        /* \"verifier.sol\":6069:6071  b1 */\n      dup9\n        /* \"verifier.sol\":6061:6063  p1 */\n      dup3\n        /* \"verifier.sol\":6064:6065  1 */\n      0x01\n        /* \"verifier.sol\":6061:6066  p1[1] */\n      dup2\n      mload\n      dup2\n      lt\n      tag_114\n      jumpi\n      tag_115\n      tag_30\n      jump\t// in\n    tag_115:\n    tag_114:\n      0x20\n      mul\n      0x20\n      add\n      add\n        /* \"verifier.sol\":6061:6071  p1[1] = b1 */\n      dup2\n      swap1\n      mstore\n      pop\n        /* \"verifier.sol\":6089:6091  c1 */\n      dup7\n        /* \"verifier.sol\":6081:6083  p1 */\n      dup3\n        /* \"verifier.sol\":6084:6085  2 */\n      0x02\n        /* \"verifier.sol\":6081:6086  p1[2] */\n      dup2\n      mload\n      dup2\n      lt\n      tag_116\n      jumpi\n      tag_117\n      tag_30\n      jump\t// in\n    tag_117:\n    tag_116:\n      0x20\n      mul\n      0x20\n      add\n      add\n        /* \"verifier.sol\":6081:6091  p1[2] = c1 */\n      dup2\n      swap1\n      mstore\n      pop\n        /* \"verifier.sol\":6109:6111  d1 */\n      dup5\n        /* \"verifier.sol\":6101:6103  p1 */\n      dup3\n        /* \"verifier.sol\":6104:6105  3 */\n      0x03\n        /* \"verifier.sol\":6101:6106  p1[3] */\n      dup2\n      mload\n      dup2\n      lt\n      tag_118\n      jumpi\n      tag_119\n      tag_30\n      jump\t// in\n    tag_119:\n    tag_118:\n      0x20\n      mul\n      0x20\n      add\n      add\n        /* \"verifier.sol\":6101:6111  p1[3] = d1 */\n      dup2\n      swap1\n      mstore\n      pop\n        /* \"verifier.sol\":6129:6131  a2 */\n      dup10\n        /* \"verifier.sol\":6121:6123  p2 */\n      dup2\n        /* \"verifier.sol\":6124:6125  0 */\n      0x00\n        /* \"verifier.sol\":6121:6126  p2[0] */\n      dup2\n      mload\n      dup2\n      lt\n      tag_120\n      jumpi\n      tag_121\n      tag_30\n      jump\t// in\n    tag_121:\n    tag_120:\n      0x20\n      mul\n      0x20\n      add\n      add\n        /* \"verifier.sol\":6121:6131  p2[0] = a2 */\n      dup2\n      swap1\n      mstore\n      pop\n        /* \"verifier.sol\":6149:6151  b2 */\n      dup8\n        /* \"verifier.sol\":6141:6143  p2 */\n      dup2\n        /* \"verifier.sol\":6144:6145  1 */\n      0x01\n        /* \"verifier.sol\":6141:6146  p2[1] */\n      dup2\n      mload\n      dup2\n      lt\n      tag_122\n      jumpi\n      tag_123\n      tag_30\n      jump\t// in\n    tag_123:\n    tag_122:\n      0x20\n      mul\n      0x20\n      add\n      add\n        /* \"verifier.sol\":6141:6151  p2[1] = b2 */\n      dup2\n      swap1\n      mstore\n      pop\n        /* \"verifier.sol\":6169:6171  c2 */\n      dup6\n        /* \"verifier.sol\":6161:6163  p2 */\n      dup2\n        /* \"verifier.sol\":6164:6165  2 */\n      0x02\n        /* \"verifier.sol\":6161:6166  p2[2] */\n      dup2\n      mload\n      dup2\n      lt\n      tag_124\n      jumpi\n      tag_125\n      tag_30\n      jump\t// in\n    tag_125:\n    tag_124:\n      0x20\n      mul\n      0x20\n      add\n      add\n        /* \"verifier.sol\":6161:6171  p2[2] = c2 */\n      dup2\n      swap1\n      mstore\n      pop\n        /* \"verifier.sol\":6189:6191  d2 */\n      dup4\n        /* \"verifier.sol\":6181:6183  p2 */\n      dup2\n        /* \"verifier.sol\":6184:6185  3 */\n      0x03\n        /* \"verifier.sol\":6181:6186  p2[3] */\n      dup2\n      mload\n      dup2\n      lt\n      tag_126\n      jumpi\n      tag_127\n      tag_30\n      jump\t// in\n    tag_127:\n    tag_126:\n      0x20\n      mul\n      0x20\n      add\n      add\n        /* \"verifier.sol\":6181:6191  p2[3] = d2 */\n      dup2\n      swap1\n      mstore\n      pop\n        /* \"verifier.sol\":6208:6223  pairing(p1, p2) */\n      tag_128\n        /* \"verifier.sol\":6216:6218  p1 */\n      dup3\n        /* \"verifier.sol\":6220:6222  p2 */\n      dup3\n        /* \"verifier.sol\":6208:6215  pairing */\n      tag_129\n        /* \"verifier.sol\":6208:6223  pairing(p1, p2) */\n      jump\t// in\n    tag_128:\n        /* \"verifier.sol\":6201:6223  return pairing(p1, p2) */\n      swap3\n      pop\n      pop\n      pop\n        /* \"verifier.sol\":5678:6230  function pairingProd4(... */\n      swap9\n      swap8\n      pop\n      pop\n      pop\n      pop\n      pop\n      pop\n      pop\n      pop\n      jump\t// out\n        /* \"verifier.sol\":3747:4670  function pairing(G1Point[] memory p1, G2Point[] memory p2) internal view returns (bool) {... */\n    tag_129:\n        /* \"verifier.sol\":3829:3833  bool */\n      0x00\n        /* \"verifier.sol\":3866:3868  p2 */\n      dup2\n        /* \"verifier.sol\":3866:3875  p2.length */\n      mload\n        /* \"verifier.sol\":3853:3855  p1 */\n      dup4\n        /* \"verifier.sol\":3853:3862  p1.length */\n      mload\n        /* \"verifier.sol\":3853:3875  p1.length == p2.length */\n      eq\n        /* \"verifier.sol\":3845:3876  require(p1.length == p2.length) */\n      tag_131\n      jumpi\n      0x00\n      dup1\n      revert\n    tag_131:\n        /* \"verifier.sol\":3886:3899  uint elements */\n      0x00\n        /* \"verifier.sol\":3902:3904  p1 */\n      dup4\n        /* \"verifier.sol\":3902:3911  p1.length */\n      mload\n        /* \"verifier.sol\":3886:3911  uint elements = p1.length */\n      swap1\n      pop\n        /* \"verifier.sol\":3921:3935  uint inputSize */\n      0x00\n        /* \"verifier.sol\":3949:3950  6 */\n      0x06\n        /* \"verifier.sol\":3938:3946  elements */\n      dup3\n        /* \"verifier.sol\":3938:3950  elements * 6 */\n      tag_132\n      swap2\n      swap1\n      tag_133\n      jump\t// in\n    tag_132:\n        /* \"verifier.sol\":3921:3950  uint inputSize = elements * 6 */\n      swap1\n      pop\n        /* \"verifier.sol\":3960:3979  uint[] memory input */\n      0x00\n        /* \"verifier.sol\":3993:4002  inputSize */\n      dup2\n        /* \"verifier.sol\":3982:4003  new uint[](inputSize) */\n      0xffffffffffffffff\n      dup2\n      gt\n      iszero\n      tag_134\n      jumpi\n      tag_135\n      tag_13\n      jump\t// in\n    tag_135:\n    tag_134:\n      mload(0x40)\n      swap1\n      dup1\n      dup3\n      mstore\n      dup1\n      0x20\n      mul\n      0x20\n      add\n      dup3\n      add\n      0x40\n      mstore\n      dup1\n      iszero\n      tag_136\n      jumpi\n      dup2\n      0x20\n      add\n      0x20\n      dup3\n      mul\n      dup1\n      calldatasize\n      dup4\n      calldatacopy\n      dup1\n      dup3\n      add\n      swap2\n      pop\n      pop\n      swap1\n      pop\n    tag_136:\n      pop\n        /* \"verifier.sol\":3960:4003  uint[] memory input = new uint[](inputSize) */\n      swap1\n      pop\n        /* \"verifier.sol\":4018:4024  uint i */\n      0x00\n        /* \"verifier.sol\":4013:4320  for (uint i = 0; i < elements; i++)... */\n    tag_137:\n        /* \"verifier.sol\":4034:4042  elements */\n      dup4\n        /* \"verifier.sol\":4030:4031  i */\n      dup2\n        /* \"verifier.sol\":4030:4042  i < elements */\n      lt\n        /* \"verifier.sol\":4013:4320  for (uint i = 0; i < elements; i++)... */\n      iszero\n      tag_138\n      jumpi\n        /* \"verifier.sol\":4090:4092  p1 */\n      dup7\n        /* \"verifier.sol\":4093:4094  i */\n      dup2\n        /* \"verifier.sol\":4090:4095  p1[i] */\n      dup2\n      mload\n      dup2\n      lt\n      tag_140\n      jumpi\n      tag_141\n      tag_30\n      jump\t// in\n    tag_141:\n    tag_140:\n      0x20\n      mul\n      0x20\n      add\n      add\n      mload\n        /* \"verifier.sol\":4090:4097  p1[i].X */\n      0x00\n      add\n      mload\n        /* \"verifier.sol\":4071:4076  input */\n      dup3\n        /* \"verifier.sol\":4085:4086  0 */\n      0x00\n        /* \"verifier.sol\":4081:4082  6 */\n      0x06\n        /* \"verifier.sol\":4077:4078  i */\n      dup5\n        /* \"verifier.sol\":4077:4082  i * 6 */\n      tag_142\n      swap2\n      swap1\n      tag_133\n      jump\t// in\n    tag_142:\n        /* \"verifier.sol\":4077:4086  i * 6 + 0 */\n      tag_143\n      swap2\n      swap1\n      tag_23\n      jump\t// in\n    tag_143:\n        /* \"verifier.sol\":4071:4087  input[i * 6 + 0] */\n      dup2\n      mload\n      dup2\n      lt\n      tag_144\n      jumpi\n      tag_145\n      tag_30\n      jump\t// in\n    tag_145:\n    tag_144:\n      0x20\n      mul\n      0x20\n      add\n      add\n        /* \"verifier.sol\":4071:4097  input[i * 6 + 0] = p1[i].X */\n      dup2\n      dup2\n      mstore\n      pop\n      pop\n        /* \"verifier.sol\":4130:4132  p1 */\n      dup7\n        /* \"verifier.sol\":4133:4134  i */\n      dup2\n        /* \"verifier.sol\":4130:4135  p1[i] */\n      dup2\n      mload\n      dup2\n      lt\n      tag_146\n      jumpi\n      tag_147\n      tag_30\n      jump\t// in\n    tag_147:\n    tag_146:\n      0x20\n      mul\n      0x20\n      add\n      add\n      mload\n        /* \"verifier.sol\":4130:4137  p1[i].Y */\n      0x20\n      add\n      mload\n        /* \"verifier.sol\":4111:4116  input */\n      dup3\n        /* \"verifier.sol\":4125:4126  1 */\n      0x01\n        /* \"verifier.sol\":4121:4122  6 */\n      0x06\n        /* \"verifier.sol\":4117:4118  i */\n      dup5\n        /* \"verifier.sol\":4117:4122  i * 6 */\n      tag_148\n      swap2\n      swap1\n      tag_133\n      jump\t// in\n    tag_148:\n        /* \"verifier.sol\":4117:4126  i * 6 + 1 */\n      tag_149\n      swap2\n      swap1\n      tag_23\n      jump\t// in\n    tag_149:\n        /* \"verifier.sol\":4111:4127  input[i * 6 + 1] */\n      dup2\n      mload\n      dup2\n      lt\n      tag_150\n      jumpi\n      tag_151\n      tag_30\n      jump\t// in\n    tag_151:\n    tag_150:\n      0x20\n      mul\n      0x20\n      add\n      add\n        /* \"verifier.sol\":4111:4137  input[i * 6 + 1] = p1[i].Y */\n      dup2\n      dup2\n      mstore\n      pop\n      pop\n        /* \"verifier.sol\":4170:4172  p2 */\n      dup6\n        /* \"verifier.sol\":4173:4174  i */\n      dup2\n        /* \"verifier.sol\":4170:4175  p2[i] */\n      dup2\n      mload\n      dup2\n      lt\n      tag_152\n      jumpi\n      tag_153\n      tag_30\n      jump\t// in\n    tag_153:\n    tag_152:\n      0x20\n      mul\n      0x20\n      add\n      add\n      mload\n        /* \"verifier.sol\":4170:4177  p2[i].X */\n      0x00\n      add\n      mload\n        /* \"verifier.sol\":4178:4179  1 */\n      0x01\n        /* \"verifier.sol\":4170:4180  p2[i].X[1] */\n      0x02\n      dup2\n      lt\n      tag_154\n      jumpi\n      tag_155\n      tag_30\n      jump\t// in\n    tag_155:\n    tag_154:\n      0x20\n      mul\n      add\n      mload\n        /* \"verifier.sol\":4151:4156  input */\n      dup3\n        /* \"verifier.sol\":4165:4166  2 */\n      0x02\n        /* \"verifier.sol\":4161:4162  6 */\n      0x06\n        /* \"verifier.sol\":4157:4158  i */\n      dup5\n        /* \"verifier.sol\":4157:4162  i * 6 */\n      tag_156\n      swap2\n      swap1\n      tag_133\n      jump\t// in\n    tag_156:\n        /* \"verifier.sol\":4157:4166  i * 6 + 2 */\n      tag_157\n      swap2\n      swap1\n      tag_23\n      jump\t// in\n    tag_157:\n        /* \"verifier.sol\":4151:4167  input[i * 6 + 2] */\n      dup2\n      mload\n      dup2\n      lt\n      tag_158\n      jumpi\n      tag_159\n      tag_30\n      jump\t// in\n    tag_159:\n    tag_158:\n      0x20\n      mul\n      0x20\n      add\n      add\n        /* \"verifier.sol\":4151:4180  input[i * 6 + 2] = p2[i].X[1] */\n      dup2\n      dup2\n      mstore\n      pop\n      pop\n        /* \"verifier.sol\":4213:4215  p2 */\n      dup6\n        /* \"verifier.sol\":4216:4217  i */\n      dup2\n        /* \"verifier.sol\":4213:4218  p2[i] */\n      dup2\n      mload\n      dup2\n      lt\n      tag_160\n      jumpi\n      tag_161\n      tag_30\n      jump\t// in\n    tag_161:\n    tag_160:\n      0x20\n      mul\n      0x20\n      add\n      add\n      mload\n        /* \"verifier.sol\":4213:4220  p2[i].X */\n      0x00\n      add\n      mload\n        /* \"verifier.sol\":4221:4222  0 */\n      0x00\n        /* \"verifier.sol\":4213:4223  p2[i].X[0] */\n      0x02\n      dup2\n      lt\n      tag_162\n      jumpi\n      tag_163\n      tag_30\n      jump\t// in\n    tag_163:\n    tag_162:\n      0x20\n      mul\n      add\n      mload\n        /* \"verifier.sol\":4194:4199  input */\n      dup3\n        /* \"verifier.sol\":4208:4209  3 */\n      0x03\n        /* \"verifier.sol\":4204:4205  6 */\n      0x06\n        /* \"verifier.sol\":4200:4201  i */\n      dup5\n        /* \"verifier.sol\":4200:4205  i * 6 */\n      tag_164\n      swap2\n      swap1\n      tag_133\n      jump\t// in\n    tag_164:\n        /* \"verifier.sol\":4200:4209  i * 6 + 3 */\n      tag_165\n      swap2\n      swap1\n      tag_23\n      jump\t// in\n    tag_165:\n        /* \"verifier.sol\":4194:4210  input[i * 6 + 3] */\n      dup2\n      mload\n      dup2\n      lt\n      tag_166\n      jumpi\n      tag_167\n      tag_30\n      jump\t// in\n    tag_167:\n    tag_166:\n      0x20\n      mul\n      0x20\n      add\n      add\n        /* \"verifier.sol\":4194:4223  input[i * 6 + 3] = p2[i].X[0] */\n      dup2\n      dup2\n      mstore\n      pop\n      pop\n        /* \"verifier.sol\":4256:4258  p2 */\n      dup6\n        /* \"verifier.sol\":4259:4260  i */\n      dup2\n        /* \"verifier.sol\":4256:4261  p2[i] */\n      dup2\n      mload\n      dup2\n      lt\n      tag_168\n      jumpi\n      tag_169\n      tag_30\n      jump\t// in\n    tag_169:\n    tag_168:\n      0x20\n      mul\n      0x20\n      add\n      add\n      mload\n        /* \"verifier.sol\":4256:4263  p2[i].Y */\n      0x20\n      add\n      mload\n        /* \"verifier.sol\":4264:4265  1 */\n      0x01\n        /* \"verifier.sol\":4256:4266  p2[i].Y[1] */\n      0x02\n      dup2\n      lt\n      tag_170\n      jumpi\n      tag_171\n      tag_30\n      jump\t// in\n    tag_171:\n    tag_170:\n      0x20\n      mul\n      add\n      mload\n        /* \"verifier.sol\":4237:4242  input */\n      dup3\n        /* \"verifier.sol\":4251:4252  4 */\n      0x04\n        /* \"verifier.sol\":4247:4248  6 */\n      0x06\n        /* \"verifier.sol\":4243:4244  i */\n      dup5\n        /* \"verifier.sol\":4243:4248  i * 6 */\n      tag_172\n      swap2\n      swap1\n      tag_133\n      jump\t// in\n    tag_172:\n        /* \"verifier.sol\":4243:4252  i * 6 + 4 */\n      tag_173\n      swap2\n      swap1\n      tag_23\n      jump\t// in\n    tag_173:\n        /* \"verifier.sol\":4237:4253  input[i * 6 + 4] */\n      dup2\n      mload\n      dup2\n      lt\n      tag_174\n      jumpi\n      tag_175\n      tag_30\n      jump\t// in\n    tag_175:\n    tag_174:\n      0x20\n      mul\n      0x20\n      add\n      add\n        /* \"verifier.sol\":4237:4266  input[i * 6 + 4] = p2[i].Y[1] */\n      dup2\n      dup2\n      mstore\n      pop\n      pop\n        /* \"verifier.sol\":4299:4301  p2 */\n      dup6\n        /* \"verifier.sol\":4302:4303  i */\n      dup2\n        /* \"verifier.sol\":4299:4304  p2[i] */\n      dup2\n      mload\n      dup2\n      lt\n      tag_176\n      jumpi\n      tag_177\n      tag_30\n      jump\t// in\n    tag_177:\n    tag_176:\n      0x20\n      mul\n      0x20\n      add\n      add\n      mload\n        /* \"verifier.sol\":4299:4306  p2[i].Y */\n      0x20\n      add\n      mload\n        /* \"verifier.sol\":4307:4308  0 */\n      0x00\n        /* \"verifier.sol\":4299:4309  p2[i].Y[0] */\n      0x02\n      dup2\n      lt\n      tag_178\n      jumpi\n      tag_179\n      tag_30\n      jump\t// in\n    tag_179:\n    tag_178:\n      0x20\n      mul\n      add\n      mload\n        /* \"verifier.sol\":4280:4285  input */\n      dup3\n        /* \"verifier.sol\":4294:4295  5 */\n      0x05\n        /* \"verifier.sol\":4290:4291  6 */\n      0x06\n        /* \"verifier.sol\":4286:4287  i */\n      dup5\n        /* \"verifier.sol\":4286:4291  i * 6 */\n      tag_180\n      swap2\n      swap1\n      tag_133\n      jump\t// in\n    tag_180:\n        /* \"verifier.sol\":4286:4295  i * 6 + 5 */\n      tag_181\n      swap2\n      swap1\n      tag_23\n      jump\t// in\n    tag_181:\n        /* \"verifier.sol\":4280:4296  input[i * 6 + 5] */\n      dup2\n      mload\n      dup2\n      lt\n      tag_182\n      jumpi\n      tag_183\n      tag_30\n      jump\t// in\n    tag_183:\n    tag_182:\n      0x20\n      mul\n      0x20\n      add\n      add\n        /* \"verifier.sol\":4280:4309  input[i * 6 + 5] = p2[i].Y[0] */\n      dup2\n      dup2\n      mstore\n      pop\n      pop\n        /* \"verifier.sol\":4044:4047  i++ */\n      dup1\n      dup1\n      tag_184\n      swap1\n      tag_42\n      jump\t// in\n    tag_184:\n      swap2\n      pop\n      pop\n        /* \"verifier.sol\":4013:4320  for (uint i = 0; i < elements; i++)... */\n      jump(tag_137)\n    tag_138:\n      pop\n        /* \"verifier.sol\":4329:4347  uint[1] memory out */\n      tag_185\n      tag_186\n      jump\t// in\n    tag_185:\n        /* \"verifier.sol\":4357:4369  bool success */\n      0x00\n        /* \"verifier.sol\":4490:4494  0x20 */\n      0x20\n        /* \"verifier.sol\":4485:4488  out */\n      dup3\n        /* \"verifier.sol\":4478:4482  0x20 */\n      0x20\n        /* \"verifier.sol\":4467:4476  inputSize */\n      dup7\n        /* \"verifier.sol\":4463:4483  mul(inputSize, 0x20) */\n      mul\n        /* \"verifier.sol\":4456:4460  0x20 */\n      0x20\n        /* \"verifier.sol\":4449:4454  input */\n      dup7\n        /* \"verifier.sol\":4445:4461  add(input, 0x20) */\n      add\n        /* \"verifier.sol\":4442:4443  8 */\n      0x08\n        /* \"verifier.sol\":4435:4439  2000 */\n      0x07d0\n        /* \"verifier.sol\":4428:4433  gas() */\n      gas\n        /* \"verifier.sol\":4424:4440  sub(gas(), 2000) */\n      sub\n        /* \"verifier.sol\":4413:4495  staticcall(sub(gas(), 2000), 8, add(input, 0x20), mul(inputSize, 0x20), out, 0x20) */\n      staticcall\n        /* \"verifier.sol\":4402:4495  success := staticcall(sub(gas(), 2000), 8, add(input, 0x20), mul(inputSize, 0x20), out, 0x20) */\n      swap1\n      pop\n        /* \"verifier.sol\":4572:4579  success */\n      dup1\n        /* \"verifier.sol\":4585:4586  0 */\n      0x00\n        /* \"verifier.sol\":4580:4600  case 0 { invalid() } */\n      dup2\n      sub\n        /* \"verifier.sol\":4565:4600  switch success case 0 { invalid() } */\n      tag_187\n        /* \"verifier.sol\":4580:4600  case 0 { invalid() } */\n      jumpi\n        /* \"verifier.sol\":4589:4598  invalid() */\n      invalid\n        /* \"verifier.sol\":4565:4600  switch success case 0 { invalid() } */\n    tag_187:\n      pop\n        /* \"verifier.sol\":4627:4634  success */\n      dup1\n        /* \"verifier.sol\":4619:4635  require(success) */\n      tag_189\n      jumpi\n      0x00\n      dup1\n      revert\n    tag_189:\n        /* \"verifier.sol\":4662:4663  0 */\n      0x00\n        /* \"verifier.sol\":4652:4655  out */\n      dup3\n        /* \"verifier.sol\":4656:4657  0 */\n      0x00\n        /* \"verifier.sol\":4652:4658  out[0] */\n      0x01\n      dup2\n      lt\n      tag_190\n      jumpi\n      tag_191\n      tag_30\n      jump\t// in\n    tag_191:\n    tag_190:\n      0x20\n      mul\n      add\n      mload\n        /* \"verifier.sol\":4652:4663  out[0] != 0 */\n      eq\n      iszero\n        /* \"verifier.sol\":4645:4663  return out[0] != 0 */\n      swap6\n      pop\n      pop\n      pop\n      pop\n      pop\n      pop\n        /* \"verifier.sol\":3747:4670  function pairing(G1Point[] memory p1, G2Point[] memory p2) internal view returns (bool) {... */\n      swap3\n      swap2\n      pop\n      pop\n      jump\t// out\n    tag_54:\n      mload(0x40)\n      dup1\n      0xa0\n      add\n      0x40\n      mstore\n      dup1\n      tag_192\n      tag_61\n      jump\t// in\n    tag_192:\n      dup2\n      mstore\n      0x20\n      add\n      tag_193\n      tag_111\n      jump\t// in\n    tag_193:\n      dup2\n      mstore\n      0x20\n      add\n      tag_194\n      tag_111\n      jump\t// in\n    tag_194:\n      dup2\n      mstore\n      0x20\n      add\n      tag_195\n      tag_111\n      jump\t// in\n    tag_195:\n      dup2\n      mstore\n      0x20\n      add\n      0x60\n      dup2\n      mstore\n      pop\n      swap1\n      jump\t// out\n    tag_61:\n      mload(0x40)\n      dup1\n      0x40\n      add\n      0x40\n      mstore\n      dup1\n      0x00\n      dup2\n      mstore\n      0x20\n      add\n      0x00\n      dup2\n      mstore\n      pop\n      swap1\n      jump\t// out\n    tag_67:\n      mload(0x40)\n      dup1\n      0x60\n      add\n      0x40\n      mstore\n      dup1\n      0x03\n      swap1\n      0x20\n      dup3\n      mul\n      dup1\n      calldatasize\n      dup4\n      calldatacopy\n      dup1\n      dup3\n      add\n      swap2\n      pop\n      pop\n      swap1\n      pop\n      pop\n      swap1\n      jump\t// out\n    tag_80:\n      mload(0x40)\n      dup1\n      0x80\n      add\n      0x40\n      mstore\n      dup1\n      0x04\n      swap1\n      0x20\n      dup3\n      mul\n      dup1\n      calldatasize\n      dup4\n      calldatacopy\n      dup1\n      dup3\n      add\n      swap2\n      pop\n      pop\n      swap1\n      pop\n      pop\n      swap1\n      jump\t// out\n    tag_111:\n      mload(0x40)\n      dup1\n      0x40\n      add\n      0x40\n      mstore\n      dup1\n      tag_196\n      tag_197\n      jump\t// in\n    tag_196:\n      dup2\n      mstore\n      0x20\n      add\n      tag_198\n      tag_197\n      jump\t// in\n    tag_198:\n      dup2\n      mstore\n      pop\n      swap1\n      jump\t// out\n    tag_186:\n      mload(0x40)\n      dup1\n      0x20\n      add\n      0x40\n      mstore\n      dup1\n      0x01\n      swap1\n      0x20\n      dup3\n      mul\n      dup1\n      calldatasize\n      dup4\n      calldatacopy\n      dup1\n      dup3\n      add\n      swap2\n      pop\n      pop\n      swap1\n      pop\n      pop\n      swap1\n      jump\t// out\n    tag_197:\n      mload(0x40)\n      dup1\n      0x40\n      add\n      0x40\n      mstore\n      dup1\n      0x02\n      swap1\n      0x20\n      dup3\n      mul\n      dup1\n      calldatasize\n      dup4\n      calldatacopy\n      dup1\n      dup3\n      add\n      swap2\n      pop\n      pop\n      swap1\n      pop\n      pop\n      swap1\n      jump\t// out\n        /* \"#utility.yul\":7:82   */\n    tag_199:\n        /* \"#utility.yul\":40:46   */\n      0x00\n        /* \"#utility.yul\":73:75   */\n      0x40\n        /* \"#utility.yul\":67:76   */\n      mload\n        /* \"#utility.yul\":57:76   */\n      swap1\n      pop\n        /* \"#utility.yul\":7:82   */\n      swap1\n      jump\t// out\n        /* \"#utility.yul\":88:205   */\n    tag_200:\n        /* \"#utility.yul\":197:198   */\n      0x00\n        /* \"#utility.yul\":194:195   */\n      dup1\n        /* \"#utility.yul\":187:199   */\n      revert\n        /* \"#utility.yul\":334:451   */\n    tag_202:\n        /* \"#utility.yul\":443:444   */\n      0x00\n        /* \"#utility.yul\":440:441   */\n      dup1\n        /* \"#utility.yul\":433:445   */\n      revert\n        /* \"#utility.yul\":457:559   */\n    tag_203:\n        /* \"#utility.yul\":498:504   */\n      0x00\n        /* \"#utility.yul\":549:551   */\n      0x1f\n        /* \"#utility.yul\":545:552   */\n      not\n        /* \"#utility.yul\":540:542   */\n      0x1f\n        /* \"#utility.yul\":533:538   */\n      dup4\n        /* \"#utility.yul\":529:543   */\n      add\n        /* \"#utility.yul\":525:553   */\n      and\n        /* \"#utility.yul\":515:553   */\n      swap1\n      pop\n        /* \"#utility.yul\":457:559   */\n      swap2\n      swap1\n      pop\n      jump\t// out\n        /* \"#utility.yul\":565:745   */\n    tag_13:\n        /* \"#utility.yul\":613:690   */\n      0x4e487b7100000000000000000000000000000000000000000000000000000000\n        /* \"#utility.yul\":610:611   */\n      0x00\n        /* \"#utility.yul\":603:691   */\n      mstore\n        /* \"#utility.yul\":710:714   */\n      0x41\n        /* \"#utility.yul\":707:708   */\n      0x04\n        /* \"#utility.yul\":700:715   */\n      mstore\n        /* \"#utility.yul\":734:738   */\n      0x24\n        /* \"#utility.yul\":731:732   */\n      0x00\n        /* \"#utility.yul\":724:739   */\n      revert\n        /* \"#utility.yul\":751:1032   */\n    tag_204:\n        /* \"#utility.yul\":834:861   */\n      tag_230\n        /* \"#utility.yul\":856:860   */\n      dup3\n        /* \"#utility.yul\":834:861   */\n      tag_203\n      jump\t// in\n    tag_230:\n        /* \"#utility.yul\":826:832   */\n      dup2\n        /* \"#utility.yul\":822:862   */\n      add\n        /* \"#utility.yul\":964:970   */\n      dup2\n        /* \"#utility.yul\":952:962   */\n      dup2\n        /* \"#utility.yul\":949:971   */\n      lt\n        /* \"#utility.yul\":928:946   */\n      0xffffffffffffffff\n        /* \"#utility.yul\":916:926   */\n      dup3\n        /* \"#utility.yul\":913:947   */\n      gt\n        /* \"#utility.yul\":910:972   */\n      or\n        /* \"#utility.yul\":907:995   */\n      iszero\n      tag_231\n      jumpi\n        /* \"#utility.yul\":975:993   */\n      tag_232\n      tag_13\n      jump\t// in\n    tag_232:\n        /* \"#utility.yul\":907:995   */\n    tag_231:\n        /* \"#utility.yul\":1015:1025   */\n      dup1\n        /* \"#utility.yul\":1011:1013   */\n      0x40\n        /* \"#utility.yul\":1004:1026   */\n      mstore\n        /* \"#utility.yul\":794:1032   */\n      pop\n        /* \"#utility.yul\":751:1032   */\n      pop\n      pop\n      jump\t// out\n        /* \"#utility.yul\":1038:1167   */\n    tag_205:\n        /* \"#utility.yul\":1072:1078   */\n      0x00\n        /* \"#utility.yul\":1099:1119   */\n      tag_234\n      tag_199\n      jump\t// in\n    tag_234:\n        /* \"#utility.yul\":1089:1119   */\n      swap1\n      pop\n        /* \"#utility.yul\":1128:1161   */\n      tag_235\n        /* \"#utility.yul\":1156:1160   */\n      dup3\n        /* \"#utility.yul\":1148:1154   */\n      dup3\n        /* \"#utility.yul\":1128:1161   */\n      tag_204\n      jump\t// in\n    tag_235:\n        /* \"#utility.yul\":1038:1167   */\n      swap2\n      swap1\n      pop\n      jump\t// out\n        /* \"#utility.yul\":1296:1373   */\n    tag_207:\n        /* \"#utility.yul\":1333:1340   */\n      0x00\n        /* \"#utility.yul\":1362:1367   */\n      dup2\n        /* \"#utility.yul\":1351:1367   */\n      swap1\n      pop\n        /* \"#utility.yul\":1296:1373   */\n      swap2\n      swap1\n      pop\n      jump\t// out\n        /* \"#utility.yul\":1379:1501   */\n    tag_208:\n        /* \"#utility.yul\":1452:1476   */\n      tag_239\n        /* \"#utility.yul\":1470:1475   */\n      dup2\n        /* \"#utility.yul\":1452:1476   */\n      tag_207\n      jump\t// in\n    tag_239:\n        /* \"#utility.yul\":1445:1450   */\n      dup2\n        /* \"#utility.yul\":1442:1477   */\n      eq\n        /* \"#utility.yul\":1432:1495   */\n      tag_240\n      jumpi\n        /* \"#utility.yul\":1491:1492   */\n      0x00\n        /* \"#utility.yul\":1488:1489   */\n      dup1\n        /* \"#utility.yul\":1481:1493   */\n      revert\n        /* \"#utility.yul\":1432:1495   */\n    tag_240:\n        /* \"#utility.yul\":1379:1501   */\n      pop\n      jump\t// out\n        /* \"#utility.yul\":1507:1646   */\n    tag_209:\n        /* \"#utility.yul\":1553:1558   */\n      0x00\n        /* \"#utility.yul\":1591:1597   */\n      dup2\n        /* \"#utility.yul\":1578:1598   */\n      calldataload\n        /* \"#utility.yul\":1569:1598   */\n      swap1\n      pop\n        /* \"#utility.yul\":1607:1640   */\n      tag_242\n        /* \"#utility.yul\":1634:1639   */\n      dup2\n        /* \"#utility.yul\":1607:1640   */\n      tag_208\n      jump\t// in\n    tag_242:\n        /* \"#utility.yul\":1507:1646   */\n      swap3\n      swap2\n      pop\n      pop\n      jump\t// out\n        /* \"#utility.yul\":1682:2247   */\n    tag_210:\n        /* \"#utility.yul\":1753:1758   */\n      0x00\n        /* \"#utility.yul\":1797:1801   */\n      0x40\n        /* \"#utility.yul\":1785:1794   */\n      dup3\n        /* \"#utility.yul\":1780:1783   */\n      dup5\n        /* \"#utility.yul\":1776:1795   */\n      sub\n        /* \"#utility.yul\":1772:1802   */\n      slt\n        /* \"#utility.yul\":1769:1886   */\n      iszero\n      tag_244\n      jumpi\n        /* \"#utility.yul\":1805:1884   */\n      tag_245\n      tag_202\n      jump\t// in\n    tag_245:\n        /* \"#utility.yul\":1769:1886   */\n    tag_244:\n        /* \"#utility.yul\":1904:1925   */\n      tag_246\n        /* \"#utility.yul\":1920:1924   */\n      0x40\n        /* \"#utility.yul\":1904:1925   */\n      tag_205\n      jump\t// in\n    tag_246:\n        /* \"#utility.yul\":1895:1925   */\n      swap1\n      pop\n        /* \"#utility.yul\":1981:1982   */\n      0x00\n        /* \"#utility.yul\":2021:2070   */\n      tag_247\n        /* \"#utility.yul\":2066:2069   */\n      dup5\n        /* \"#utility.yul\":2057:2063   */\n      dup3\n        /* \"#utility.yul\":2046:2055   */\n      dup6\n        /* \"#utility.yul\":2042:2064   */\n      add\n        /* \"#utility.yul\":2021:2070   */\n      tag_209\n      jump\t// in\n    tag_247:\n        /* \"#utility.yul\":2014:2018   */\n      0x00\n        /* \"#utility.yul\":2007:2012   */\n      dup4\n        /* \"#utility.yul\":2003:2019   */\n      add\n        /* \"#utility.yul\":1996:2071   */\n      mstore\n        /* \"#utility.yul\":1935:2082   */\n      pop\n        /* \"#utility.yul\":2138:2140   */\n      0x20\n        /* \"#utility.yul\":2179:2228   */\n      tag_248\n        /* \"#utility.yul\":2224:2227   */\n      dup5\n        /* \"#utility.yul\":2215:2221   */\n      dup3\n        /* \"#utility.yul\":2204:2213   */\n      dup6\n        /* \"#utility.yul\":2200:2222   */\n      add\n        /* \"#utility.yul\":2179:2228   */\n      tag_209\n      jump\t// in\n    tag_248:\n        /* \"#utility.yul\":2172:2176   */\n      0x20\n        /* \"#utility.yul\":2165:2170   */\n      dup4\n        /* \"#utility.yul\":2161:2177   */\n      add\n        /* \"#utility.yul\":2154:2229   */\n      mstore\n        /* \"#utility.yul\":2092:2240   */\n      pop\n        /* \"#utility.yul\":1682:2247   */\n      swap3\n      swap2\n      pop\n      pop\n      jump\t// out\n        /* \"#utility.yul\":2253:2370   */\n    tag_211:\n        /* \"#utility.yul\":2362:2363   */\n      0x00\n        /* \"#utility.yul\":2359:2360   */\n      dup1\n        /* \"#utility.yul\":2352:2364   */\n      revert\n        /* \"#utility.yul\":2376:2625   */\n    tag_212:\n        /* \"#utility.yul\":2451:2455   */\n      0x00\n        /* \"#utility.yul\":2541:2559   */\n      0xffffffffffffffff\n        /* \"#utility.yul\":2533:2539   */\n      dup3\n        /* \"#utility.yul\":2530:2560   */\n      gt\n        /* \"#utility.yul\":2527:2583   */\n      iszero\n      tag_251\n      jumpi\n        /* \"#utility.yul\":2563:2581   */\n      tag_252\n      tag_13\n      jump\t// in\n    tag_252:\n        /* \"#utility.yul\":2527:2583   */\n    tag_251:\n        /* \"#utility.yul\":2613:2617   */\n      0x20\n        /* \"#utility.yul\":2605:2611   */\n      dup3\n        /* \"#utility.yul\":2601:2618   */\n      mul\n        /* \"#utility.yul\":2593:2618   */\n      swap1\n      pop\n        /* \"#utility.yul\":2376:2625   */\n      swap2\n      swap1\n      pop\n      jump\t// out\n        /* \"#utility.yul\":2631:2748   */\n    tag_213:\n        /* \"#utility.yul\":2740:2741   */\n      0x00\n        /* \"#utility.yul\":2737:2738   */\n      dup1\n        /* \"#utility.yul\":2730:2742   */\n      revert\n        /* \"#utility.yul\":2772:3415   */\n    tag_214:\n        /* \"#utility.yul\":2866:2871   */\n      0x00\n        /* \"#utility.yul\":2891:2970   */\n      tag_255\n        /* \"#utility.yul\":2907:2969   */\n      tag_256\n        /* \"#utility.yul\":2962:2968   */\n      dup5\n        /* \"#utility.yul\":2907:2969   */\n      tag_212\n      jump\t// in\n    tag_256:\n        /* \"#utility.yul\":2891:2970   */\n      tag_205\n      jump\t// in\n    tag_255:\n        /* \"#utility.yul\":2882:2970   */\n      swap1\n      pop\n        /* \"#utility.yul\":2990:2995   */\n      dup1\n        /* \"#utility.yul\":3043:3047   */\n      0x20\n        /* \"#utility.yul\":3035:3041   */\n      dup5\n        /* \"#utility.yul\":3031:3048   */\n      mul\n        /* \"#utility.yul\":3023:3029   */\n      dup4\n        /* \"#utility.yul\":3019:3049   */\n      add\n        /* \"#utility.yul\":3072:3075   */\n      dup6\n        /* \"#utility.yul\":3064:3070   */\n      dup2\n        /* \"#utility.yul\":3061:3076   */\n      gt\n        /* \"#utility.yul\":3058:3180   */\n      iszero\n      tag_257\n      jumpi\n        /* \"#utility.yul\":3091:3170   */\n      tag_258\n      tag_213\n      jump\t// in\n    tag_258:\n        /* \"#utility.yul\":3058:3180   */\n    tag_257:\n        /* \"#utility.yul\":3206:3212   */\n      dup4\n        /* \"#utility.yul\":3189:3409   */\n    tag_259:\n        /* \"#utility.yul\":3223:3229   */\n      dup2\n        /* \"#utility.yul\":3218:3221   */\n      dup2\n        /* \"#utility.yul\":3215:3230   */\n      lt\n        /* \"#utility.yul\":3189:3409   */\n      iszero\n      tag_261\n      jumpi\n        /* \"#utility.yul\":3298:3301   */\n      dup1\n        /* \"#utility.yul\":3327:3364   */\n      tag_262\n        /* \"#utility.yul\":3360:3363   */\n      dup9\n        /* \"#utility.yul\":3348:3358   */\n      dup3\n        /* \"#utility.yul\":3327:3364   */\n      tag_209\n      jump\t// in\n    tag_262:\n        /* \"#utility.yul\":3322:3325   */\n      dup5\n        /* \"#utility.yul\":3315:3365   */\n      mstore\n        /* \"#utility.yul\":3394:3398   */\n      0x20\n        /* \"#utility.yul\":3389:3392   */\n      dup5\n        /* \"#utility.yul\":3385:3399   */\n      add\n        /* \"#utility.yul\":3378:3399   */\n      swap4\n      pop\n        /* \"#utility.yul\":3265:3409   */\n      pop\n        /* \"#utility.yul\":3249:3253   */\n      0x20\n        /* \"#utility.yul\":3244:3247   */\n      dup2\n        /* \"#utility.yul\":3240:3254   */\n      add\n        /* \"#utility.yul\":3233:3254   */\n      swap1\n      pop\n        /* \"#utility.yul\":3189:3409   */\n      jump(tag_259)\n    tag_261:\n        /* \"#utility.yul\":3193:3214   */\n      pop\n        /* \"#utility.yul\":2872:3415   */\n      pop\n      pop\n        /* \"#utility.yul\":2772:3415   */\n      swap4\n      swap3\n      pop\n      pop\n      pop\n      jump\t// out\n        /* \"#utility.yul\":3439:3778   */\n    tag_215:\n        /* \"#utility.yul\":3508:3513   */\n      0x00\n        /* \"#utility.yul\":3557:3560   */\n      dup3\n        /* \"#utility.yul\":3550:3554   */\n      0x1f\n        /* \"#utility.yul\":3542:3548   */\n      dup4\n        /* \"#utility.yul\":3538:3555   */\n      add\n        /* \"#utility.yul\":3534:3561   */\n      slt\n        /* \"#utility.yul\":3524:3646   */\n      tag_264\n      jumpi\n        /* \"#utility.yul\":3565:3644   */\n      tag_265\n      tag_211\n      jump\t// in\n    tag_265:\n        /* \"#utility.yul\":3524:3646   */\n    tag_264:\n        /* \"#utility.yul\":3669:3673   */\n      0x02\n        /* \"#utility.yul\":3691:3772   */\n      tag_266\n        /* \"#utility.yul\":3768:3771   */\n      dup5\n        /* \"#utility.yul\":3760:3766   */\n      dup3\n        /* \"#utility.yul\":3752:3758   */\n      dup6\n        /* \"#utility.yul\":3691:3772   */\n      tag_214\n      jump\t// in\n    tag_266:\n        /* \"#utility.yul\":3682:3772   */\n      swap2\n      pop\n        /* \"#utility.yul\":3514:3778   */\n      pop\n        /* \"#utility.yul\":3439:3778   */\n      swap3\n      swap2\n      pop\n      pop\n      jump\t// out\n        /* \"#utility.yul\":3814:4426   */\n    tag_216:\n        /* \"#utility.yul\":3886:3891   */\n      0x00\n        /* \"#utility.yul\":3930:3934   */\n      0x80\n        /* \"#utility.yul\":3918:3927   */\n      dup3\n        /* \"#utility.yul\":3913:3916   */\n      dup5\n        /* \"#utility.yul\":3909:3928   */\n      sub\n        /* \"#utility.yul\":3905:3935   */\n      slt\n        /* \"#utility.yul\":3902:4019   */\n      iszero\n      tag_268\n      jumpi\n        /* \"#utility.yul\":3938:4017   */\n      tag_269\n      tag_202\n      jump\t// in\n    tag_269:\n        /* \"#utility.yul\":3902:4019   */\n    tag_268:\n        /* \"#utility.yul\":4037:4058   */\n      tag_270\n        /* \"#utility.yul\":4053:4057   */\n      0x40\n        /* \"#utility.yul\":4037:4058   */\n      tag_205\n      jump\t// in\n    tag_270:\n        /* \"#utility.yul\":4028:4058   */\n      swap1\n      pop\n        /* \"#utility.yul\":4114:4115   */\n      0x00\n        /* \"#utility.yul\":4154:4226   */\n      tag_271\n        /* \"#utility.yul\":4222:4225   */\n      dup5\n        /* \"#utility.yul\":4213:4219   */\n      dup3\n        /* \"#utility.yul\":4202:4211   */\n      dup6\n        /* \"#utility.yul\":4198:4220   */\n      add\n        /* \"#utility.yul\":4154:4226   */\n      tag_215\n      jump\t// in\n    tag_271:\n        /* \"#utility.yul\":4147:4151   */\n      0x00\n        /* \"#utility.yul\":4140:4145   */\n      dup4\n        /* \"#utility.yul\":4136:4152   */\n      add\n        /* \"#utility.yul\":4129:4227   */\n      mstore\n        /* \"#utility.yul\":4068:4238   */\n      pop\n        /* \"#utility.yul\":4294:4296   */\n      0x40\n        /* \"#utility.yul\":4335:4407   */\n      tag_272\n        /* \"#utility.yul\":4403:4406   */\n      dup5\n        /* \"#utility.yul\":4394:4400   */\n      dup3\n        /* \"#utility.yul\":4383:4392   */\n      dup6\n        /* \"#utility.yul\":4379:4401   */\n      add\n        /* \"#utility.yul\":4335:4407   */\n      tag_215\n      jump\t// in\n    tag_272:\n        /* \"#utility.yul\":4328:4332   */\n      0x20\n        /* \"#utility.yul\":4321:4326   */\n      dup4\n        /* \"#utility.yul\":4317:4333   */\n      add\n        /* \"#utility.yul\":4310:4408   */\n      mstore\n        /* \"#utility.yul\":4248:4419   */\n      pop\n        /* \"#utility.yul\":3814:4426   */\n      swap3\n      swap2\n      pop\n      pop\n      jump\t// out\n        /* \"#utility.yul\":4461:5254   */\n    tag_217:\n        /* \"#utility.yul\":4532:4537   */\n      0x00\n        /* \"#utility.yul\":4576:4582   */\n      0x0100\n        /* \"#utility.yul\":4564:4573   */\n      dup3\n        /* \"#utility.yul\":4559:4562   */\n      dup5\n        /* \"#utility.yul\":4555:4574   */\n      sub\n        /* \"#utility.yul\":4551:4583   */\n      slt\n        /* \"#utility.yul\":4548:4667   */\n      iszero\n      tag_274\n      jumpi\n        /* \"#utility.yul\":4586:4665   */\n      tag_275\n      tag_202\n      jump\t// in\n    tag_275:\n        /* \"#utility.yul\":4548:4667   */\n    tag_274:\n        /* \"#utility.yul\":4685:4706   */\n      tag_276\n        /* \"#utility.yul\":4701:4705   */\n      0x60\n        /* \"#utility.yul\":4685:4706   */\n      tag_205\n      jump\t// in\n    tag_276:\n        /* \"#utility.yul\":4676:4706   */\n      swap1\n      pop\n        /* \"#utility.yul\":4762:4763   */\n      0x00\n        /* \"#utility.yul\":4802:4873   */\n      tag_277\n        /* \"#utility.yul\":4869:4872   */\n      dup5\n        /* \"#utility.yul\":4860:4866   */\n      dup3\n        /* \"#utility.yul\":4849:4858   */\n      dup6\n        /* \"#utility.yul\":4845:4867   */\n      add\n        /* \"#utility.yul\":4802:4873   */\n      tag_210\n      jump\t// in\n    tag_277:\n        /* \"#utility.yul\":4795:4799   */\n      0x00\n        /* \"#utility.yul\":4788:4793   */\n      dup4\n        /* \"#utility.yul\":4784:4800   */\n      add\n        /* \"#utility.yul\":4777:4874   */\n      mstore\n        /* \"#utility.yul\":4716:4885   */\n      pop\n        /* \"#utility.yul\":4941:4943   */\n      0x40\n        /* \"#utility.yul\":4982:5054   */\n      tag_278\n        /* \"#utility.yul\":5050:5053   */\n      dup5\n        /* \"#utility.yul\":5041:5047   */\n      dup3\n        /* \"#utility.yul\":5030:5039   */\n      dup6\n        /* \"#utility.yul\":5026:5048   */\n      add\n        /* \"#utility.yul\":4982:5054   */\n      tag_216\n      jump\t// in\n    tag_278:\n        /* \"#utility.yul\":4975:4979   */\n      0x20\n        /* \"#utility.yul\":4968:4973   */\n      dup4\n        /* \"#utility.yul\":4964:4980   */\n      add\n        /* \"#utility.yul\":4957:5055   */\n      mstore\n        /* \"#utility.yul\":4895:5066   */\n      pop\n        /* \"#utility.yul\":5122:5125   */\n      0xc0\n        /* \"#utility.yul\":5164:5235   */\n      tag_279\n        /* \"#utility.yul\":5231:5234   */\n      dup5\n        /* \"#utility.yul\":5222:5228   */\n      dup3\n        /* \"#utility.yul\":5211:5220   */\n      dup6\n        /* \"#utility.yul\":5207:5229   */\n      add\n        /* \"#utility.yul\":5164:5235   */\n      tag_210\n      jump\t// in\n    tag_279:\n        /* \"#utility.yul\":5157:5161   */\n      0x40\n        /* \"#utility.yul\":5150:5155   */\n      dup4\n        /* \"#utility.yul\":5146:5162   */\n      add\n        /* \"#utility.yul\":5139:5236   */\n      mstore\n        /* \"#utility.yul\":5076:5247   */\n      pop\n        /* \"#utility.yul\":4461:5254   */\n      swap3\n      swap2\n      pop\n      pop\n      jump\t// out\n        /* \"#utility.yul\":5260:5634   */\n    tag_6:\n        /* \"#utility.yul\":5341:5347   */\n      0x00\n        /* \"#utility.yul\":5390:5393   */\n      0x0100\n        /* \"#utility.yul\":5378:5387   */\n      dup3\n        /* \"#utility.yul\":5369:5376   */\n      dup5\n        /* \"#utility.yul\":5365:5388   */\n      sub\n        /* \"#utility.yul\":5361:5394   */\n      slt\n        /* \"#utility.yul\":5358:5478   */\n      iszero\n      tag_281\n      jumpi\n        /* \"#utility.yul\":5397:5476   */\n      tag_282\n      tag_200\n      jump\t// in\n    tag_282:\n        /* \"#utility.yul\":5358:5478   */\n    tag_281:\n        /* \"#utility.yul\":5517:5518   */\n      0x00\n        /* \"#utility.yul\":5542:5617   */\n      tag_283\n        /* \"#utility.yul\":5609:5616   */\n      dup5\n        /* \"#utility.yul\":5600:5606   */\n      dup3\n        /* \"#utility.yul\":5589:5598   */\n      dup6\n        /* \"#utility.yul\":5585:5607   */\n      add\n        /* \"#utility.yul\":5542:5617   */\n      tag_217\n      jump\t// in\n    tag_283:\n        /* \"#utility.yul\":5532:5617   */\n      swap2\n      pop\n        /* \"#utility.yul\":5488:5627   */\n      pop\n        /* \"#utility.yul\":5260:5634   */\n      swap3\n      swap2\n      pop\n      pop\n      jump\t// out\n        /* \"#utility.yul\":5640:5730   */\n    tag_218:\n        /* \"#utility.yul\":5674:5681   */\n      0x00\n        /* \"#utility.yul\":5717:5722   */\n      dup2\n        /* \"#utility.yul\":5710:5723   */\n      iszero\n        /* \"#utility.yul\":5703:5724   */\n      iszero\n        /* \"#utility.yul\":5692:5724   */\n      swap1\n      pop\n        /* \"#utility.yul\":5640:5730   */\n      swap2\n      swap1\n      pop\n      jump\t// out\n        /* \"#utility.yul\":5736:5845   */\n    tag_219:\n        /* \"#utility.yul\":5817:5838   */\n      tag_286\n        /* \"#utility.yul\":5832:5837   */\n      dup2\n        /* \"#utility.yul\":5817:5838   */\n      tag_218\n      jump\t// in\n    tag_286:\n        /* \"#utility.yul\":5812:5815   */\n      dup3\n        /* \"#utility.yul\":5805:5839   */\n      mstore\n        /* \"#utility.yul\":5736:5845   */\n      pop\n      pop\n      jump\t// out\n        /* \"#utility.yul\":5851:6061   */\n    tag_9:\n        /* \"#utility.yul\":5938:5942   */\n      0x00\n        /* \"#utility.yul\":5976:5978   */\n      0x20\n        /* \"#utility.yul\":5965:5974   */\n      dup3\n        /* \"#utility.yul\":5961:5979   */\n      add\n        /* \"#utility.yul\":5953:5979   */\n      swap1\n      pop\n        /* \"#utility.yul\":5989:6054   */\n      tag_288\n        /* \"#utility.yul\":6051:6052   */\n      0x00\n        /* \"#utility.yul\":6040:6049   */\n      dup4\n        /* \"#utility.yul\":6036:6053   */\n      add\n        /* \"#utility.yul\":6027:6033   */\n      dup5\n        /* \"#utility.yul\":5989:6054   */\n      tag_219\n      jump\t// in\n    tag_288:\n        /* \"#utility.yul\":5851:6061   */\n      swap3\n      swap2\n      pop\n      pop\n      jump\t// out\n        /* \"#utility.yul\":6067:6247   */\n    tag_220:\n        /* \"#utility.yul\":6115:6192   */\n      0x4e487b7100000000000000000000000000000000000000000000000000000000\n        /* \"#utility.yul\":6112:6113   */\n      0x00\n        /* \"#utility.yul\":6105:6193   */\n      mstore\n        /* \"#utility.yul\":6212:6216   */\n      0x11\n        /* \"#utility.yul\":6209:6210   */\n      0x04\n        /* \"#utility.yul\":6202:6217   */\n      mstore\n        /* \"#utility.yul\":6236:6240   */\n      0x24\n        /* \"#utility.yul\":6233:6234   */\n      0x00\n        /* \"#utility.yul\":6226:6241   */\n      revert\n        /* \"#utility.yul\":6253:6444   */\n    tag_23:\n        /* \"#utility.yul\":6293:6296   */\n      0x00\n        /* \"#utility.yul\":6312:6332   */\n      tag_291\n        /* \"#utility.yul\":6330:6331   */\n      dup3\n        /* \"#utility.yul\":6312:6332   */\n      tag_207\n      jump\t// in\n    tag_291:\n        /* \"#utility.yul\":6307:6332   */\n      swap2\n      pop\n        /* \"#utility.yul\":6346:6366   */\n      tag_292\n        /* \"#utility.yul\":6364:6365   */\n      dup4\n        /* \"#utility.yul\":6346:6366   */\n      tag_207\n      jump\t// in\n    tag_292:\n        /* \"#utility.yul\":6341:6366   */\n      swap3\n      pop\n        /* \"#utility.yul\":6389:6390   */\n      dup3\n        /* \"#utility.yul\":6386:6387   */\n      dup3\n        /* \"#utility.yul\":6382:6391   */\n      add\n        /* \"#utility.yul\":6375:6391   */\n      swap1\n      pop\n        /* \"#utility.yul\":6410:6413   */\n      dup1\n        /* \"#utility.yul\":6407:6408   */\n      dup3\n        /* \"#utility.yul\":6404:6414   */\n      gt\n        /* \"#utility.yul\":6401:6437   */\n      iszero\n      tag_293\n      jumpi\n        /* \"#utility.yul\":6417:6435   */\n      tag_294\n      tag_220\n      jump\t// in\n    tag_294:\n        /* \"#utility.yul\":6401:6437   */\n    tag_293:\n        /* \"#utility.yul\":6253:6444   */\n      swap3\n      swap2\n      pop\n      pop\n      jump\t// out\n        /* \"#utility.yul\":6450:6630   */\n    tag_30:\n        /* \"#utility.yul\":6498:6575   */\n      0x4e487b7100000000000000000000000000000000000000000000000000000000\n        /* \"#utility.yul\":6495:6496   */\n      0x00\n        /* \"#utility.yul\":6488:6576   */\n      mstore\n        /* \"#utility.yul\":6595:6599   */\n      0x32\n        /* \"#utility.yul\":6592:6593   */\n      0x04\n        /* \"#utility.yul\":6585:6600   */\n      mstore\n        /* \"#utility.yul\":6619:6623   */\n      0x24\n        /* \"#utility.yul\":6616:6617   */\n      0x00\n        /* \"#utility.yul\":6609:6624   */\n      revert\n        /* \"#utility.yul\":6636:6869   */\n    tag_42:\n        /* \"#utility.yul\":6675:6678   */\n      0x00\n        /* \"#utility.yul\":6698:6722   */\n      tag_297\n        /* \"#utility.yul\":6716:6721   */\n      dup3\n        /* \"#utility.yul\":6698:6722   */\n      tag_207\n      jump\t// in\n    tag_297:\n        /* \"#utility.yul\":6689:6722   */\n      swap2\n      pop\n        /* \"#utility.yul\":6744:6810   */\n      0xffffffffffffffffffffffffffffffffffffffffffffffffffffffffffffffff\n        /* \"#utility.yul\":6737:6742   */\n      dup3\n        /* \"#utility.yul\":6734:6811   */\n      sub\n        /* \"#utility.yul\":6731:6834   */\n      tag_298\n      jumpi\n        /* \"#utility.yul\":6814:6832   */\n      tag_299\n      tag_220\n      jump\t// in\n    tag_299:\n        /* \"#utility.yul\":6731:6834   */\n    tag_298:\n        /* \"#utility.yul\":6861:6862   */\n      0x01\n        /* \"#utility.yul\":6854:6859   */\n      dup3\n        /* \"#utility.yul\":6850:6863   */\n      add\n        /* \"#utility.yul\":6843:6863   */\n      swap1\n      pop\n        /* \"#utility.yul\":6636:6869   */\n      swap2\n      swap1\n      pop\n      jump\t// out\n        /* \"#utility.yul\":6875:7055   */\n    tag_221:\n        /* \"#utility.yul\":6923:7000   */\n      0x4e487b7100000000000000000000000000000000000000000000000000000000\n        /* \"#utility.yul\":6920:6921   */\n      0x00\n        /* \"#utility.yul\":6913:7001   */\n      mstore\n        /* \"#utility.yul\":7020:7024   */\n      0x12\n        /* \"#utility.yul\":7017:7018   */\n      0x04\n        /* \"#utility.yul\":7010:7025   */\n      mstore\n        /* \"#utility.yul\":7044:7048   */\n      0x24\n        /* \"#utility.yul\":7041:7042   */\n      0x00\n        /* \"#utility.yul\":7034:7049   */\n      revert\n        /* \"#utility.yul\":7061:7237   */\n    tag_97:\n        /* \"#utility.yul\":7093:7094   */\n      0x00\n        /* \"#utility.yul\":7110:7130   */\n      tag_302\n        /* \"#utility.yul\":7128:7129   */\n      dup3\n        /* \"#utility.yul\":7110:7130   */\n      tag_207\n      jump\t// in\n    tag_302:\n        /* \"#utility.yul\":7105:7130   */\n      swap2\n      pop\n        /* \"#utility.yul\":7144:7164   */\n      tag_303\n        /* \"#utility.yul\":7162:7163   */\n      dup4\n        /* \"#utility.yul\":7144:7164   */\n      tag_207\n      jump\t// in\n    tag_303:\n        /* \"#utility.yul\":7139:7164   */\n      swap3\n      pop\n        /* \"#utility.yul\":7183:7184   */\n      dup3\n        /* \"#utility.yul\":7173:7208   */\n      tag_304\n      jumpi\n        /* \"#utility.yul\":7188:7206   */\n      tag_305\n      tag_221\n      jump\t// in\n    tag_305:\n        /* \"#utility.yul\":7173:7208   */\n    tag_304:\n        /* \"#utility.yul\":7229:7230   */\n      dup3\n        /* \"#utility.yul\":7226:7227   */\n      dup3\n        /* \"#utility.yul\":7222:7231   */\n      mod\n        /* \"#utility.yul\":7217:7231   */\n      swap1\n      pop\n        /* \"#utility.yul\":7061:7237   */\n      swap3\n      swap2\n      pop\n      pop\n      jump\t// out\n        /* \"#utility.yul\":7243:7437   */\n    tag_99:\n        /* \"#utility.yul\":7283:7287   */\n      0x00\n        /* \"#utility.yul\":7303:7323   */\n      tag_307\n        /* \"#utility.yul\":7321:7322   */\n      dup3\n        /* \"#utility.yul\":7303:7323   */\n      tag_207\n      jump\t// in\n    tag_307:\n        /* \"#utility.yul\":7298:7323   */\n      swap2\n      pop\n        /* \"#utility.yul\":7337:7357   */\n      tag_308\n        /* \"#utility.yul\":7355:7356   */\n      dup4\n        /* \"#utility.yul\":7337:7357   */\n      tag_207\n      jump\t// in\n    tag_308:\n        /* \"#utility.yul\":7332:7357   */\n      swap3\n      pop\n        /* \"#utility.yul\":7381:7382   */\n      dup3\n        /* \"#utility.yul\":7378:7379   */\n      dup3\n        /* \"#utility.yul\":7374:7383   */\n      sub\n        /* \"#utility.yul\":7366:7383   */\n      swap1\n      pop\n        /* \"#utility.yul\":7405:7406   */\n      dup2\n        /* \"#utility.yul\":7399:7403   */\n      dup2\n        /* \"#utility.yul\":7396:7407   */\n      gt\n        /* \"#utility.yul\":7393:7430   */\n      iszero\n      tag_309\n      jumpi\n        /* \"#utility.yul\":7410:7428   */\n      tag_310\n      tag_220\n      jump\t// in\n    tag_310:\n        /* \"#utility.yul\":7393:7430   */\n    tag_309:\n        /* \"#utility.yul\":7243:7437   */\n      swap3\n      swap2\n      pop\n      pop\n      jump\t// out\n        /* \"#utility.yul\":7443:7853   */\n    tag_133:\n        /* \"#utility.yul\":7483:7490   */\n      0x00\n        /* \"#utility.yul\":7506:7526   */\n      tag_312\n        /* \"#utility.yul\":7524:7525   */\n      dup3\n        /* \"#utility.yul\":7506:7526   */\n      tag_207\n      jump\t// in\n    tag_312:\n        /* \"#utility.yul\":7501:7526   */\n      swap2\n      pop\n        /* \"#utility.yul\":7540:7560   */\n      tag_313\n        /* \"#utility.yul\":7558:7559   */\n      dup4\n        /* \"#utility.yul\":7540:7560   */\n      tag_207\n      jump\t// in\n    tag_313:\n        /* \"#utility.yul\":7535:7560   */\n      swap3\n      pop\n        /* \"#utility.yul\":7595:7596   */\n      dup3\n        /* \"#utility.yul\":7592:7593   */\n      dup3\n        /* \"#utility.yul\":7588:7597   */\n      mul\n        /* \"#utility.yul\":7617:7647   */\n      tag_314\n        /* \"#utility.yul\":7635:7646   */\n      dup2\n        /* \"#utility.yul\":7617:7647   */\n      tag_207\n      jump\t// in\n    tag_314:\n        /* \"#utility.yul\":7606:7647   */\n      swap2\n      pop\n        /* \"#utility.yul\":7796:7797   */\n      dup3\n        /* \"#utility.yul\":7787:7794   */\n      dup3\n        /* \"#utility.yul\":7783:7798   */\n      div\n        /* \"#utility.yul\":7780:7781   */\n      dup5\n        /* \"#utility.yul\":7777:7799   */\n      eq\n        /* \"#utility.yul\":7757:7758   */\n      dup4\n        /* \"#utility.yul\":7750:7759   */\n      iszero\n        /* \"#utility.yul\":7730:7813   */\n      or\n        /* \"#utility.yul\":7707:7846   */\n      tag_315\n      jumpi\n        /* \"#utility.yul\":7826:7844   */\n      tag_316\n      tag_220\n      jump\t// in\n    tag_316:\n        /* \"#utility.yul\":7707:7846   */\n    tag_315:\n        /* \"#utility.yul\":7491:7853   */\n      pop\n        /* \"#utility.yul\":7443:7853   */\n      swap3\n      swap2\n      pop\n      pop\n      jump\t// out\n\n    auxdata: 0xa26469706673582212202977bfa14123978d293c837b442c86bca9200047a8437d08be180f5d2553265d64736f6c63430008120033\n}\n",
				"bytecode": {
					"linkReferences": {},
					"object": "608060405234801561001057600080fd5b50611318806100206000396000f3fe608060405234801561001057600080fd5b506004361061002b5760003560e01c8063f6af031114610030575b600080fd5b61004a600480360381019061004591906110ce565b610060565b6040516100579190611117565b60405180910390f35b600080600067ffffffffffffffff81111561007e5761007d610e5d565b5b6040519080825280602002602001820160405280156100ac5781602001602082028036833780820191505090505b50905060006100bb82856100d5565b036100ca5760019150506100d0565b60009150505b919050565b6000807f30644e72e131a029b85045b68181585d2833e84879b9709143e1f593f00000019050600061010561026c565b90508060800151516001865161011b9190611161565b1461012557600080fd5b60006040518060400160405280600081526020016000815250905060005b86518110156101de57838782815181106101605761015f611195565b5b60200260200101511061017257600080fd5b6101c9826101c4856080015160018561018b9190611161565b8151811061019c5761019b611195565b5b60200260200101518a85815181106101b7576101b6611195565b5b60200260200101516105f7565b610699565b915080806101d6906111c4565b915050610143565b506102088183608001516000815181106101fb576101fa611195565b5b6020026020010151610699565b905061024e8560000151866020015161022084610761565b85604001516102328a60400151610761565b87606001516102448960000151610761565b8960200151610806565b61025e5760019350505050610266565b600093505050505b92915050565b610274610d29565b60405180604001604052807f2a1b7fc1a1853a09c4d787cdab398b83c5d05ce684305bb8fe7a449b9a349e3b81526020017eb7839eb6e6d2f862f417b06562735ea557f2c25f531e4e4c4cdda6aa5f79eb8152508160000181905250604051806040016040528060405180604001604052807f256cfa2e3464812aaf94ed074f9414de028aa09bc0a0492402582a8c096dbf4d81526020017f2c1efedc443a9a7318f4487418087b976e94d614773e33cc0195b37634d69260815250815260200160405180604001604052807f2460bdd95774ef75a5c29dc2aa597e07eeb6b05d380890e8f6323352068878da81526020017f25db415ec06b79726e82026e47e5e69d5cc25e35962c26df921d61198b8548ca8152508152508160200181905250604051806040016040528060405180604001604052807f1bd51ac0caa201944b4a2504a2f1a59bd5ff6d77374000dcd04e4b030b25966f81526020017f11da977d0a94867660f065d944799f75a3f432e7d367947a037cb60d45d3c7de815250815260200160405180604001604052807f269263673ac057c13cf752ff1cb289f695967bda851ebfa3eb591316019b1b4481526020017f2045babdc5cf7a57c90c756e7657485fd95d7477f2db8c0fcf22bbd737cd997c8152508152508160400181905250604051806040016040528060405180604001604052807f05c90c309a9962edab9463449d572bd8e5460c80791dc268e6c99ca9c3f7336281526020017f1c95180b012d9cdae4ca4f9c16a8db3573be0c704e792035029a055c3f269f13815250815260200160405180604001604052807f10b288fa7b684c514fea06b17c09c8373767371e029aa51e8fbf3850f372971081526020017f0bcf0edc70a839a26f0d734c7f26372b322a04035f5a7f8d8126d55fd2cd99778152508152508160600181905250600167ffffffffffffffff81111561053a57610539610e5d565b5b60405190808252806020026020018201604052801561057357816020015b610560610d70565b8152602001906001900390816105585790505b50816080018190525060405180604001604052807f2f4bcc16be3bc449ffcff599b330b9366b3e2cfbccfa4ed6d00a89f518448c5881526020017f0bc3d67b338309fdc3194dc07015a5772a77cd6393a36ba849d3ebf186a0d44281525081608001516000815181106105e9576105e8611195565b5b602002602001018190525090565b6105ff610d70565b610607610d8a565b8360000151816000600381106106205761061f611195565b5b60200201818152505083602001518160016003811061064257610641611195565b5b60200201818152505082816002600381106106605761065f611195565b5b602002018181525050600060608360808460076107d05a03fa9050806000810361068657fe5b508061069157600080fd5b505092915050565b6106a1610d70565b6106a9610dac565b8360000151816000600481106106c2576106c1611195565b5b6020020181815250508360200151816001600481106106e4576106e3611195565b5b60200201818152505082600001518160026004811061070657610705611195565b5b60200201818152505082602001518160036004811061072857610727611195565b5b602002018181525050600060608360c08460066107d05a03fa9050806000810361074e57fe5b508061075957600080fd5b505092915050565b610769610d70565b60007f30644e72e131a029b85045b68181585d97816a916871ca8d3c208c16d87cfd479050600083600001511480156107a6575060008360200151145b156107ca576040518060400160405280600081526020016000815250915050610801565b6040518060400160405280846000015181526020018285602001516107ef919061123b565b836107fa919061126c565b8152509150505b919050565b600080600467ffffffffffffffff81111561082457610823610e5d565b5b60405190808252806020026020018201604052801561085d57816020015b61084a610d70565b8152602001906001900390816108425790505b5090506000600467ffffffffffffffff81111561087d5761087c610e5d565b5b6040519080825280602002602001820160405280156108b657816020015b6108a3610dce565b81526020019060019003908161089b5790505b5090508a826000815181106108ce576108cd611195565b5b602002602001018190525088826001815181106108ee576108ed611195565b5b6020026020010181905250868260028151811061090e5761090d611195565b5b6020026020010181905250848260038151811061092e5761092d611195565b5b6020026020010181905250898160008151811061094e5761094d611195565b5b6020026020010181905250878160018151811061096e5761096d611195565b5b6020026020010181905250858160028151811061098e5761098d611195565b5b602002602001018190525083816003815181106109ae576109ad611195565b5b60200260200101819052506109c382826109d3565b9250505098975050505050505050565b600081518351146109e357600080fd5b60008351905060006006826109f891906112a0565b905060008167ffffffffffffffff811115610a1657610a15610e5d565b5b604051908082528060200260200182016040528015610a445781602001602082028036833780820191505090505b50905060005b83811015610cc957868181518110610a6557610a64611195565b5b602002602001015160000151826000600684610a8191906112a0565b610a8b9190611161565b81518110610a9c57610a9b611195565b5b602002602001018181525050868181518110610abb57610aba611195565b5b602002602001015160200151826001600684610ad791906112a0565b610ae19190611161565b81518110610af257610af1611195565b5b602002602001018181525050858181518110610b1157610b10611195565b5b602002602001015160000151600160028110610b3057610b2f611195565b5b6020020151826002600684610b4591906112a0565b610b4f9190611161565b81518110610b6057610b5f611195565b5b602002602001018181525050858181518110610b7f57610b7e611195565b5b602002602001015160000151600060028110610b9e57610b9d611195565b5b6020020151826003600684610bb391906112a0565b610bbd9190611161565b81518110610bce57610bcd611195565b5b602002602001018181525050858181518110610bed57610bec611195565b5b602002602001015160200151600160028110610c0c57610c0b611195565b5b6020020151826004600684610c2191906112a0565b610c2b9190611161565b81518110610c3c57610c3b611195565b5b602002602001018181525050858181518110610c5b57610c5a611195565b5b602002602001015160200151600060028110610c7a57610c79611195565b5b6020020151826005600684610c8f91906112a0565b610c999190611161565b81518110610caa57610ca9611195565b5b6020026020010181815250508080610cc1906111c4565b915050610a4a565b50610cd2610df4565b6000602082602086026020860160086107d05a03fa90508060008103610cf457fe5b5080610cff57600080fd5b600082600060018110610d1557610d14611195565b5b602002015114159550505050505092915050565b6040518060a00160405280610d3c610d70565b8152602001610d49610dce565b8152602001610d56610dce565b8152602001610d63610dce565b8152602001606081525090565b604051806040016040528060008152602001600081525090565b6040518060600160405280600390602082028036833780820191505090505090565b6040518060800160405280600490602082028036833780820191505090505090565b6040518060400160405280610de1610e16565b8152602001610dee610e16565b81525090565b6040518060200160405280600190602082028036833780820191505090505090565b6040518060400160405280600290602082028036833780820191505090505090565b6000604051905090565b600080fd5b600080fd5b6000601f19601f8301169050919050565b7f4e487b7100000000000000000000000000000000000000000000000000000000600052604160045260246000fd5b610e9582610e4c565b810181811067ffffffffffffffff82111715610eb457610eb3610e5d565b5b80604052505050565b6000610ec7610e38565b9050610ed38282610e8c565b919050565b6000819050919050565b610eeb81610ed8565b8114610ef657600080fd5b50565b600081359050610f0881610ee2565b92915050565b600060408284031215610f2457610f23610e47565b5b610f2e6040610ebd565b90506000610f3e84828501610ef9565b6000830152506020610f5284828501610ef9565b60208301525092915050565b600080fd5b600067ffffffffffffffff821115610f7e57610f7d610e5d565b5b602082029050919050565b600080fd5b6000610fa1610f9c84610f63565b610ebd565b90508060208402830185811115610fbb57610fba610f89565b5b835b81811015610fe45780610fd08882610ef9565b845260208401935050602081019050610fbd565b5050509392505050565b600082601f83011261100357611002610f5e565b5b6002611010848285610f8e565b91505092915050565b60006080828403121561102f5761102e610e47565b5b6110396040610ebd565b9050600061104984828501610fee565b600083015250604061105d84828501610fee565b60208301525092915050565b600061010082840312156110805761107f610e47565b5b61108a6060610ebd565b9050600061109a84828501610f0e565b60008301525060406110ae84828501611019565b60208301525060c06110c284828501610f0e565b60408301525092915050565b600061010082840312156110e5576110e4610e42565b5b60006110f384828501611069565b91505092915050565b60008115159050919050565b611111816110fc565b82525050565b600060208201905061112c6000830184611108565b92915050565b7f4e487b7100000000000000000000000000000000000000000000000000000000600052601160045260246000fd5b600061116c82610ed8565b915061117783610ed8565b925082820190508082111561118f5761118e611132565b5b92915050565b7f4e487b7100000000000000000000000000000000000000000000000000000000600052603260045260246000fd5b60006111cf82610ed8565b91507fffffffffffffffffffffffffffffffffffffffffffffffffffffffffffffffff820361120157611200611132565b5b600182019050919050565b7f4e487b7100000000000000000000000000000000000000000000000000000000600052601260045260246000fd5b600061124682610ed8565b915061125183610ed8565b9250826112615761126061120c565b5b828206905092915050565b600061127782610ed8565b915061128283610ed8565b925082820390508181111561129a57611299611132565b5b92915050565b60006112ab82610ed8565b91506112b683610ed8565b92508282026112c481610ed8565b915082820484148315176112db576112da611132565b5b509291505056fea26469706673582212202977bfa14123978d293c837b442c86bca9200047a8437d08be180f5d2553265d64736f6c63430008120033",
					"opcodes": "PUSH1 0x80 PUSH1 0x40 MSTORE CALLVALUE DUP1 ISZERO PUSH2 0x10 JUMPI PUSH1 0x0 DUP1 REVERT JUMPDEST POP PUSH2 0x1318 DUP1 PUSH2 0x20 PUSH1 0x0 CODECOPY PUSH1 0x0 RETURN INVALID PUSH1 0x80 PUSH1 0x40 MSTORE CALLVALUE DUP1 ISZERO PUSH2 0x10 JUMPI PUSH1 0x0 DUP1 REVERT JUMPDEST POP PUSH1 0x4 CALLDATASIZE LT PUSH2 0x2B JUMPI PUSH1 0x0 CALLDATALOAD PUSH1 0xE0 SHR DUP1 PUSH4 0xF6AF0311 EQ PUSH2 0x30 JUMPI JUMPDEST PUSH1 0x0 DUP1 REVERT JUMPDEST PUSH2 0x4A PUSH1 0x4 DUP1 CALLDATASIZE SUB DUP2 ADD SWAP1 PUSH2 0x45 SWAP2 SWAP1 PUSH2 0x10CE JUMP JUMPDEST PUSH2 0x60 JUMP JUMPDEST PUSH1 0x40 MLOAD PUSH2 0x57 SWAP2 SWAP1 PUSH2 0x1117 JUMP JUMPDEST PUSH1 0x40 MLOAD DUP1 SWAP2 SUB SWAP1 RETURN JUMPDEST PUSH1 0x0 DUP1 PUSH1 0x0 PUSH8 0xFFFFFFFFFFFFFFFF DUP2 GT ISZERO PUSH2 0x7E JUMPI PUSH2 0x7D PUSH2 0xE5D JUMP JUMPDEST JUMPDEST PUSH1 0x40 MLOAD SWAP1 DUP1 DUP3 MSTORE DUP1 PUSH1 0x20 MUL PUSH1 0x20 ADD DUP3 ADD PUSH1 0x40 MSTORE DUP1 ISZERO PUSH2 0xAC JUMPI DUP2 PUSH1 0x20 ADD PUSH1 0x20 DUP3 MUL DUP1 CALLDATASIZE DUP4 CALLDATACOPY DUP1 DUP3 ADD SWAP2 POP POP SWAP1 POP JUMPDEST POP SWAP1 POP PUSH1 0x0 PUSH2 0xBB DUP3 DUP6 PUSH2 0xD5 JUMP JUMPDEST SUB PUSH2 0xCA JUMPI PUSH1 0x1 SWAP2 POP POP PUSH2 0xD0 JUMP JUMPDEST PUSH1 0x0 SWAP2 POP POP JUMPDEST SWAP2 SWAP1 POP JUMP JUMPDEST PUSH1 0x0 DUP1 PUSH32 0x30644E72E131A029B85045B68181585D2833E84879B9709143E1F593F0000001 SWAP1 POP PUSH1 0x0 PUSH2 0x105 PUSH2 0x26C JUMP JUMPDEST SWAP1 POP DUP1 PUSH1 0x80 ADD MLOAD MLOAD PUSH1 0x1 DUP7 MLOAD PUSH2 0x11B SWAP2 SWAP1 PUSH2 0x1161 JUMP JUMPDEST EQ PUSH2 0x125 JUMPI PUSH1 0x0 DUP1 REVERT JUMPDEST PUSH1 0x0 PUSH1 0x40 MLOAD DUP1 PUSH1 0x40 ADD PUSH1 0x40 MSTORE DUP1 PUSH1 0x0 DUP2 MSTORE PUSH1 0x20 ADD PUSH1 0x0 DUP2 MSTORE POP SWAP1 POP PUSH1 0x0 JUMPDEST DUP7 MLOAD DUP2 LT ISZERO PUSH2 0x1DE JUMPI DUP4 DUP8 DUP3 DUP2 MLOAD DUP2 LT PUSH2 0x160 JUMPI PUSH2 0x15F PUSH2 0x1195 JUMP JUMPDEST JUMPDEST PUSH1 0x20 MUL PUSH1 0x20 ADD ADD MLOAD LT PUSH2 0x172 JUMPI PUSH1 0x0 DUP1 REVERT JUMPDEST PUSH2 0x1C9 DUP3 PUSH2 0x1C4 DUP6 PUSH1 0x80 ADD MLOAD PUSH1 0x1 DUP6 PUSH2 0x18B SWAP2 SWAP1 PUSH2 0x1161 JUMP JUMPDEST DUP2 MLOAD DUP2 LT PUSH2 0x19C JUMPI PUSH2 0x19B PUSH2 0x1195 JUMP JUMPDEST JUMPDEST PUSH1 0x20 MUL PUSH1 0x20 ADD ADD MLOAD DUP11 DUP6 DUP2 MLOAD DUP2 LT PUSH2 0x1B7 JUMPI PUSH2 0x1B6 PUSH2 0x1195 JUMP JUMPDEST JUMPDEST PUSH1 0x20 MUL PUSH1 0x20 ADD ADD MLOAD PUSH2 0x5F7 JUMP JUMPDEST PUSH2 0x699 JUMP JUMPDEST SWAP2 POP DUP1 DUP1 PUSH2 0x1D6 SWAP1 PUSH2 0x11C4 JUMP JUMPDEST SWAP2 POP POP PUSH2 0x143 JUMP JUMPDEST POP PUSH2 0x208 DUP2 DUP4 PUSH1 0x80 ADD MLOAD PUSH1 0x0 DUP2 MLOAD DUP2 LT PUSH2 0x1FB JUMPI PUSH2 0x1FA PUSH2 0x1195 JUMP JUMPDEST JUMPDEST PUSH1 0x20 MUL PUSH1 0x20 ADD ADD MLOAD PUSH2 0x699 JUMP JUMPDEST SWAP1 POP PUSH2 0x24E DUP6 PUSH1 0x0 ADD MLOAD DUP7 PUSH1 0x20 ADD MLOAD PUSH2 0x220 DUP5 PUSH2 0x761 JUMP JUMPDEST DUP6 PUSH1 0x40 ADD MLOAD PUSH2 0x232 DUP11 PUSH1 0x40 ADD MLOAD PUSH2 0x761 JUMP JUMPDEST DUP8 PUSH1 0x60 ADD MLOAD PUSH2 0x244 DUP10 PUSH1 0x0 ADD MLOAD PUSH2 0x761 JUMP JUMPDEST DUP10 PUSH1 0x20 ADD MLOAD PUSH2 0x806 JUMP JUMPDEST PUSH2 0x25E JUMPI PUSH1 0x1 SWAP4 POP POP POP POP PUSH2 0x266 JUMP JUMPDEST PUSH1 0x0 SWAP4 POP POP POP POP JUMPDEST SWAP3 SWAP2 POP POP JUMP JUMPDEST PUSH2 0x274 PUSH2 0xD29 JUMP JUMPDEST PUSH1 0x40 MLOAD DUP1 PUSH1 0x40 ADD PUSH1 0x40 MSTORE DUP1 PUSH32 0x2A1B7FC1A1853A09C4D787CDAB398B83C5D05CE684305BB8FE7A449B9A349E3B DUP2 MSTORE PUSH1 0x20 ADD PUSH31 0xB7839EB6E6D2F862F417B06562735EA557F2C25F531E4E4C4CDDA6AA5F79EB DUP2 MSTORE POP DUP2 PUSH1 0x0 ADD DUP2 SWAP1 MSTORE POP PUSH1 0x40 MLOAD DUP1 PUSH1 0x40 ADD PUSH1 0x40 MSTORE DUP1 PUSH1 0x40 MLOAD DUP1 PUSH1 0x40 ADD PUSH1 0x40 MSTORE DUP1 PUSH32 0x256CFA2E3464812AAF94ED074F9414DE028AA09BC0A0492402582A8C096DBF4D DUP2 MSTORE PUSH1 0x20 ADD PUSH32 0x2C1EFEDC443A9A7318F4487418087B976E94D614773E33CC0195B37634D69260 DUP2 MSTORE POP DUP2 MSTORE PUSH1 0x20 ADD PUSH1 0x40 MLOAD DUP1 PUSH1 0x40 ADD PUSH1 0x40 MSTORE DUP1 PUSH32 0x2460BDD95774EF75A5C29DC2AA597E07EEB6B05D380890E8F6323352068878DA DUP2 MSTORE PUSH1 0x20 ADD PUSH32 0x25DB415EC06B79726E82026E47E5E69D5CC25E35962C26DF921D61198B8548CA DUP2 MSTORE POP DUP2 MSTORE POP DUP2 PUSH1 0x20 ADD DUP2 SWAP1 MSTORE POP PUSH1 0x40 MLOAD DUP1 PUSH1 0x40 ADD PUSH1 0x40 MSTORE DUP1 PUSH1 0x40 MLOAD DUP1 PUSH1 0x40 ADD PUSH1 0x40 MSTORE DUP1 PUSH32 0x1BD51AC0CAA201944B4A2504A2F1A59BD5FF6D77374000DCD04E4B030B25966F DUP2 MSTORE PUSH1 0x20 ADD PUSH32 0x11DA977D0A94867660F065D944799F75A3F432E7D367947A037CB60D45D3C7DE DUP2 MSTORE POP DUP2 MSTORE PUSH1 0x20 ADD PUSH1 0x40 MLOAD DUP1 PUSH1 0x40 ADD PUSH1 0x40 MSTORE DUP1 PUSH32 0x269263673AC057C13CF752FF1CB289F695967BDA851EBFA3EB591316019B1B44 DUP2 MSTORE PUSH1 0x20 ADD PUSH32 0x2045BABDC5CF7A57C90C756E7657485FD95D7477F2DB8C0FCF22BBD737CD997C DUP2 MSTORE POP DUP2 MSTORE POP DUP2 PUSH1 0x40 ADD DUP2 SWAP1 MSTORE POP PUSH1 0x40 MLOAD DUP1 PUSH1 0x40 ADD PUSH1 0x40 MSTORE DUP1 PUSH1 0x40 MLOAD DUP1 PUSH1 0x40 ADD PUSH1 0x40 MSTORE DUP1 PUSH32 0x5C90C309A9962EDAB9463449D572BD8E5460C80791DC268E6C99CA9C3F73362 DUP2 MSTORE PUSH1 0x20 ADD PUSH32 0x1C95180B012D9CDAE4CA4F9C16A8DB3573BE0C704E792035029A055C3F269F13 DUP2 MSTORE POP DUP2 MSTORE PUSH1 0x20 ADD PUSH1 0x40 MLOAD DUP1 PUSH1 0x40 ADD PUSH1 0x40 MSTORE DUP1 PUSH32 0x10B288FA7B684C514FEA06B17C09C8373767371E029AA51E8FBF3850F3729710 DUP2 MSTORE PUSH1 0x20 ADD PUSH32 0xBCF0EDC70A839A26F0D734C7F26372B322A04035F5A7F8D8126D55FD2CD9977 DUP2 MSTORE POP DUP2 MSTORE POP DUP2 PUSH1 0x60 ADD DUP2 SWAP1 MSTORE POP PUSH1 0x1 PUSH8 0xFFFFFFFFFFFFFFFF DUP2 GT ISZERO PUSH2 0x53A JUMPI PUSH2 0x539 PUSH2 0xE5D JUMP JUMPDEST JUMPDEST PUSH1 0x40 MLOAD SWAP1 DUP1 DUP3 MSTORE DUP1 PUSH1 0x20 MUL PUSH1 0x20 ADD DUP3 ADD PUSH1 0x40 MSTORE DUP1 ISZERO PUSH2 0x573 JUMPI DUP2 PUSH1 0x20 ADD JUMPDEST PUSH2 0x560 PUSH2 0xD70 JUMP JUMPDEST DUP2 MSTORE PUSH1 0x20 ADD SWAP1 PUSH1 0x1 SWAP1 SUB SWAP1 DUP2 PUSH2 0x558 JUMPI SWAP1 POP JUMPDEST POP DUP2 PUSH1 0x80 ADD DUP2 SWAP1 MSTORE POP PUSH1 0x40 MLOAD DUP1 PUSH1 0x40 ADD PUSH1 0x40 MSTORE DUP1 PUSH32 0x2F4BCC16BE3BC449FFCFF599B330B9366B3E2CFBCCFA4ED6D00A89F518448C58 DUP2 MSTORE PUSH1 0x20 ADD PUSH32 0xBC3D67B338309FDC3194DC07015A5772A77CD6393A36BA849D3EBF186A0D442 DUP2 MSTORE POP DUP2 PUSH1 0x80 ADD MLOAD PUSH1 0x0 DUP2 MLOAD DUP2 LT PUSH2 0x5E9 JUMPI PUSH2 0x5E8 PUSH2 0x1195 JUMP JUMPDEST JUMPDEST PUSH1 0x20 MUL PUSH1 0x20 ADD ADD DUP2 SWAP1 MSTORE POP SWAP1 JUMP JUMPDEST PUSH2 0x5FF PUSH2 0xD70 JUMP JUMPDEST PUSH2 0x607 PUSH2 0xD8A JUMP JUMPDEST DUP4 PUSH1 0x0 ADD MLOAD DUP2 PUSH1 0x0 PUSH1 0x3 DUP2 LT PUSH2 0x620 JUMPI PUSH2 0x61F PUSH2 0x1195 JUMP JUMPDEST JUMPDEST PUSH1 0x20 MUL ADD DUP2 DUP2 MSTORE POP POP DUP4 PUSH1 0x20 ADD MLOAD DUP2 PUSH1 0x1 PUSH1 0x3 DUP2 LT PUSH2 0x642 JUMPI PUSH2 0x641 PUSH2 0x1195 JUMP JUMPDEST JUMPDEST PUSH1 0x20 MUL ADD DUP2 DUP2 MSTORE POP POP DUP3 DUP2 PUSH1 0x2 PUSH1 0x3 DUP2 LT PUSH2 0x660 JUMPI PUSH2 0x65F PUSH2 0x1195 JUMP JUMPDEST JUMPDEST PUSH1 0x20 MUL ADD DUP2 DUP2 MSTORE POP POP PUSH1 0x0 PUSH1 0x60 DUP4 PUSH1 0x80 DUP5 PUSH1 0x7 PUSH2 0x7D0 GAS SUB STATICCALL SWAP1 POP DUP1 PUSH1 0x0 DUP2 SUB PUSH2 0x686 JUMPI INVALID JUMPDEST POP DUP1 PUSH2 0x691 JUMPI PUSH1 0x0 DUP1 REVERT JUMPDEST POP POP SWAP3 SWAP2 POP POP JUMP JUMPDEST PUSH2 0x6A1 PUSH2 0xD70 JUMP JUMPDEST PUSH2 0x6A9 PUSH2 0xDAC JUMP JUMPDEST DUP4 PUSH1 0x0 ADD MLOAD DUP2 PUSH1 0x0 PUSH1 0x4 DUP2 LT PUSH2 0x6C2 JUMPI PUSH2 0x6C1 PUSH2 0x1195 JUMP JUMPDEST JUMPDEST PUSH1 0x20 MUL ADD DUP2 DUP2 MSTORE POP POP DUP4 PUSH1 0x20 ADD MLOAD DUP2 PUSH1 0x1 PUSH1 0x4 DUP2 LT PUSH2 0x6E4 JUMPI PUSH2 0x6E3 PUSH2 0x1195 JUMP JUMPDEST JUMPDEST PUSH1 0x20 MUL ADD DUP2 DUP2 MSTORE POP POP DUP3 PUSH1 0x0 ADD MLOAD DUP2 PUSH1 0x2 PUSH1 0x4 DUP2 LT PUSH2 0x706 JUMPI PUSH2 0x705 PUSH2 0x1195 JUMP JUMPDEST JUMPDEST PUSH1 0x20 MUL ADD DUP2 DUP2 MSTORE POP POP DUP3 PUSH1 0x20 ADD MLOAD DUP2 PUSH1 0x3 PUSH1 0x4 DUP2 LT PUSH2 0x728 JUMPI PUSH2 0x727 PUSH2 0x1195 JUMP JUMPDEST JUMPDEST PUSH1 0x20 MUL ADD DUP2 DUP2 MSTORE POP POP PUSH1 0x0 PUSH1 0x60 DUP4 PUSH1 0xC0 DUP5 PUSH1 0x6 PUSH2 0x7D0 GAS SUB STATICCALL SWAP1 POP DUP1 PUSH1 0x0 DUP2 SUB PUSH2 0x74E JUMPI INVALID JUMPDEST POP DUP1 PUSH2 0x759 JUMPI PUSH1 0x0 DUP1 REVERT JUMPDEST POP POP SWAP3 SWAP2 POP POP JUMP JUMPDEST PUSH2 0x769 PUSH2 0xD70 JUMP JUMPDEST PUSH1 0x0 PUSH32 0x30644E72E131A029B85045B68181585D97816A916871CA8D3C208C16D87CFD47 SWAP1 POP PUSH1 0x0 DUP4 PUSH1 0x0 ADD MLOAD EQ DUP1 ISZERO PUSH2 0x7A6 JUMPI POP PUSH1 0x0 DUP4 PUSH1 0x20 ADD MLOAD EQ JUMPDEST ISZERO PUSH2 0x7CA JUMPI PUSH1 0x40 MLOAD DUP1 PUSH1 0x40 ADD PUSH1 0x40 MSTORE DUP1 PUSH1 0x0 DUP2 MSTORE PUSH1 0x20 ADD PUSH1 0x0 DUP2 MSTORE POP SWAP2 POP POP PUSH2 0x801 JUMP JUMPDEST PUSH1 0x40 MLOAD DUP1 PUSH1 0x40 ADD PUSH1 0x40 MSTORE DUP1 DUP5 PUSH1 0x0 ADD MLOAD DUP2 MSTORE PUSH1 0x20 ADD DUP3 DUP6 PUSH1 0x20 ADD MLOAD PUSH2 0x7EF SWAP2 SWAP1 PUSH2 0x123B JUMP JUMPDEST DUP4 PUSH2 0x7FA SWAP2 SWAP1 PUSH2 0x126C JUMP JUMPDEST DUP2 MSTORE POP SWAP2 POP POP JUMPDEST SWAP2 SWAP1 POP JUMP JUMPDEST PUSH1 0x0 DUP1 PUSH1 0x4 PUSH8 0xFFFFFFFFFFFFFFFF DUP2 GT ISZERO PUSH2 0x824 JUMPI PUSH2 0x823 PUSH2 0xE5D JUMP JUMPDEST JUMPDEST PUSH1 0x40 MLOAD SWAP1 DUP1 DUP3 MSTORE DUP1 PUSH1 0x20 MUL PUSH1 0x20 ADD DUP3 ADD PUSH1 0x40 MSTORE DUP1 ISZERO PUSH2 0x85D JUMPI DUP2 PUSH1 0x20 ADD JUMPDEST PUSH2 0x84A PUSH2 0xD70 JUMP JUMPDEST DUP2 MSTORE PUSH1 0x20 ADD SWAP1 PUSH1 0x1 SWAP1 SUB SWAP1 DUP2 PUSH2 0x842 JUMPI SWAP1 POP JUMPDEST POP SWAP1 POP PUSH1 0x0 PUSH1 0x4 PUSH8 0xFFFFFFFFFFFFFFFF DUP2 GT ISZERO PUSH2 0x87D JUMPI PUSH2 0x87C PUSH2 0xE5D JUMP JUMPDEST JUMPDEST PUSH1 0x40 MLOAD SWAP1 DUP1 DUP3 MSTORE DUP1 PUSH1 0x20 MUL PUSH1 0x20 ADD DUP3 ADD PUSH1 0x40 MSTORE DUP1 ISZERO PUSH2 0x8B6 JUMPI DUP2 PUSH1 0x20 ADD JUMPDEST PUSH2 0x8A3 PUSH2 0xDCE JUMP JUMPDEST DUP2 MSTORE PUSH1 0x20 ADD SWAP1 PUSH1 0x1 SWAP1 SUB SWAP1 DUP2 PUSH2 0x89B JUMPI SWAP1 POP JUMPDEST POP SWAP1 POP DUP11 DUP3 PUSH1 0x0 DUP2 MLOAD DUP2 LT PUSH2 0x8CE JUMPI PUSH2 0x8CD PUSH2 0x1195 JUMP JUMPDEST JUMPDEST PUSH1 0x20 MUL PUSH1 0x20 ADD ADD DUP2 SWAP1 MSTORE POP DUP9 DUP3 PUSH1 0x1 DUP2 MLOAD DUP2 LT PUSH2 0x8EE JUMPI PUSH2 0x8ED PUSH2 0x1195 JUMP JUMPDEST JUMPDEST PUSH1 0x20 MUL PUSH1 0x20 ADD ADD DUP2 SWAP1 MSTORE POP DUP7 DUP3 PUSH1 0x2 DUP2 MLOAD DUP2 LT PUSH2 0x90E JUMPI PUSH2 0x90D PUSH2 0x1195 JUMP JUMPDEST JUMPDEST PUSH1 0x20 MUL PUSH1 0x20 ADD ADD DUP2 SWAP1 MSTORE POP DUP5 DUP3 PUSH1 0x3 DUP2 MLOAD DUP2 LT PUSH2 0x92E JUMPI PUSH2 0x92D PUSH2 0x1195 JUMP JUMPDEST JUMPDEST PUSH1 0x20 MUL PUSH1 0x20 ADD ADD DUP2 SWAP1 MSTORE POP DUP10 DUP2 PUSH1 0x0 DUP2 MLOAD DUP2 LT PUSH2 0x94E JUMPI PUSH2 0x94D PUSH2 0x1195 JUMP JUMPDEST JUMPDEST PUSH1 0x20 MUL PUSH1 0x20 ADD ADD DUP2 SWAP1 MSTORE POP DUP8 DUP2 PUSH1 0x1 DUP2 MLOAD DUP2 LT PUSH2 0x96E JUMPI PUSH2 0x96D PUSH2 0x1195 JUMP JUMPDEST JUMPDEST PUSH1 0x20 MUL PUSH1 0x20 ADD ADD DUP2 SWAP1 MSTORE POP DUP6 DUP2 PUSH1 0x2 DUP2 MLOAD DUP2 LT PUSH2 0x98E JUMPI PUSH2 0x98D PUSH2 0x1195 JUMP JUMPDEST JUMPDEST PUSH1 0x20 MUL PUSH1 0x20 ADD ADD DUP2 SWAP1 MSTORE POP DUP4 DUP2 PUSH1 0x3 DUP2 MLOAD DUP2 LT PUSH2 0x9AE JUMPI PUSH2 0x9AD PUSH2 0x1195 JUMP JUMPDEST JUMPDEST PUSH1 0x20 MUL PUSH1 0x20 ADD ADD DUP2 SWAP1 MSTORE POP PUSH2 0x9C3 DUP3 DUP3 PUSH2 0x9D3 JUMP JUMPDEST SWAP3 POP POP POP SWAP9 SWAP8 POP POP POP POP POP POP POP POP JUMP JUMPDEST PUSH1 0x0 DUP2 MLOAD DUP4 MLOAD EQ PUSH2 0x9E3 JUMPI PUSH1 0x0 DUP1 REVERT JUMPDEST PUSH1 0x0 DUP4 MLOAD SWAP1 POP PUSH1 0x0 PUSH1 0x6 DUP3 PUSH2 0x9F8 SWAP2 SWAP1 PUSH2 0x12A0 JUMP JUMPDEST SWAP1 POP PUSH1 0x0 DUP2 PUSH8 0xFFFFFFFFFFFFFFFF DUP2 GT ISZERO PUSH2 0xA16 JUMPI PUSH2 0xA15 PUSH2 0xE5D JUMP JUMPDEST JUMPDEST PUSH1 0x40 MLOAD SWAP1 DUP1 DUP3 MSTORE DUP1 PUSH1 0x20 MUL PUSH1 0x20 ADD DUP3 ADD PUSH1 0x40 MSTORE DUP1 ISZERO PUSH2 0xA44 JUMPI DUP2 PUSH1 0x20 ADD PUSH1 0x20 DUP3 MUL DUP1 CALLDATASIZE DUP4 CALLDATACOPY DUP1 DUP3 ADD SWAP2 POP POP SWAP1 POP JUMPDEST POP SWAP1 POP PUSH1 0x0 JUMPDEST DUP4 DUP2 LT ISZERO PUSH2 0xCC9 JUMPI DUP7 DUP2 DUP2 MLOAD DUP2 LT PUSH2 0xA65 JUMPI PUSH2 0xA64 PUSH2 0x1195 JUMP JUMPDEST JUMPDEST PUSH1 0x20 MUL PUSH1 0x20 ADD ADD MLOAD PUSH1 0x0 ADD MLOAD DUP3 PUSH1 0x0 PUSH1 0x6 DUP5 PUSH2 0xA81 SWAP2 SWAP1 PUSH2 0x12A0 JUMP JUMPDEST PUSH2 0xA8B SWAP2 SWAP1 PUSH2 0x1161 JUMP JUMPDEST DUP2 MLOAD DUP2 LT PUSH2 0xA9C JUMPI PUSH2 0xA9B PUSH2 0x1195 JUMP JUMPDEST JUMPDEST PUSH1 0x20 MUL PUSH1 0x20 ADD ADD DUP2 DUP2 MSTORE POP POP DUP7 DUP2 DUP2 MLOAD DUP2 LT PUSH2 0xABB JUMPI PUSH2 0xABA PUSH2 0x1195 JUMP JUMPDEST JUMPDEST PUSH1 0x20 MUL PUSH1 0x20 ADD ADD MLOAD PUSH1 0x20 ADD MLOAD DUP3 PUSH1 0x1 PUSH1 0x6 DUP5 PUSH2 0xAD7 SWAP2 SWAP1 PUSH2 0x12A0 JUMP JUMPDEST PUSH2 0xAE1 SWAP2 SWAP1 PUSH2 0x1161 JUMP JUMPDEST DUP2 MLOAD DUP2 LT PUSH2 0xAF2 JUMPI PUSH2 0xAF1 PUSH2 0x1195 JUMP JUMPDEST JUMPDEST PUSH1 0x20 MUL PUSH1 0x20 ADD ADD DUP2 DUP2 MSTORE POP POP DUP6 DUP2 DUP2 MLOAD DUP2 LT PUSH2 0xB11 JUMPI PUSH2 0xB10 PUSH2 0x1195 JUMP JUMPDEST JUMPDEST PUSH1 0x20 MUL PUSH1 0x20 ADD ADD MLOAD PUSH1 0x0 ADD MLOAD PUSH1 0x1 PUSH1 0x2 DUP2 LT PUSH2 0xB30 JUMPI PUSH2 0xB2F PUSH2 0x1195 JUMP JUMPDEST JUMPDEST PUSH1 0x20 MUL ADD MLOAD DUP3 PUSH1 0x2 PUSH1 0x6 DUP5 PUSH2 0xB45 SWAP2 SWAP1 PUSH2 0x12A0 JUMP JUMPDEST PUSH2 0xB4F SWAP2 SWAP1 PUSH2 0x1161 JUMP JUMPDEST DUP2 MLOAD DUP2 LT PUSH2 0xB60 JUMPI PUSH2 0xB5F PUSH2 0x1195 JUMP JUMPDEST JUMPDEST PUSH1 0x20 MUL PUSH1 0x20 ADD ADD DUP2 DUP2 MSTORE POP POP DUP6 DUP2 DUP2 MLOAD DUP2 LT PUSH2 0xB7F JUMPI PUSH2 0xB7E PUSH2 0x1195 JUMP JUMPDEST JUMPDEST PUSH1 0x20 MUL PUSH1 0x20 ADD ADD MLOAD PUSH1 0x0 ADD MLOAD PUSH1 0x0 PUSH1 0x2 DUP2 LT PUSH2 0xB9E JUMPI PUSH2 0xB9D PUSH2 0x1195 JUMP JUMPDEST JUMPDEST PUSH1 0x20 MUL ADD MLOAD DUP3 PUSH1 0x3 PUSH1 0x6 DUP5 PUSH2 0xBB3 SWAP2 SWAP1 PUSH2 0x12A0 JUMP JUMPDEST PUSH2 0xBBD SWAP2 SWAP1 PUSH2 0x1161 JUMP JUMPDEST DUP2 MLOAD DUP2 LT PUSH2 0xBCE JUMPI PUSH2 0xBCD PUSH2 0x1195 JUMP JUMPDEST JUMPDEST PUSH1 0x20 MUL PUSH1 0x20 ADD ADD DUP2 DUP2 MSTORE POP POP DUP6 DUP2 DUP2 MLOAD DUP2 LT PUSH2 0xBED JUMPI PUSH2 0xBEC PUSH2 0x1195 JUMP JUMPDEST JUMPDEST PUSH1 0x20 MUL PUSH1 0x20 ADD ADD MLOAD PUSH1 0x20 ADD MLOAD PUSH1 0x1 PUSH1 0x2 DUP2 LT PUSH2 0xC0C JUMPI PUSH2 0xC0B PUSH2 0x1195 JUMP JUMPDEST JUMPDEST PUSH1 0x20 MUL ADD MLOAD DUP3 PUSH1 0x4 PUSH1 0x6 DUP5 PUSH2 0xC21 SWAP2 SWAP1 PUSH2 0x12A0 JUMP JUMPDEST PUSH2 0xC2B SWAP2 SWAP1 PUSH2 0x1161 JUMP JUMPDEST DUP2 MLOAD DUP2 LT PUSH2 0xC3C JUMPI PUSH2 0xC3B PUSH2 0x1195 JUMP JUMPDEST JUMPDEST PUSH1 0x20 MUL PUSH1 0x20 ADD ADD DUP2 DUP2 MSTORE POP POP DUP6 DUP2 DUP2 MLOAD DUP2 LT PUSH2 0xC5B JUMPI PUSH2 0xC5A PUSH2 0x1195 JUMP JUMPDEST JUMPDEST PUSH1 0x20 MUL PUSH1 0x20 ADD ADD MLOAD PUSH1 0x20 ADD MLOAD PUSH1 0x0 PUSH1 0x2 DUP2 LT PUSH2 0xC7A JUMPI PUSH2 0xC79 PUSH2 0x1195 JUMP JUMPDEST JUMPDEST PUSH1 0x20 MUL ADD MLOAD DUP3 PUSH1 0x5 PUSH1 0x6 DUP5 PUSH2 0xC8F SWAP2 SWAP1 PUSH2 0x12A0 JUMP JUMPDEST PUSH2 0xC99 SWAP2 SWAP1 PUSH2 0x1161 JUMP JUMPDEST DUP2 MLOAD DUP2 LT PUSH2 0xCAA JUMPI PUSH2 0xCA9 PUSH2 0x1195 JUMP JUMPDEST JUMPDEST PUSH1 0x20 MUL PUSH1 0x20 ADD ADD DUP2 DUP2 MSTORE POP POP DUP1 DUP1 PUSH2 0xCC1 SWAP1 PUSH2 0x11C4 JUMP JUMPDEST SWAP2 POP POP PUSH2 0xA4A JUMP JUMPDEST POP PUSH2 0xCD2 PUSH2 0xDF4 JUMP JUMPDEST PUSH1 0x0 PUSH1 0x20 DUP3 PUSH1 0x20 DUP7 MUL PUSH1 0x20 DUP7 ADD PUSH1 0x8 PUSH2 0x7D0 GAS SUB STATICCALL SWAP1 POP DUP1 PUSH1 0x0 DUP2 SUB PUSH2 0xCF4 JUMPI INVALID JUMPDEST POP DUP1 PUSH2 0xCFF JUMPI PUSH1 0x0 DUP1 REVERT JUMPDEST PUSH1 0x0 DUP3 PUSH1 0x0 PUSH1 0x1 DUP2 LT PUSH2 0xD15 JUMPI PUSH2 0xD14 PUSH2 0x1195 JUMP JUMPDEST JUMPDEST PUSH1 0x20 MUL ADD MLOAD EQ ISZERO SWAP6 POP POP POP POP POP POP SWAP3 SWAP2 POP POP JUMP JUMPDEST PUSH1 0x40 MLOAD DUP1 PUSH1 0xA0 ADD PUSH1 0x40 MSTORE DUP1 PUSH2 0xD3C PUSH2 0xD70 JUMP JUMPDEST DUP2 MSTORE PUSH1 0x20 ADD PUSH2 0xD49 PUSH2 0xDCE JUMP JUMPDEST DUP2 MSTORE PUSH1 0x20 ADD PUSH2 0xD56 PUSH2 0xDCE JUMP JUMPDEST DUP2 MSTORE PUSH1 0x20 ADD PUSH2 0xD63 PUSH2 0xDCE JUMP JUMPDEST DUP2 MSTORE PUSH1 0x20 ADD PUSH1 0x60 DUP2 MSTORE POP SWAP1 JUMP JUMPDEST PUSH1 0x40 MLOAD DUP1 PUSH1 0x40 ADD PUSH1 0x40 MSTORE DUP1 PUSH1 0x0 DUP2 MSTORE PUSH1 0x20 ADD PUSH1 0x0 DUP2 MSTORE POP SWAP1 JUMP JUMPDEST PUSH1 0x40 MLOAD DUP1 PUSH1 0x60 ADD PUSH1 0x40 MSTORE DUP1 PUSH1 0x3 SWAP1 PUSH1 0x20 DUP3 MUL DUP1 CALLDATASIZE DUP4 CALLDATACOPY DUP1 DUP3 ADD SWAP2 POP POP SWAP1 POP POP SWAP1 JUMP JUMPDEST PUSH1 0x40 MLOAD DUP1 PUSH1 0x80 ADD PUSH1 0x40 MSTORE DUP1 PUSH1 0x4 SWAP1 PUSH1 0x20 DUP3 MUL DUP1 CALLDATASIZE DUP4 CALLDATACOPY DUP1 DUP3 ADD SWAP2 POP POP SWAP1 POP POP SWAP1 JUMP JUMPDEST PUSH1 0x40 MLOAD DUP1 PUSH1 0x40 ADD PUSH1 0x40 MSTORE DUP1 PUSH2 0xDE1 PUSH2 0xE16 JUMP JUMPDEST DUP2 MSTORE PUSH1 0x20 ADD PUSH2 0xDEE PUSH2 0xE16 JUMP JUMPDEST DUP2 MSTORE POP SWAP1 JUMP JUMPDEST PUSH1 0x40 MLOAD DUP1 PUSH1 0x20 ADD PUSH1 0x40 MSTORE DUP1 PUSH1 0x1 SWAP1 PUSH1 0x20 DUP3 MUL DUP1 CALLDATASIZE DUP4 CALLDATACOPY DUP1 DUP3 ADD SWAP2 POP POP SWAP1 POP POP SWAP1 JUMP JUMPDEST PUSH1 0x40 MLOAD DUP1 PUSH1 0x40 ADD PUSH1 0x40 MSTORE DUP1 PUSH1 0x2 SWAP1 PUSH1 0x20 DUP3 MUL DUP1 CALLDATASIZE DUP4 CALLDATACOPY DUP1 DUP3 ADD SWAP2 POP POP SWAP1 POP POP SWAP1 JUMP JUMPDEST PUSH1 0x0 PUSH1 0x40 MLOAD SWAP1 POP SWAP1 JUMP JUMPDEST PUSH1 0x0 DUP1 REVERT JUMPDEST PUSH1 0x0 DUP1 REVERT JUMPDEST PUSH1 0x0 PUSH1 0x1F NOT PUSH1 0x1F DUP4 ADD AND SWAP1 POP SWAP2 SWAP1 POP JUMP JUMPDEST PUSH32 0x4E487B7100000000000000000000000000000000000000000000000000000000 PUSH1 0x0 MSTORE PUSH1 0x41 PUSH1 0x4 MSTORE PUSH1 0x24 PUSH1 0x0 REVERT JUMPDEST PUSH2 0xE95 DUP3 PUSH2 0xE4C JUMP JUMPDEST DUP2 ADD DUP2 DUP2 LT PUSH8 0xFFFFFFFFFFFFFFFF DUP3 GT OR ISZERO PUSH2 0xEB4 JUMPI PUSH2 0xEB3 PUSH2 0xE5D JUMP JUMPDEST JUMPDEST DUP1 PUSH1 0x40 MSTORE POP POP POP JUMP JUMPDEST PUSH1 0x0 PUSH2 0xEC7 PUSH2 0xE38 JUMP JUMPDEST SWAP1 POP PUSH2 0xED3 DUP3 DUP3 PUSH2 0xE8C JUMP JUMPDEST SWAP2 SWAP1 POP JUMP JUMPDEST PUSH1 0x0 DUP2 SWAP1 POP SWAP2 SWAP1 POP JUMP JUMPDEST PUSH2 0xEEB DUP2 PUSH2 0xED8 JUMP JUMPDEST DUP2 EQ PUSH2 0xEF6 JUMPI PUSH1 0x0 DUP1 REVERT JUMPDEST POP JUMP JUMPDEST PUSH1 0x0 DUP2 CALLDATALOAD SWAP1 POP PUSH2 0xF08 DUP2 PUSH2 0xEE2 JUMP JUMPDEST SWAP3 SWAP2 POP POP JUMP JUMPDEST PUSH1 0x0 PUSH1 0x40 DUP3 DUP5 SUB SLT ISZERO PUSH2 0xF24 JUMPI PUSH2 0xF23 PUSH2 0xE47 JUMP JUMPDEST JUMPDEST PUSH2 0xF2E PUSH1 0x40 PUSH2 0xEBD JUMP JUMPDEST SWAP1 POP PUSH1 0x0 PUSH2 0xF3E DUP5 DUP3 DUP6 ADD PUSH2 0xEF9 JUMP JUMPDEST PUSH1 0x0 DUP4 ADD MSTORE POP PUSH1 0x20 PUSH2 0xF52 DUP5 DUP3 DUP6 ADD PUSH2 0xEF9 JUMP JUMPDEST PUSH1 0x20 DUP4 ADD MSTORE POP SWAP3 SWAP2 POP POP JUMP JUMPDEST PUSH1 0x0 DUP1 REVERT JUMPDEST PUSH1 0x0 PUSH8 0xFFFFFFFFFFFFFFFF DUP3 GT ISZERO PUSH2 0xF7E JUMPI PUSH2 0xF7D PUSH2 0xE5D JUMP JUMPDEST JUMPDEST PUSH1 0x20 DUP3 MUL SWAP1 POP SWAP2 SWAP1 POP JUMP JUMPDEST PUSH1 0x0 DUP1 REVERT JUMPDEST PUSH1 0x0 PUSH2 0xFA1 PUSH2 0xF9C DUP5 PUSH2 0xF63 JUMP JUMPDEST PUSH2 0xEBD JUMP JUMPDEST SWAP1 POP DUP1 PUSH1 0x20 DUP5 MUL DUP4 ADD DUP6 DUP2 GT ISZERO PUSH2 0xFBB JUMPI PUSH2 0xFBA PUSH2 0xF89 JUMP JUMPDEST JUMPDEST DUP4 JUMPDEST DUP2 DUP2 LT ISZERO PUSH2 0xFE4 JUMPI DUP1 PUSH2 0xFD0 DUP9 DUP3 PUSH2 0xEF9 JUMP JUMPDEST DUP5 MSTORE PUSH1 0x20 DUP5 ADD SWAP4 POP POP PUSH1 0x20 DUP2 ADD SWAP1 POP PUSH2 0xFBD JUMP JUMPDEST POP POP POP SWAP4 SWAP3 POP POP POP JUMP JUMPDEST PUSH1 0x0 DUP3 PUSH1 0x1F DUP4 ADD SLT PUSH2 0x1003 JUMPI PUSH2 0x1002 PUSH2 0xF5E JUMP JUMPDEST JUMPDEST PUSH1 0x2 PUSH2 0x1010 DUP5 DUP3 DUP6 PUSH2 0xF8E JUMP JUMPDEST SWAP2 POP POP SWAP3 SWAP2 POP POP JUMP JUMPDEST PUSH1 0x0 PUSH1 0x80 DUP3 DUP5 SUB SLT ISZERO PUSH2 0x102F JUMPI PUSH2 0x102E PUSH2 0xE47 JUMP JUMPDEST JUMPDEST PUSH2 0x1039 PUSH1 0x40 PUSH2 0xEBD JUMP JUMPDEST SWAP1 POP PUSH1 0x0 PUSH2 0x1049 DUP5 DUP3 DUP6 ADD PUSH2 0xFEE JUMP JUMPDEST PUSH1 0x0 DUP4 ADD MSTORE POP PUSH1 0x40 PUSH2 0x105D DUP5 DUP3 DUP6 ADD PUSH2 0xFEE JUMP JUMPDEST PUSH1 0x20 DUP4 ADD MSTORE POP SWAP3 SWAP2 POP POP JUMP JUMPDEST PUSH1 0x0 PUSH2 0x100 DUP3 DUP5 SUB SLT ISZERO PUSH2 0x1080 JUMPI PUSH2 0x107F PUSH2 0xE47 JUMP JUMPDEST JUMPDEST PUSH2 0x108A PUSH1 0x60 PUSH2 0xEBD JUMP JUMPDEST SWAP1 POP PUSH1 0x0 PUSH2 0x109A DUP5 DUP3 DUP6 ADD PUSH2 0xF0E JUMP JUMPDEST PUSH1 0x0 DUP4 ADD MSTORE POP PUSH1 0x40 PUSH2 0x10AE DUP5 DUP3 DUP6 ADD PUSH2 0x1019 JUMP JUMPDEST PUSH1 0x20 DUP4 ADD MSTORE POP PUSH1 0xC0 PUSH2 0x10C2 DUP5 DUP3 DUP6 ADD PUSH2 0xF0E JUMP JUMPDEST PUSH1 0x40 DUP4 ADD MSTORE POP SWAP3 SWAP2 POP POP JUMP JUMPDEST PUSH1 0x0 PUSH2 0x100 DUP3 DUP5 SUB SLT ISZERO PUSH2 0x10E5 JUMPI PUSH2 0x10E4 PUSH2 0xE42 JUMP JUMPDEST JUMPDEST PUSH1 0x0 PUSH2 0x10F3 DUP5 DUP3 DUP6 ADD PUSH2 0x1069 JUMP JUMPDEST SWAP2 POP POP SWAP3 SWAP2 POP POP JUMP JUMPDEST PUSH1 0x0 DUP2 ISZERO ISZERO SWAP1 POP SWAP2 SWAP1 POP JUMP JUMPDEST PUSH2 0x1111 DUP2 PUSH2 0x10FC JUMP JUMPDEST DUP3 MSTORE POP POP JUMP JUMPDEST PUSH1 0x0 PUSH1 0x20 DUP3 ADD SWAP1 POP PUSH2 0x112C PUSH1 0x0 DUP4 ADD DUP5 PUSH2 0x1108 JUMP JUMPDEST SWAP3 SWAP2 POP POP JUMP JUMPDEST PUSH32 0x4E487B7100000000000000000000000000000000000000000000000000000000 PUSH1 0x0 MSTORE PUSH1 0x11 PUSH1 0x4 MSTORE PUSH1 0x24 PUSH1 0x0 REVERT JUMPDEST PUSH1 0x0 PUSH2 0x116C DUP3 PUSH2 0xED8 JUMP JUMPDEST SWAP2 POP PUSH2 0x1177 DUP4 PUSH2 0xED8 JUMP JUMPDEST SWAP3 POP DUP3 DUP3 ADD SWAP1 POP DUP1 DUP3 GT ISZERO PUSH2 0x118F JUMPI PUSH2 0x118E PUSH2 0x1132 JUMP JUMPDEST JUMPDEST SWAP3 SWAP2 POP POP JUMP JUMPDEST PUSH32 0x4E487B7100000000000000000000000000000000000000000000000000000000 PUSH1 0x0 MSTORE PUSH1 0x32 PUSH1 0x4 MSTORE PUSH1 0x24 PUSH1 0x0 REVERT JUMPDEST PUSH1 0x0 PUSH2 0x11CF DUP3 PUSH2 0xED8 JUMP JUMPDEST SWAP2 POP PUSH32 0xFFFFFFFFFFFFFFFFFFFFFFFFFFFFFFFFFFFFFFFFFFFFFFFFFFFFFFFFFFFFFFFF DUP3 SUB PUSH2 0x1201 JUMPI PUSH2 0x1200 PUSH2 0x1132 JUMP JUMPDEST JUMPDEST PUSH1 0x1 DUP3 ADD SWAP1 POP SWAP2 SWAP1 POP JUMP JUMPDEST PUSH32 0x4E487B7100000000000000000000000000000000000000000000000000000000 PUSH1 0x0 MSTORE PUSH1 0x12 PUSH1 0x4 MSTORE PUSH1 0x24 PUSH1 0x0 REVERT JUMPDEST PUSH1 0x0 PUSH2 0x1246 DUP3 PUSH2 0xED8 JUMP JUMPDEST SWAP2 POP PUSH2 0x1251 DUP4 PUSH2 0xED8 JUMP JUMPDEST SWAP3 POP DUP3 PUSH2 0x1261 JUMPI PUSH2 0x1260 PUSH2 0x120C JUMP JUMPDEST JUMPDEST DUP3 DUP3 MOD SWAP1 POP SWAP3 SWAP2 POP POP JUMP JUMPDEST PUSH1 0x0 PUSH2 0x1277 DUP3 PUSH2 0xED8 JUMP JUMPDEST SWAP2 POP PUSH2 0x1282 DUP4 PUSH2 0xED8 JUMP JUMPDEST SWAP3 POP DUP3 DUP3 SUB SWAP1 POP DUP2 DUP2 GT ISZERO PUSH2 0x129A JUMPI PUSH2 0x1299 PUSH2 0x1132 JUMP JUMPDEST JUMPDEST SWAP3 SWAP2 POP POP JUMP JUMPDEST PUSH1 0x0 PUSH2 0x12AB DUP3 PUSH2 0xED8 JUMP JUMPDEST SWAP2 POP PUSH2 0x12B6 DUP4 PUSH2 0xED8 JUMP JUMPDEST SWAP3 POP DUP3 DUP3 MUL PUSH2 0x12C4 DUP2 PUSH2 0xED8 JUMP JUMPDEST SWAP2 POP DUP3 DUP3 DIV DUP5 EQ DUP4 ISZERO OR PUSH2 0x12DB JUMPI PUSH2 0x12DA PUSH2 0x1132 JUMP JUMPDEST JUMPDEST POP SWAP3 SWAP2 POP POP JUMP INVALID LOG2 PUSH5 0x6970667358 0x22 SLT KECCAK256 0x29 PUSH24 0xBFA14123978D293C837B442C86BCA9200047A8437D08BE18 0xF 0x5D 0x25 MSTORE8 0x26 0x5D PUSH5 0x736F6C6343 STOP ADDMOD SLT STOP CALLER "
				},
				"gasEstimates": {
					"creation": {
						"codeDepositCost": "977600",
						"executionCost": "1014",
						"totalCost": "978614"
					},
					"external": {
						"verifyTx(((uint256,uint256),(uint256[2],uint256[2]),(uint256,uint256)))": "infinite"
					},
					"internal": {
						"verify(uint256[] memory,struct Verifier.Proof memory)": "infinite",
						"verifyingKey()": "infinite"
					}
				},
				"methodIdentifiers": {
					"verifyTx(((uint256,uint256),(uint256[2],uint256[2]),(uint256,uint256)))": "f6af0311"
				}
			},
			"storageLayout": {
				"storage": [],
				"types": null
			},
			"userdoc": {
				"kind": "user",
				"methods": {},
				"version": 1
			}
		}
	}
}