{
	"data": {
		"bytecode": {
			"linkReferences": {},
			"object": "608060405234801561001057600080fd5b50611318806100206000396000f3fe608060405234801561001057600080fd5b506004361061002b5760003560e01c8063f6af031114610030575b600080fd5b61004a600480360381019061004591906110ce565b610060565b6040516100579190611117565b60405180910390f35b600080600067ffffffffffffffff81111561007e5761007d610e5d565b5b6040519080825280602002602001820160405280156100ac5781602001602082028036833780820191505090505b50905060006100bb82856100d5565b036100ca5760019150506100d0565b60009150505b919050565b6000807f30644e72e131a029b85045b68181585d2833e84879b9709143e1f593f00000019050600061010561026c565b90508060800151516001865161011b9190611161565b1461012557600080fd5b60006040518060400160405280600081526020016000815250905060005b86518110156101de57838782815181106101605761015f611195565b5b60200260200101511061017257600080fd5b6101c9826101c4856080015160018561018b9190611161565b8151811061019c5761019b611195565b5b60200260200101518a85815181106101b7576101b6611195565b5b60200260200101516105f7565b610699565b915080806101d6906111c4565b915050610143565b506102088183608001516000815181106101fb576101fa611195565b5b6020026020010151610699565b905061024e8560000151866020015161022084610761565b85604001516102328a60400151610761565b87606001516102448960000151610761565b8960200151610806565b61025e5760019350505050610266565b600093505050505b92915050565b610274610d29565b60405180604001604052807f2a1b7fc1a1853a09c4d787cdab398b83c5d05ce684305bb8fe7a449b9a349e3b81526020017eb7839eb6e6d2f862f417b06562735ea557f2c25f531e4e4c4cdda6aa5f79eb8152508160000181905250604051806040016040528060405180604001604052807f256cfa2e3464812aaf94ed074f9414de028aa09bc0a0492402582a8c096dbf4d81526020017f2c1efedc443a9a7318f4487418087b976e94d614773e33cc0195b37634d69260815250815260200160405180604001604052807f2460bdd95774ef75a5c29dc2aa597e07eeb6b05d380890e8f6323352068878da81526020017f25db415ec06b79726e82026e47e5e69d5cc25e35962c26df921d61198b8548ca8152508152508160200181905250604051806040016040528060405180604001604052807f1bd51ac0caa201944b4a2504a2f1a59bd5ff6d77374000dcd04e4b030b25966f81526020017f11da977d0a94867660f065d944799f75a3f432e7d367947a037cb60d45d3c7de815250815260200160405180604001604052807f269263673ac057c13cf752ff1cb289f695967bda851ebfa3eb591316019b1b4481526020017f2045babdc5cf7a57c90c756e7657485fd95d7477f2db8c0fcf22bbd737cd997c8152508152508160400181905250604051806040016040528060405180604001604052807f05c90c309a9962edab9463449d572bd8e5460c80791dc268e6c99ca9c3f7336281526020017f1c95180b012d9cdae4ca4f9c16a8db3573be0c704e792035029a055c3f269f13815250815260200160405180604001604052807f10b288fa7b684c514fea06b17c09c8373767371e029aa51e8fbf3850f372971081526020017f0bcf0edc70a839a26f0d734c7f26372b322a04035f5a7f8d8126d55fd2cd99778152508152508160600181905250600167ffffffffffffffff81111561053a57610539610e5d565b5b60405190808252806020026020018201604052801561057357816020015b610560610d70565b8152602001906001900390816105585790505b50816080018190525060405180604001604052807f2f4bcc16be3bc449ffcff599b330b9366b3e2cfbccfa4ed6d00a89f518448c5881526020017f0bc3d67b338309fdc3194dc07015a5772a77cd6393a36ba849d3ebf186a0d44281525081608001516000815181106105e9576105e8611195565b5b602002602001018190525090565b6105ff610d70565b610607610d8a565b8360000151816000600381106106205761061f611195565b5b60200201818152505083602001518160016003811061064257610641611195565b5b60200201818152505082816002600381106106605761065f611195565b5b602002018181525050600060608360808460076107d05a03fa9050806000810361068657fe5b508061069157600080fd5b505092915050565b6106a1610d70565b6106a9610dac565b8360000151816000600481106106c2576106c1611195565b5b6020020181815250508360200151816001600481106106e4576106e3611195565b5b60200201818152505082600001518160026004811061070657610705611195565b5b60200201818152505082602001518160036004811061072857610727611195565b5b602002018181525050600060608360c08460066107d05a03fa9050806000810361074e57fe5b508061075957600080fd5b505092915050565b610769610d70565b60007f30644e72e131a029b85045b68181585d97816a916871ca8d3c208c16d87cfd479050600083600001511480156107a6575060008360200151145b156107ca576040518060400160405280600081526020016000815250915050610801565b6040518060400160405280846000015181526020018285602001516107ef919061123b565b836107fa919061126c565b8152509150505b919050565b600080600467ffffffffffffffff81111561082457610823610e5d565b5b60405190808252806020026020018201604052801561085d57816020015b61084a610d70565b8152602001906001900390816108425790505b5090506000600467ffffffffffffffff81111561087d5761087c610e5d565b5b6040519080825280602002602001820160405280156108b657816020015b6108a3610dce565b81526020019060019003908161089b5790505b5090508a826000815181106108ce576108cd611195565b5b602002602001018190525088826001815181106108ee576108ed611195565b5b6020026020010181905250868260028151811061090e5761090d611195565b5b6020026020010181905250848260038151811061092e5761092d611195565b5b6020026020010181905250898160008151811061094e5761094d611195565b5b6020026020010181905250878160018151811061096e5761096d611195565b5b6020026020010181905250858160028151811061098e5761098d611195565b5b602002602001018190525083816003815181106109ae576109ad611195565b5b60200260200101819052506109c382826109d3565b9250505098975050505050505050565b600081518351146109e357600080fd5b60008351905060006006826109f891906112a0565b905060008167ffffffffffffffff811115610a1657610a15610e5d565b5b604051908082528060200260200182016040528015610a445781602001602082028036833780820191505090505b50905060005b83811015610cc957868181518110610a6557610a64611195565b5b602002602001015160000151826000600684610a8191906112a0565b610a8b9190611161565b81518110610a9c57610a9b611195565b5b602002602001018181525050868181518110610abb57610aba611195565b5b602002602001015160200151826001600684610ad791906112a0565b610ae19190611161565b81518110610af257610af1611195565b5b602002602001018181525050858181518110610b1157610b10611195565b5b602002602001015160000151600160028110610b3057610b2f611195565b5b6020020151826002600684610b4591906112a0565b610b4f9190611161565b81518110610b6057610b5f611195565b5b602002602001018181525050858181518110610b7f57610b7e611195565b5b602002602001015160000151600060028110610b9e57610b9d611195565b5b6020020151826003600684610bb391906112a0565b610bbd9190611161565b81518110610bce57610bcd611195565b5b602002602001018181525050858181518110610bed57610bec611195565b5b602002602001015160200151600160028110610c0c57610c0b611195565b5b6020020151826004600684610c2191906112a0565b610c2b9190611161565b81518110610c3c57610c3b611195565b5b602002602001018181525050858181518110610c5b57610c5a611195565b5b602002602001015160200151600060028110610c7a57610c79611195565b5b6020020151826005600684610c8f91906112a0565b610c999190611161565b81518110610caa57610ca9611195565b5b6020026020010181815250508080610cc1906111c4565b915050610a4a565b50610cd2610df4565b6000602082602086026020860160086107d05a03fa90508060008103610cf457fe5b5080610cff57600080fd5b600082600060018110610d1557610d14611195565b5b602002015114159550505050505092915050565b6040518060a00160405280610d3c610d70565b8152602001610d49610dce565b8152602001610d56610dce565b8152602001610d63610dce565b8152602001606081525090565b604051806040016040528060008152602001600081525090565b6040518060600160405280600390602082028036833780820191505090505090565b6040518060800160405280600490602082028036833780820191505090505090565b6040518060400160405280610de1610e16565b8152602001610dee610e16565b81525090565b6040518060200160405280600190602082028036833780820191505090505090565b6040518060400160405280600290602082028036833780820191505090505090565b6000604051905090565b600080fd5b600080fd5b6000601f19601f8301169050919050565b7f4e487b7100000000000000000000000000000000000000000000000000000000600052604160045260246000fd5b610e9582610e4c565b810181811067ffffffffffffffff82111715610eb457610eb3610e5d565b5b80604052505050565b6000610ec7610e38565b9050610ed38282610e8c565b919050565b6000819050919050565b610eeb81610ed8565b8114610ef657600080fd5b50565b600081359050610f0881610ee2565b92915050565b600060408284031215610f2457610f23610e47565b5b610f2e6040610ebd565b90506000610f3e84828501610ef9565b6000830152506020610f5284828501610ef9565b60208301525092915050565b600080fd5b600067ffffffffffffffff821115610f7e57610f7d610e5d565b5b602082029050919050565b600080fd5b6000610fa1610f9c84610f63565b610ebd565b90508060208402830185811115610fbb57610fba610f89565b5b835b81811015610fe45780610fd08882610ef9565b845260208401935050602081019050610fbd565b5050509392505050565b600082601f83011261100357611002610f5e565b5b6002611010848285610f8e565b91505092915050565b60006080828403121561102f5761102e610e47565b5b6110396040610ebd565b9050600061104984828501610fee565b600083015250604061105d84828501610fee565b60208301525092915050565b600061010082840312156110805761107f610e47565b5b61108a6060610ebd565b9050600061109a84828501610f0e565b60008301525060406110ae84828501611019565b60208301525060c06110c284828501610f0e565b60408301525092915050565b600061010082840312156110e5576110e4610e42565b5b60006110f384828501611069565b91505092915050565b60008115159050919050565b611111816110fc565b82525050565b600060208201905061112c6000830184611108565b92915050565b7f4e487b7100000000000000000000000000000000000000000000000000000000600052601160045260246000fd5b600061116c82610ed8565b915061117783610ed8565b925082820190508082111561118f5761118e611132565b5b92915050565b7f4e487b7100000000000000000000000000000000000000000000000000000000600052603260045260246000fd5b60006111cf82610ed8565b91507fffffffffffffffffffffffffffffffffffffffffffffffffffffffffffffffff820361120157611200611132565b5b600182019050919050565b7f4e487b7100000000000000000000000000000000000000000000000000000000600052601260045260246000fd5b600061124682610ed8565b915061125183610ed8565b9250826112615761126061120c565b5b828206905092915050565b600061127782610ed8565b915061128283610ed8565b925082820390508181111561129a57611299611132565b5b92915050565b60006112ab82610ed8565b91506112b683610ed8565b92508282026112c481610ed8565b915082820484148315176112db576112da611132565b5b509291505056fea26469706673582212202977bfa14123978d293c837b442c86bca9200047a8437d08be180f5d2553265d64736f6c63430008120033",
			"opcodes": "PUSH1 0x80 PUSH1 0x40 MSTORE CALLVALUE DUP1 ISZERO PUSH2 0x10 JUMPI PUSH1 0x0 DUP1 REVERT JUMPDEST POP PUSH2 0x1318 DUP1 PUSH2 0x20 PUSH1 0x0 CODECOPY PUSH1 0x0 RETURN INVALID PUSH1 0x80 PUSH1 0x40 MSTORE CALLVALUE DUP1 ISZERO PUSH2 0x10 JUMPI PUSH1 0x0 DUP1 REVERT JUMPDEST POP PUSH1 0x4 CALLDATASIZE LT PUSH2 0x2B JUMPI PUSH1 0x0 CALLDATALOAD PUSH1 0xE0 SHR DUP1 PUSH4 0xF6AF0311 EQ PUSH2 0x30 JUMPI JUMPDEST PUSH1 0x0 DUP1 REVERT JUMPDEST PUSH2 0x4A PUSH1 0x4 DUP1 CALLDATASIZE SUB DUP2 ADD SWAP1 PUSH2 0x45 SWAP2 SWAP1 PUSH2 0x10CE JUMP JUMPDEST PUSH2 0x60 JUMP JUMPDEST PUSH1 0x40 MLOAD PUSH2 0x57 SWAP2 SWAP1 PUSH2 0x1117 JUMP JUMPDEST PUSH1 0x40 MLOAD DUP1 SWAP2 SUB SWAP1 RETURN JUMPDEST PUSH1 0x0 DUP1 PUSH1 0x0 PUSH8 0xFFFFFFFFFFFFFFFF DUP2 GT ISZERO PUSH2 0x7E JUMPI PUSH2 0x7D PUSH2 0xE5D JUMP JUMPDEST JUMPDEST PUSH1 0x40 MLOAD SWAP1 DUP1 DUP3 MSTORE DUP1 PUSH1 0x20 MUL PUSH1 0x20 ADD DUP3 ADD PUSH1 0x40 MSTORE DUP1 ISZERO PUSH2 0xAC JUMPI DUP2 PUSH1 0x20 ADD PUSH1 0x20 DUP3 MUL DUP1 CALLDATASIZE DUP4 CALLDATACOPY DUP1 DUP3 ADD SWAP2 POP POP SWAP1 POP JUMPDEST POP SWAP1 POP PUSH1 0x0 PUSH2 0xBB DUP3 DUP6 PUSH2 0xD5 JUMP JUMPDEST SUB PUSH2 0xCA JUMPI PUSH1 0x1 SWAP2 POP POP PUSH2 0xD0 JUMP JUMPDEST PUSH1 0x0 SWAP2 POP POP JUMPDEST SWAP2 SWAP1 POP JUMP JUMPDEST PUSH1 0x0 DUP1 PUSH32 0x30644E72E131A029B85045B68181585D2833E84879B9709143E1F593F0000001 SWAP1 POP PUSH1 0x0 PUSH2 0x105 PUSH2 0x26C JUMP JUMPDEST SWAP1 POP DUP1 PUSH1 0x80 ADD MLOAD MLOAD PUSH1 0x1 DUP7 MLOAD PUSH2 0x11B SWAP2 SWAP1 PUSH2 0x1161 JUMP JUMPDEST EQ PUSH2 0x125 JUMPI PUSH1 0x0 DUP1 REVERT JUMPDEST PUSH1 0x0 PUSH1 0x40 MLOAD DUP1 PUSH1 0x40 ADD PUSH1 0x40 MSTORE DUP1 PUSH1 0x0 DUP2 MSTORE PUSH1 0x20 ADD PUSH1 0x0 DUP2 MSTORE POP SWAP1 POP PUSH1 0x0 JUMPDEST DUP7 MLOAD DUP2 LT ISZERO PUSH2 0x1DE JUMPI DUP4 DUP8 DUP3 DUP2 MLOAD DUP2 LT PUSH2 0x160 JUMPI PUSH2 0x15F PUSH2 0x1195 JUMP JUMPDEST JUMPDEST PUSH1 0x20 MUL PUSH1 0x20 ADD ADD MLOAD LT PUSH2 0x172 JUMPI PUSH1 0x0 DUP1 REVERT JUMPDEST PUSH2 0x1C9 DUP3 PUSH2 0x1C4 DUP6 PUSH1 0x80 ADD MLOAD PUSH1 0x1 DUP6 PUSH2 0x18B SWAP2 SWAP1 PUSH2 0x1161 JUMP JUMPDEST DUP2 MLOAD DUP2 LT PUSH2 0x19C JUMPI PUSH2 0x19B PUSH2 0x1195 JUMP JUMPDEST JUMPDEST PUSH1 0x20 MUL PUSH1 0x20 ADD ADD MLOAD DUP11 DUP6 DUP2 MLOAD DUP2 LT PUSH2 0x1B7 JUMPI PUSH2 0x1B6 PUSH2 0x1195 JUMP JUMPDEST JUMPDEST PUSH1 0x20 MUL PUSH1 0x20 ADD ADD MLOAD PUSH2 0x5F7 JUMP JUMPDEST PUSH2 0x699 JUMP JUMPDEST SWAP2 POP DUP1 DUP1 PUSH2 0x1D6 SWAP1 PUSH2 0x11C4 JUMP JUMPDEST SWAP2 POP POP PUSH2 0x143 JUMP JUMPDEST POP PUSH2 0x208 DUP2 DUP4 PUSH1 0x80 ADD MLOAD PUSH1 0x0 DUP2 MLOAD DUP2 LT PUSH2 0x1FB JUMPI PUSH2 0x1FA PUSH2 0x1195 JUMP JUMPDEST JUMPDEST PUSH1 0x20 MUL PUSH1 0x20 ADD ADD MLOAD PUSH2 0x699 JUMP JUMPDEST SWAP1 POP PUSH2 0x24E DUP6 PUSH1 0x0 ADD MLOAD DUP7 PUSH1 0x20 ADD MLOAD PUSH2 0x220 DUP5 PUSH2 0x761 JUMP JUMPDEST DUP6 PUSH1 0x40 ADD MLOAD PUSH2 0x232 DUP11 PUSH1 0x40 ADD MLOAD PUSH2 0x761 JUMP JUMPDEST DUP8 PUSH1 0x60 ADD MLOAD PUSH2 0x244 DUP10 PUSH1 0x0 ADD MLOAD PUSH2 0x761 JUMP JUMPDEST DUP10 PUSH1 0x20 ADD MLOAD PUSH2 0x806 JUMP JUMPDEST PUSH2 0x25E JUMPI PUSH1 0x1 SWAP4 POP POP POP POP PUSH2 0x266 JUMP JUMPDEST PUSH1 0x0 SWAP4 POP POP POP POP JUMPDEST SWAP3 SWAP2 POP POP JUMP JUMPDEST PUSH2 0x274 PUSH2 0xD29 JUMP JUMPDEST PUSH1 0x40 MLOAD DUP1 PUSH1 0x40 ADD PUSH1 0x40 MSTORE DUP1 PUSH32 0x2A1B7FC1A1853A09C4D787CDAB398B83C5D05CE684305BB8FE7A449B9A349E3B DUP2 MSTORE PUSH1 0x20 ADD PUSH31 0xB7839EB6E6D2F862F417B06562735EA557F2C25F531E4E4C4CDDA6AA5F79EB DUP2 MSTORE POP DUP2 PUSH1 0x0 ADD DUP2 SWAP1 MSTORE POP PUSH1 0x40 MLOAD DUP1 PUSH1 0x40 ADD PUSH1 0x40 MSTORE DUP1 PUSH1 0x40 MLOAD DUP1 PUSH1 0x40 ADD PUSH1 0x40 MSTORE DUP1 PUSH32 0x256CFA2E3464812AAF94ED074F9414DE028AA09BC0A0492402582A8C096DBF4D DUP2 MSTORE PUSH1 0x20 ADD PUSH32 0x2C1EFEDC443A9A7318F4487418087B976E94D614773E33CC0195B37634D69260 DUP2 MSTORE POP DUP2 MSTORE PUSH1 0x20 ADD PUSH1 0x40 MLOAD DUP1 PUSH1 0x40 ADD PUSH1 0x40 MSTORE DUP1 PUSH32 0x2460BDD95774EF75A5C29DC2AA597E07EEB6B05D380890E8F6323352068878DA DUP2 MSTORE PUSH1 0x20 ADD PUSH32 0x25DB415EC06B79726E82026E47E5E69D5CC25E35962C26DF921D61198B8548CA DUP2 MSTORE POP DUP2 MSTORE POP DUP2 PUSH1 0x20 ADD DUP2 SWAP1 MSTORE POP PUSH1 0x40 MLOAD DUP1 PUSH1 0x40 ADD PUSH1 0x40 MSTORE DUP1 PUSH1 0x40 MLOAD DUP1 PUSH1 0x40 ADD PUSH1 0x40 MSTORE DUP1 PUSH32 0x1BD51AC0CAA201944B4A2504A2F1A59BD5FF6D77374000DCD04E4B030B25966F DUP2 MSTORE PUSH1 0x20 ADD PUSH32 0x11DA977D0A94867660F065D944799F75A3F432E7D367947A037CB60D45D3C7DE DUP2 MSTORE POP DUP2 MSTORE PUSH1 0x20 ADD PUSH1 0x40 MLOAD DUP1 PUSH1 0x40 ADD PUSH1 0x40 MSTORE DUP1 PUSH32 0x269263673AC057C13CF752FF1CB289F695967BDA851EBFA3EB591316019B1B44 DUP2 MSTORE PUSH1 0x20 ADD PUSH32 0x2045BABDC5CF7A57C90C756E7657485FD95D7477F2DB8C0FCF22BBD737CD997C DUP2 MSTORE POP DUP2 MSTORE POP DUP2 PUSH1 0x40 ADD DUP2 SWAP1 MSTORE POP PUSH1 0x40 MLOAD DUP1 PUSH1 0x40 ADD PUSH1 0x40 MSTORE DUP1 PUSH1 0x40 MLOAD DUP1 PUSH1 0x40 ADD PUSH1 0x40 MSTORE DUP1 PUSH32 0x5C90C309A9962EDAB9463449D572BD8E5460C80791DC268E6C99CA9C3F73362 DUP2 MSTORE PUSH1 0x20 ADD PUSH32 0x1C95180B012D9CDAE4CA4F9C16A8DB3573BE0C704E792035029A055C3F269F13 DUP2 MSTORE POP DUP2 MSTORE PUSH1 0x20 ADD PUSH1 0x40 MLOAD DUP1 PUSH1 0x40 ADD PUSH1 0x40 MSTORE DUP1 PUSH32 0x10B288FA7B684C514FEA06B17C09C8373767371E029AA51E8FBF3850F3729710 DUP2 MSTORE PUSH1 0x20 ADD PUSH32 0xBCF0EDC70A839A26F0D734C7F26372B322A04035F5A7F8D8126D55FD2CD9977 DUP2 MSTORE POP DUP2 MSTORE POP DUP2 PUSH1 0x60 ADD DUP2 SWAP1 MSTORE POP PUSH1 0x1 PUSH8 0xFFFFFFFFFFFFFFFF DUP2 GT ISZERO PUSH2 0x53A JUMPI PUSH2 0x539 PUSH2 0xE5D JUMP JUMPDEST JUMPDEST PUSH1 0x40 MLOAD SWAP1 DUP1 DUP3 MSTORE DUP1 PUSH1 0x20 MUL PUSH1 0x20 ADD DUP3 ADD PUSH1 0x40 MSTORE DUP1 ISZERO PUSH2 0x573 JUMPI DUP2 PUSH1 0x20 ADD JUMPDEST PUSH2 0x560 PUSH2 0xD70 JUMP JUMPDEST DUP2 MSTORE PUSH1 0x20 ADD SWAP1 PUSH1 0x1 SWAP1 SUB SWAP1 DUP2 PUSH2 0x558 JUMPI SWAP1 POP JUMPDEST POP DUP2 PUSH1 0x80 ADD DUP2 SWAP1 MSTORE POP PUSH1 0x40 MLOAD DUP1 PUSH1 0x40 ADD PUSH1 0x40 MSTORE DUP1 PUSH32 0x2F4BCC16BE3BC449FFCFF599B330B9366B3E2CFBCCFA4ED6D00A89F518448C58 DUP2 MSTORE PUSH1 0x20 ADD PUSH32 0xBC3D67B338309FDC3194DC07015A5772A77CD6393A36BA849D3EBF186A0D442 DUP2 MSTORE POP DUP2 PUSH1 0x80 ADD MLOAD PUSH1 0x0 DUP2 MLOAD DUP2 LT PUSH2 0x5E9 JUMPI PUSH2 0x5E8 PUSH2 0x1195 JUMP JUMPDEST JUMPDEST PUSH1 0x20 MUL PUSH1 0x20 ADD ADD DUP2 SWAP1 MSTORE POP SWAP1 JUMP JUMPDEST PUSH2 0x5FF PUSH2 0xD70 JUMP JUMPDEST PUSH2 0x607 PUSH2 0xD8A JUMP JUMPDEST DUP4 PUSH1 0x0 ADD MLOAD DUP2 PUSH1 0x0 PUSH1 0x3 DUP2 LT PUSH2 0x620 JUMPI PUSH2 0x61F PUSH2 0x1195 JUMP JUMPDEST JUMPDEST PUSH1 0x20 MUL ADD DUP2 DUP2 MSTORE POP POP DUP4 PUSH1 0x20 ADD MLOAD DUP2 PUSH1 0x1 PUSH1 0x3 DUP2 LT PUSH2 0x642 JUMPI PUSH2 0x641 PUSH2 0x1195 JUMP JUMPDEST JUMPDEST PUSH1 0x20 MUL ADD DUP2 DUP2 MSTORE POP POP DUP3 DUP2 PUSH1 0x2 PUSH1 0x3 DUP2 LT PUSH2 0x660 JUMPI PUSH2 0x65F PUSH2 0x1195 JUMP JUMPDEST JUMPDEST PUSH1 0x20 MUL ADD DUP2 DUP2 MSTORE POP POP PUSH1 0x0 PUSH1 0x60 DUP4 PUSH1 0x80 DUP5 PUSH1 0x7 PUSH2 0x7D0 GAS SUB STATICCALL SWAP1 POP DUP1 PUSH1 0x0 DUP2 SUB PUSH2 0x686 JUMPI INVALID JUMPDEST POP DUP1 PUSH2 0x691 JUMPI PUSH1 0x0 DUP1 REVERT JUMPDEST POP POP SWAP3 SWAP2 POP POP JUMP JUMPDEST PUSH2 0x6A1 PUSH2 0xD70 JUMP JUMPDEST PUSH2 0x6A9 PUSH2 0xDAC JUMP JUMPDEST DUP4 PUSH1 0x0 ADD MLOAD DUP2 PUSH1 0x0 PUSH1 0x4 DUP2 LT PUSH2 0x6C2 JUMPI PUSH2 0x6C1 PUSH2 0x1195 JUMP JUMPDEST JUMPDEST PUSH1 0x20 MUL ADD DUP2 DUP2 MSTORE POP POP DUP4 PUSH1 0x20 ADD MLOAD DUP2 PUSH1 0x1 PUSH1 0x4 DUP2 LT PUSH2 0x6E4 JUMPI PUSH2 0x6E3 PUSH2 0x1195 JUMP JUMPDEST JUMPDEST PUSH1 0x20 MUL ADD DUP2 DUP2 MSTORE POP POP DUP3 PUSH1 0x0 ADD MLOAD DUP2 PUSH1 0x2 PUSH1 0x4 DUP2 LT PUSH2 0x706 JUMPI PUSH2 0x705 PUSH2 0x1195 JUMP JUMPDEST JUMPDEST PUSH1 0x20 MUL ADD DUP2 DUP2 MSTORE POP POP DUP3 PUSH1 0x20 ADD MLOAD DUP2 PUSH1 0x3 PUSH1 0x4 DUP2 LT PUSH2 0x728 JUMPI PUSH2 0x727 PUSH2 0x1195 JUMP JUMPDEST JUMPDEST PUSH1 0x20 MUL ADD DUP2 DUP2 MSTORE POP POP PUSH1 0x0 PUSH1 0x60 DUP4 PUSH1 0xC0 DUP5 PUSH1 0x6 PUSH2 0x7D0 GAS SUB STATICCALL SWAP1 POP DUP1 PUSH1 0x0 DUP2 SUB PUSH2 0x74E JUMPI INVALID JUMPDEST POP DUP1 PUSH2 0x759 JUMPI PUSH1 0x0 DUP1 REVERT JUMPDEST POP POP SWAP3 SWAP2 POP POP JUMP JUMPDEST PUSH2 0x769 PUSH2 0xD70 JUMP JUMPDEST PUSH1 0x0 PUSH32 0x30644E72E131A029B85045B68181585D97816A916871CA8D3C208C16D87CFD47 SWAP1 POP PUSH1 0x0 DUP4 PUSH1 0x0 ADD MLOAD EQ DUP1 ISZERO PUSH2 0x7A6 JUMPI POP PUSH1 0x0 DUP4 PUSH1 0x20 ADD MLOAD EQ JUMPDEST ISZERO PUSH2 0x7CA JUMPI PUSH1 0x40 MLOAD DUP1 PUSH1 0x40 ADD PUSH1 0x40 MSTORE DUP1 PUSH1 0x0 DUP2 MSTORE PUSH1 0x20 ADD PUSH1 0x0 DUP2 MSTORE POP SWAP2 POP POP PUSH2 0x801 JUMP JUMPDEST PUSH1 0x40 MLOAD DUP1 PUSH1 0x40 ADD PUSH1 0x40 MSTORE DUP1 DUP5 PUSH1 0x0 ADD MLOAD DUP2 MSTORE PUSH1 0x20 ADD DUP3 DUP6 PUSH1 0x20 ADD MLOAD PUSH2 0x7EF SWAP2 SWAP1 PUSH2 0x123B JUMP JUMPDEST DUP4 PUSH2 0x7FA SWAP2 SWAP1 PUSH2 0x126C JUMP JUMPDEST DUP2 MSTORE POP SWAP2 POP POP JUMPDEST SWAP2 SWAP1 POP JUMP JUMPDEST PUSH1 0x0 DUP1 PUSH1 0x4 PUSH8 0xFFFFFFFFFFFFFFFF DUP2 GT ISZERO PUSH2 0x824 JUMPI PUSH2 0x823 PUSH2 0xE5D JUMP JUMPDEST JUMPDEST PUSH1 0x40 MLOAD SWAP1 DUP1 DUP3 MSTORE DUP1 PUSH1 0x20 MUL PUSH1 0x20 ADD DUP3 ADD PUSH1 0x40 MSTORE DUP1 ISZERO PUSH2 0x85D JUMPI DUP2 PUSH1 0x20 ADD JUMPDEST PUSH2 0x84A PUSH2 0xD70 JUMP JUMPDEST DUP2 MSTORE PUSH1 0x20 ADD SWAP1 PUSH1 0x1 SWAP1 SUB SWAP1 DUP2 PUSH2 0x842 JUMPI SWAP1 POP JUMPDEST POP SWAP1 POP PUSH1 0x0 PUSH1 0x4 PUSH8 0xFFFFFFFFFFFFFFFF DUP2 GT ISZERO PUSH2 0x87D JUMPI PUSH2 0x87C PUSH2 0xE5D JUMP JUMPDEST JUMPDEST PUSH1 0x40 MLOAD SWAP1 DUP1 DUP3 MSTORE DUP1 PUSH1 0x20 MUL PUSH1 0x20 ADD DUP3 ADD PUSH1 0x40 MSTORE DUP1 ISZERO PUSH2 0x8B6 JUMPI DUP2 PUSH1 0x20 ADD JUMPDEST PUSH2 0x8A3 PUSH2 0xDCE JUMP JUMPDEST DUP2 MSTORE PUSH1 0x20 ADD SWAP1 PUSH1 0x1 SWAP1 SUB SWAP1 DUP2 PUSH2 0x89B JUMPI SWAP1 POP JUMPDEST POP SWAP1 POP DUP11 DUP3 PUSH1 0x0 DUP2 MLOAD DUP2 LT PUSH2 0x8CE JUMPI PUSH2 0x8CD PUSH2 0x1195 JUMP JUMPDEST JUMPDEST PUSH1 0x20 MUL PUSH1 0x20 ADD ADD DUP2 SWAP1 MSTORE POP DUP9 DUP3 PUSH1 0x1 DUP2 MLOAD DUP2 LT PUSH2 0x8EE JUMPI PUSH2 0x8ED PUSH2 0x1195 JUMP JUMPDEST JUMPDEST PUSH1 0x20 MUL PUSH1 0x20 ADD ADD DUP2 SWAP1 MSTORE POP DUP7 DUP3 PUSH1 0x2 DUP2 MLOAD DUP2 LT PUSH2 0x90E JUMPI PUSH2 0x90D PUSH2 0x1195 JUMP JUMPDEST JUMPDEST PUSH1 0x20 MUL PUSH1 0x20 ADD ADD DUP2 SWAP1 MSTORE POP DUP5 DUP3 PUSH1 0x3 DUP2 MLOAD DUP2 LT PUSH2 0x92E JUMPI PUSH2 0x92D PUSH2 0x1195 JUMP JUMPDEST JUMPDEST PUSH1 0x20 MUL PUSH1 0x20 ADD ADD DUP2 SWAP1 MSTORE POP DUP10 DUP2 PUSH1 0x0 DUP2 MLOAD DUP2 LT PUSH2 0x94E JUMPI PUSH2 0x94D PUSH2 0x1195 JUMP JUMPDEST JUMPDEST PUSH1 0x20 MUL PUSH1 0x20 ADD ADD DUP2 SWAP1 MSTORE POP DUP8 DUP2 PUSH1 0x1 DUP2 MLOAD DUP2 LT PUSH2 0x96E JUMPI PUSH2 0x96D PUSH2 0x1195 JUMP JUMPDEST JUMPDEST PUSH1 0x20 MUL PUSH1 0x20 ADD ADD DUP2 SWAP1 MSTORE POP DUP6 DUP2 PUSH1 0x2 DUP2 MLOAD DUP2 LT PUSH2 0x98E JUMPI PUSH2 0x98D PUSH2 0x1195 JUMP JUMPDEST JUMPDEST PUSH1 0x20 MUL PUSH1 0x20 ADD ADD DUP2 SWAP1 MSTORE POP DUP4 DUP2 PUSH1 0x3 DUP2 MLOAD DUP2 LT PUSH2 0x9AE JUMPI PUSH2 0x9AD PUSH2 0x1195 JUMP JUMPDEST JUMPDEST PUSH1 0x20 MUL PUSH1 0x20 ADD ADD DUP2 SWAP1 MSTORE POP PUSH2 0x9C3 DUP3 DUP3 PUSH2 0x9D3 JUMP JUMPDEST SWAP3 POP POP POP SWAP9 SWAP8 POP POP POP POP POP POP POP POP JUMP JUMPDEST PUSH1 0x0 DUP2 MLOAD DUP4 MLOAD EQ PUSH2 0x9E3 JUMPI PUSH1 0x0 DUP1 REVERT JUMPDEST PUSH1 0x0 DUP4 MLOAD SWAP1 POP PUSH1 0x0 PUSH1 0x6 DUP3 PUSH2 0x9F8 SWAP2 SWAP1 PUSH2 0x12A0 JUMP JUMPDEST SWAP1 POP PUSH1 0x0 DUP2 PUSH8 0xFFFFFFFFFFFFFFFF DUP2 GT ISZERO PUSH2 0xA16 JUMPI PUSH2 0xA15 PUSH2 0xE5D JUMP JUMPDEST JUMPDEST PUSH1 0x40 MLOAD SWAP1 DUP1 DUP3 MSTORE DUP1 PUSH1 0x20 MUL PUSH1 0x20 ADD DUP3 ADD PUSH1 0x40 MSTORE DUP1 ISZERO PUSH2 0xA44 JUMPI DUP2 PUSH1 0x20 ADD PUSH1 0x20 DUP3 MUL DUP1 CALLDATASIZE DUP4 CALLDATACOPY DUP1 DUP3 ADD SWAP2 POP POP SWAP1 POP JUMPDEST POP SWAP1 POP PUSH1 0x0 JUMPDEST DUP4 DUP2 LT ISZERO PUSH2 0xCC9 JUMPI DUP7 DUP2 DUP2 MLOAD DUP2 LT PUSH2 0xA65 JUMPI PUSH2 0xA64 PUSH2 0x1195 JUMP JUMPDEST JUMPDEST PUSH1 0x20 MUL PUSH1 0x20 ADD ADD MLOAD PUSH1 0x0 ADD MLOAD DUP3 PUSH1 0x0 PUSH1 0x6 DUP5 PUSH2 0xA81 SWAP2 SWAP1 PUSH2 0x12A0 JUMP JUMPDEST PUSH2 0xA8B SWAP2 SWAP1 PUSH2 0x1161 JUMP JUMPDEST DUP2 MLOAD DUP2 LT PUSH2 0xA9C JUMPI PUSH2 0xA9B PUSH2 0x1195 JUMP JUMPDEST JUMPDEST PUSH1 0x20 MUL PUSH1 0x20 ADD ADD DUP2 DUP2 MSTORE POP POP DUP7 DUP2 DUP2 MLOAD DUP2 LT PUSH2 0xABB JUMPI PUSH2 0xABA PUSH2 0x1195 JUMP JUMPDEST JUMPDEST PUSH1 0x20 MUL PUSH1 0x20 ADD ADD MLOAD PUSH1 0x20 ADD MLOAD DUP3 PUSH1 0x1 PUSH1 0x6 DUP5 PUSH2 0xAD7 SWAP2 SWAP1 PUSH2 0x12A0 JUMP JUMPDEST PUSH2 0xAE1 SWAP2 SWAP1 PUSH2 0x1161 JUMP JUMPDEST DUP2 MLOAD DUP2 LT PUSH2 0xAF2 JUMPI PUSH2 0xAF1 PUSH2 0x1195 JUMP JUMPDEST JUMPDEST PUSH1 0x20 MUL PUSH1 0x20 ADD ADD DUP2 DUP2 MSTORE POP POP DUP6 DUP2 DUP2 MLOAD DUP2 LT PUSH2 0xB11 JUMPI PUSH2 0xB10 PUSH2 0x1195 JUMP JUMPDEST JUMPDEST PUSH1 0x20 MUL PUSH1 0x20 ADD ADD MLOAD PUSH1 0x0 ADD MLOAD PUSH1 0x1 PUSH1 0x2 DUP2 LT PUSH2 0xB30 JUMPI PUSH2 0xB2F PUSH2 0x1195 JUMP JUMPDEST JUMPDEST PUSH1 0x20 MUL ADD MLOAD DUP3 PUSH1 0x2 PUSH1 0x6 DUP5 PUSH2 0xB45 SWAP2 SWAP1 PUSH2 0x12A0 JUMP JUMPDEST PUSH2 0xB4F SWAP2 SWAP1 PUSH2 0x1161 JUMP JUMPDEST DUP2 MLOAD DUP2 LT PUSH2 0xB60 JUMPI PUSH2 0xB5F PUSH2 0x1195 JUMP JUMPDEST JUMPDEST PUSH1 0x20 MUL PUSH1 0x20 ADD ADD DUP2 DUP2 MSTORE POP POP DUP6 DUP2 DUP2 MLOAD DUP2 LT PUSH2 0xB7F JUMPI PUSH2 0xB7E PUSH2 0x1195 JUMP JUMPDEST JUMPDEST PUSH1 0x20 MUL PUSH1 0x20 ADD ADD MLOAD PUSH1 0x0 ADD MLOAD PUSH1 0x0 PUSH1 0x2 DUP2 LT PUSH2 0xB9E JUMPI PUSH2 0xB9D PUSH2 0x1195 JUMP JUMPDEST JUMPDEST PUSH1 0x20 MUL ADD MLOAD DUP3 PUSH1 0x3 PUSH1 0x6 DUP5 PUSH2 0xBB3 SWAP2 SWAP1 PUSH2 0x12A0 JUMP JUMPDEST PUSH2 0xBBD SWAP2 SWAP1 PUSH2 0x1161 JUMP JUMPDEST DUP2 MLOAD DUP2 LT PUSH2 0xBCE JUMPI PUSH2 0xBCD PUSH2 0x1195 JUMP JUMPDEST JUMPDEST PUSH1 0x20 MUL PUSH1 0x20 ADD ADD DUP2 DUP2 MSTORE POP POP DUP6 DUP2 DUP2 MLOAD DUP2 LT PUSH2 0xBED JUMPI PUSH2 0xBEC PUSH2 0x1195 JUMP JUMPDEST JUMPDEST PUSH1 0x20 MUL PUSH1 0x20 ADD ADD MLOAD PUSH1 0x20 ADD MLOAD PUSH1 0x1 PUSH1 0x2 DUP2 LT PUSH2 0xC0C JUMPI PUSH2 0xC0B PUSH2 0x1195 JUMP JUMPDEST JUMPDEST PUSH1 0x20 MUL ADD MLOAD DUP3 PUSH1 0x4 PUSH1 0x6 DUP5 PUSH2 0xC21 SWAP2 SWAP1 PUSH2 0x12A0 JUMP JUMPDEST PUSH2 0xC2B SWAP2 SWAP1 PUSH2 0x1161 JUMP JUMPDEST DUP2 MLOAD DUP2 LT PUSH2 0xC3C JUMPI PUSH2 0xC3B PUSH2 0x1195 JUMP JUMPDEST JUMPDEST PUSH1 0x20 MUL PUSH1 0x20 ADD ADD DUP2 DUP2 MSTORE POP POP DUP6 DUP2 DUP2 MLOAD DUP2 LT PUSH2 0xC5B JUMPI PUSH2 0xC5A PUSH2 0x1195 JUMP JUMPDEST JUMPDEST PUSH1 0x20 MUL PUSH1 0x20 ADD ADD MLOAD PUSH1 0x20 ADD MLOAD PUSH1 0x0 PUSH1 0x2 DUP2 LT PUSH2 0xC7A JUMPI PUSH2 0xC79 PUSH2 0x1195 JUMP JUMPDEST JUMPDEST PUSH1 0x20 MUL ADD MLOAD DUP3 PUSH1 0x5 PUSH1 0x6 DUP5 PUSH2 0xC8F SWAP2 SWAP1 PUSH2 0x12A0 JUMP JUMPDEST PUSH2 0xC99 SWAP2 SWAP1 PUSH2 0x1161 JUMP JUMPDEST DUP2 MLOAD DUP2 LT PUSH2 0xCAA JUMPI PUSH2 0xCA9 PUSH2 0x1195 JUMP JUMPDEST JUMPDEST PUSH1 0x20 MUL PUSH1 0x20 ADD ADD DUP2 DUP2 MSTORE POP POP DUP1 DUP1 PUSH2 0xCC1 SWAP1 PUSH2 0x11C4 JUMP JUMPDEST SWAP2 POP POP PUSH2 0xA4A JUMP JUMPDEST POP PUSH2 0xCD2 PUSH2 0xDF4 JUMP JUMPDEST PUSH1 0x0 PUSH1 0x20 DUP3 PUSH1 0x20 DUP7 MUL PUSH1 0x20 DUP7 ADD PUSH1 0x8 PUSH2 0x7D0 GAS SUB STATICCALL SWAP1 POP DUP1 PUSH1 0x0 DUP2 SUB PUSH2 0xCF4 JUMPI INVALID JUMPDEST POP DUP1 PUSH2 0xCFF JUMPI PUSH1 0x0 DUP1 REVERT JUMPDEST PUSH1 0x0 DUP3 PUSH1 0x0 PUSH1 0x1 DUP2 LT PUSH2 0xD15 JUMPI PUSH2 0xD14 PUSH2 0x1195 JUMP JUMPDEST JUMPDEST PUSH1 0x20 MUL ADD MLOAD EQ ISZERO SWAP6 POP POP POP POP POP POP SWAP3 SWAP2 POP POP JUMP JUMPDEST PUSH1 0x40 MLOAD DUP1 PUSH1 0xA0 ADD PUSH1 0x40 MSTORE DUP1 PUSH2 0xD3C PUSH2 0xD70 JUMP JUMPDEST DUP2 MSTORE PUSH1 0x20 ADD PUSH2 0xD49 PUSH2 0xDCE JUMP JUMPDEST DUP2 MSTORE PUSH1 0x20 ADD PUSH2 0xD56 PUSH2 0xDCE JUMP JUMPDEST DUP2 MSTORE PUSH1 0x20 ADD PUSH2 0xD63 PUSH2 0xDCE JUMP JUMPDEST DUP2 MSTORE PUSH1 0x20 ADD PUSH1 0x60 DUP2 MSTORE POP SWAP1 JUMP JUMPDEST PUSH1 0x40 MLOAD DUP1 PUSH1 0x40 ADD PUSH1 0x40 MSTORE DUP1 PUSH1 0x0 DUP2 MSTORE PUSH1 0x20 ADD PUSH1 0x0 DUP2 MSTORE POP SWAP1 JUMP JUMPDEST PUSH1 0x40 MLOAD DUP1 PUSH1 0x60 ADD PUSH1 0x40 MSTORE DUP1 PUSH1 0x3 SWAP1 PUSH1 0x20 DUP3 MUL DUP1 CALLDATASIZE DUP4 CALLDATACOPY DUP1 DUP3 ADD SWAP2 POP POP SWAP1 POP POP SWAP1 JUMP JUMPDEST PUSH1 0x40 MLOAD DUP1 PUSH1 0x80 ADD PUSH1 0x40 MSTORE DUP1 PUSH1 0x4 SWAP1 PUSH1 0x20 DUP3 MUL DUP1 CALLDATASIZE DUP4 CALLDATACOPY DUP1 DUP3 ADD SWAP2 POP POP SWAP1 POP POP SWAP1 JUMP JUMPDEST PUSH1 0x40 MLOAD DUP1 PUSH1 0x40 ADD PUSH1 0x40 MSTORE DUP1 PUSH2 0xDE1 PUSH2 0xE16 JUMP JUMPDEST DUP2 MSTORE PUSH1 0x20 ADD PUSH2 0xDEE PUSH2 0xE16 JUMP JUMPDEST DUP2 MSTORE POP SWAP1 JUMP JUMPDEST PUSH1 0x40 MLOAD DUP1 PUSH1 0x20 ADD PUSH1 0x40 MSTORE DUP1 PUSH1 0x1 SWAP1 PUSH1 0x20 DUP3 MUL DUP1 CALLDATASIZE DUP4 CALLDATACOPY DUP1 DUP3 ADD SWAP2 POP POP SWAP1 POP POP SWAP1 JUMP JUMPDEST PUSH1 0x40 MLOAD DUP1 PUSH1 0x40 ADD PUSH1 0x40 MSTORE DUP1 PUSH1 0x2 SWAP1 PUSH1 0x20 DUP3 MUL DUP1 CALLDATASIZE DUP4 CALLDATACOPY DUP1 DUP3 ADD SWAP2 POP POP SWAP1 POP POP SWAP1 JUMP JUMPDEST PUSH1 0x0 PUSH1 0x40 MLOAD SWAP1 POP SWAP1 JUMP JUMPDEST PUSH1 0x0 DUP1 REVERT JUMPDEST PUSH1 0x0 DUP1 REVERT JUMPDEST PUSH1 0x0 PUSH1 0x1F NOT PUSH1 0x1F DUP4 ADD AND SWAP1 POP SWAP2 SWAP1 POP JUMP JUMPDEST PUSH32 0x4E487B7100000000000000000000000000000000000000000000000000000000 PUSH1 0x0 MSTORE PUSH1 0x41 PUSH1 0x4 MSTORE PUSH1 0x24 PUSH1 0x0 REVERT JUMPDEST PUSH2 0xE95 DUP3 PUSH2 0xE4C JUMP JUMPDEST DUP2 ADD DUP2 DUP2 LT PUSH8 0xFFFFFFFFFFFFFFFF DUP3 GT OR ISZERO PUSH2 0xEB4 JUMPI PUSH2 0xEB3 PUSH2 0xE5D JUMP JUMPDEST JUMPDEST DUP1 PUSH1 0x40 MSTORE POP POP POP JUMP JUMPDEST PUSH1 0x0 PUSH2 0xEC7 PUSH2 0xE38 JUMP JUMPDEST SWAP1 POP PUSH2 0xED3 DUP3 DUP3 PUSH2 0xE8C JUMP JUMPDEST SWAP2 SWAP1 POP JUMP JUMPDEST PUSH1 0x0 DUP2 SWAP1 POP SWAP2 SWAP1 POP JUMP JUMPDEST PUSH2 0xEEB DUP2 PUSH2 0xED8 JUMP JUMPDEST DUP2 EQ PUSH2 0xEF6 JUMPI PUSH1 0x0 DUP1 REVERT JUMPDEST POP JUMP JUMPDEST PUSH1 0x0 DUP2 CALLDATALOAD SWAP1 POP PUSH2 0xF08 DUP2 PUSH2 0xEE2 JUMP JUMPDEST SWAP3 SWAP2 POP POP JUMP JUMPDEST PUSH1 0x0 PUSH1 0x40 DUP3 DUP5 SUB SLT ISZERO PUSH2 0xF24 JUMPI PUSH2 0xF23 PUSH2 0xE47 JUMP JUMPDEST JUMPDEST PUSH2 0xF2E PUSH1 0x40 PUSH2 0xEBD JUMP JUMPDEST SWAP1 POP PUSH1 0x0 PUSH2 0xF3E DUP5 DUP3 DUP6 ADD PUSH2 0xEF9 JUMP JUMPDEST PUSH1 0x0 DUP4 ADD MSTORE POP PUSH1 0x20 PUSH2 0xF52 DUP5 DUP3 DUP6 ADD PUSH2 0xEF9 JUMP JUMPDEST PUSH1 0x20 DUP4 ADD MSTORE POP SWAP3 SWAP2 POP POP JUMP JUMPDEST PUSH1 0x0 DUP1 REVERT JUMPDEST PUSH1 0x0 PUSH8 0xFFFFFFFFFFFFFFFF DUP3 GT ISZERO PUSH2 0xF7E JUMPI PUSH2 0xF7D PUSH2 0xE5D JUMP JUMPDEST JUMPDEST PUSH1 0x20 DUP3 MUL SWAP1 POP SWAP2 SWAP1 POP JUMP JUMPDEST PUSH1 0x0 DUP1 REVERT JUMPDEST PUSH1 0x0 PUSH2 0xFA1 PUSH2 0xF9C DUP5 PUSH2 0xF63 JUMP JUMPDEST PUSH2 0xEBD JUMP JUMPDEST SWAP1 POP DUP1 PUSH1 0x20 DUP5 MUL DUP4 ADD DUP6 DUP2 GT ISZERO PUSH2 0xFBB JUMPI PUSH2 0xFBA PUSH2 0xF89 JUMP JUMPDEST JUMPDEST DUP4 JUMPDEST DUP2 DUP2 LT ISZERO PUSH2 0xFE4 JUMPI DUP1 PUSH2 0xFD0 DUP9 DUP3 PUSH2 0xEF9 JUMP JUMPDEST DUP5 MSTORE PUSH1 0x20 DUP5 ADD SWAP4 POP POP PUSH1 0x20 DUP2 ADD SWAP1 POP PUSH2 0xFBD JUMP JUMPDEST POP POP POP SWAP4 SWAP3 POP POP POP JUMP JUMPDEST PUSH1 0x0 DUP3 PUSH1 0x1F DUP4 ADD SLT PUSH2 0x1003 JUMPI PUSH2 0x1002 PUSH2 0xF5E JUMP JUMPDEST JUMPDEST PUSH1 0x2 PUSH2 0x1010 DUP5 DUP3 DUP6 PUSH2 0xF8E JUMP JUMPDEST SWAP2 POP POP SWAP3 SWAP2 POP POP JUMP JUMPDEST PUSH1 0x0 PUSH1 0x80 DUP3 DUP5 SUB SLT ISZERO PUSH2 0x102F JUMPI PUSH2 0x102E PUSH2 0xE47 JUMP JUMPDEST JUMPDEST PUSH2 0x1039 PUSH1 0x40 PUSH2 0xEBD JUMP JUMPDEST SWAP1 POP PUSH1 0x0 PUSH2 0x1049 DUP5 DUP3 DUP6 ADD PUSH2 0xFEE JUMP JUMPDEST PUSH1 0x0 DUP4 ADD MSTORE POP PUSH1 0x40 PUSH2 0x105D DUP5 DUP3 DUP6 ADD PUSH2 0xFEE JUMP JUMPDEST PUSH1 0x20 DUP4 ADD MSTORE POP SWAP3 SWAP2 POP POP JUMP JUMPDEST PUSH1 0x0 PUSH2 0x100 DUP3 DUP5 SUB SLT ISZERO PUSH2 0x1080 JUMPI PUSH2 0x107F PUSH2 0xE47 JUMP JUMPDEST JUMPDEST PUSH2 0x108A PUSH1 0x60 PUSH2 0xEBD JUMP JUMPDEST SWAP1 POP PUSH1 0x0 PUSH2 0x109A DUP5 DUP3 DUP6 ADD PUSH2 0xF0E JUMP JUMPDEST PUSH1 0x0 DUP4 ADD MSTORE POP PUSH1 0x40 PUSH2 0x10AE DUP5 DUP3 DUP6 ADD PUSH2 0x1019 JUMP JUMPDEST PUSH1 0x20 DUP4 ADD MSTORE POP PUSH1 0xC0 PUSH2 0x10C2 DUP5 DUP3 DUP6 ADD PUSH2 0xF0E JUMP JUMPDEST PUSH1 0x40 DUP4 ADD MSTORE POP SWAP3 SWAP2 POP POP JUMP JUMPDEST PUSH1 0x0 PUSH2 0x100 DUP3 DUP5 SUB SLT ISZERO PUSH2 0x10E5 JUMPI PUSH2 0x10E4 PUSH2 0xE42 JUMP JUMPDEST JUMPDEST PUSH1 0x0 PUSH2 0x10F3 DUP5 DUP3 DUP6 ADD PUSH2 0x1069 JUMP JUMPDEST SWAP2 POP POP SWAP3 SWAP2 POP POP JUMP JUMPDEST PUSH1 0x0 DUP2 ISZERO ISZERO SWAP1 POP SWAP2 SWAP1 POP JUMP JUMPDEST PUSH2 0x1111 DUP2 PUSH2 0x10FC JUMP JUMPDEST DUP3 MSTORE POP POP JUMP JUMPDEST PUSH1 0x0 PUSH1 0x20 DUP3 ADD SWAP1 POP PUSH2 0x112C PUSH1 0x0 DUP4 ADD DUP5 PUSH2 0x1108 JUMP JUMPDEST SWAP3 SWAP2 POP POP JUMP JUMPDEST PUSH32 0x4E487B7100000000000000000000000000000000000000000000000000000000 PUSH1 0x0 MSTORE PUSH1 0x11 PUSH1 0x4 MSTORE PUSH1 0x24 PUSH1 0x0 REVERT JUMPDEST PUSH1 0x0 PUSH2 0x116C DUP3 PUSH2 0xED8 JUMP JUMPDEST SWAP2 POP PUSH2 0x1177 DUP4 PUSH2 0xED8 JUMP JUMPDEST SWAP3 POP DUP3 DUP3 ADD SWAP1 POP DUP1 DUP3 GT ISZERO PUSH2 0x118F JUMPI PUSH2 0x118E PUSH2 0x1132 JUMP JUMPDEST JUMPDEST SWAP3 SWAP2 POP POP JUMP JUMPDEST PUSH32 0x4E487B7100000000000000000000000000000000000000000000000000000000 PUSH1 0x0 MSTORE PUSH1 0x32 PUSH1 0x4 MSTORE PUSH1 0x24 PUSH1 0x0 REVERT JUMPDEST PUSH1 0x0 PUSH2 0x11CF DUP3 PUSH2 0xED8 JUMP JUMPDEST SWAP2 POP PUSH32 0xFFFFFFFFFFFFFFFFFFFFFFFFFFFFFFFFFFFFFFFFFFFFFFFFFFFFFFFFFFFFFFFF DUP3 SUB PUSH2 0x1201 JUMPI PUSH2 0x1200 PUSH2 0x1132 JUMP JUMPDEST JUMPDEST PUSH1 0x1 DUP3 ADD SWAP1 POP SWAP2 SWAP1 POP JUMP JUMPDEST PUSH32 0x4E487B7100000000000000000000000000000000000000000000000000000000 PUSH1 0x0 MSTORE PUSH1 0x12 PUSH1 0x4 MSTORE PUSH1 0x24 PUSH1 0x0 REVERT JUMPDEST PUSH1 0x0 PUSH2 0x1246 DUP3 PUSH2 0xED8 JUMP JUMPDEST SWAP2 POP PUSH2 0x1251 DUP4 PUSH2 0xED8 JUMP JUMPDEST SWAP3 POP DUP3 PUSH2 0x1261 JUMPI PUSH2 0x1260 PUSH2 0x120C JUMP JUMPDEST JUMPDEST DUP3 DUP3 MOD SWAP1 POP SWAP3 SWAP2 POP POP JUMP JUMPDEST PUSH1 0x0 PUSH2 0x1277 DUP3 PUSH2 0xED8 JUMP JUMPDEST SWAP2 POP PUSH2 0x1282 DUP4 PUSH2 0xED8 JUMP JUMPDEST SWAP3 POP DUP3 DUP3 SUB SWAP1 POP DUP2 DUP2 GT ISZERO PUSH2 0x129A JUMPI PUSH2 0x1299 PUSH2 0x1132 JUMP JUMPDEST JUMPDEST SWAP3 SWAP2 POP POP JUMP JUMPDEST PUSH1 0x0 PUSH2 0x12AB DUP3 PUSH2 0xED8 JUMP JUMPDEST SWAP2 POP PUSH2 0x12B6 DUP4 PUSH2 0xED8 JUMP JUMPDEST SWAP3 POP DUP3 DUP3 MUL PUSH2 0x12C4 DUP2 PUSH2 0xED8 JUMP JUMPDEST SWAP2 POP DUP3 DUP3 DIV DUP5 EQ DUP4 ISZERO OR PUSH2 0x12DB JUMPI PUSH2 0x12DA PUSH2 0x1132 JUMP JUMPDEST JUMPDEST POP SWAP3 SWAP2 POP POP JUMP INVALID LOG2 PUSH5 0x6970667358 0x22 SLT KECCAK256 0x29 PUSH24 0xBFA14123978D293C837B442C86BCA9200047A8437D08BE18 0xF 0x5D 0x25 MSTORE8 0x26 0x5D PUSH5 0x736F6C6343 STOP ADDMOD SLT STOP CALLER "
		},
		"gasEstimates": {
			"creation": {
				"codeDepositCost": "977600",
				"executionCost": "1014",
				"totalCost": "978614"
			},
			"external": {
				"verifyTx(((uint256,uint256),(uint256[2],uint256[2]),(uint256,uint256)))": "infinite"
			},
			"internal": {
				"verify(uint256[] memory,struct Verifier.Proof memory)": "infinite",
				"verifyingKey()": "infinite"
			}
		},
		"methodIdentifiers": {
			"verifyTx(((uint256,uint256),(uint256[2],uint256[2]),(uint256,uint256)))": "f6af0311"
		}
	},
	"abi": [
		{
			"inputs": [
				{
					"components": [
						{
							"components": [
								{
									"internalType": "uint256",
									"name": "X",
									"type": "uint256"
								},
								{
									"internalType": "uint256",
									"name": "Y",
									"type": "uint256"
								}
							],
							"internalType": "struct Pairing.G1Point",
							"name": "a",
							"type": "tuple"
						},
						{
							"components": [
								{
									"internalType": "uint256[2]",
									"name": "X",
									"type": "uint256[2]"
								},
								{
									"internalType": "uint256[2]",
									"name": "Y",
									"type": "uint256[2]"
								}
							],
							"internalType": "struct Pairing.G2Point",
							"name": "b",
							"type": "tuple"
						},
						{
							"components": [
								{
									"internalType": "uint256",
									"name": "X",
									"type": "uint256"
								},
								{
									"internalType": "uint256",
									"name": "Y",
									"type": "uint256"
								}
							],
							"internalType": "struct Pairing.G1Point",
							"name": "c",
							"type": "tuple"
						}
					],
					"internalType": "struct Verifier.Proof",
					"name": "proof",
					"type": "tuple"
				}
			],
			"name": "verifyTx",
			"outputs": [
				{
					"internalType": "bool",
					"name": "r",
					"type": "bool"
				}
			],
			"stateMutability": "view",
			"type": "function"
		}
	]
}